:0200000480007A
:100000003741000213010100B70100029381010092
:10001000B7650080938505A437660080130606A4A3
:10002000B70600029386060039A083A2050023A02C
:10003000560091059106E3EAC5FEB70500029385D7
:100040000500370600021306066E21A023A0050056
:100050009105E3EDC5FEB7000080E7804007B700DB
:100060000080E7804007B7400080E78060B37300FE
:100070005010F5BF8280000000000000000000006A
:100080000000000000000000000000000000000070
:100090000000000000000000000000000000000060
:1000A0000000000000000000000000000000000050
:1000B0000000000000000000000000000000000040
:1000C0006F004000197106C20AC40EC612C816CAD3
:1000D0001ACC1ECE22D026D22AD42ED632D836DA48
:1000E0003ADC3EDEC2C0C6C2CAC4CEC6D2C8D6CA78
:1000F000DACCDECEE2D0E6D2EAD4EED6F2D8F6DA28
:10010000FADCFEDE970000009380E00482909240CB
:100110002241B2414242D2426243F24302549254DB
:100120002255B2554256D2566257F2570648964863
:100130002649B649464AD64A664BF64B065C965C5B
:10014000265DB65D465ED65E665FF65F096173004A
:10015000203001A03D432A876373C3029377F700E1
:10016000BDEFADE5937606FF3D8ABA960CC34CC34E
:100170000CC74CC74107E36BD7FE11E28280B30680
:10018000C3408A069702000096966780A600230760
:10019000B700A306B7002306B700A305B7002305E1
:1001A000B700A304B7002304B700A303B7002303D9
:1001B000B700A302B7002302B700A301B7002301D1
:1001C000B700A300B7002300B700828093F5F50FB6
:1001D00093968500D58D93960501D58D61B793963D
:1001E00027009702000096968682E78086FA96801E
:1001F000C1171D8F3E96E374C3F8A5B701458280F1
:1002000001458280411106C622C426C24AC0AE847E
:100210003289368401A8A6854A85EF30F07E938422
:1002200004207D146DF80145B240224492440249F5
:1002300041018280411106C622C426C24AC0AE8452
:100240003289368401A8A6854A85EF40400E938402
:1002500004207D146DF80145B240224492440249C5
:100260004101828099E10145828005458280834772
:100270001500A207034505005D8D82808347350088
:10028000A20703472500D98FA20703471500D98F7E
:10029000A207034505005D8D828083477500A20794
:1002A00003476500D98FA20703475500D98FA207DE
:1002B00083464500DD8EE183A20603473500558F56
:1002C000E182A207D58F220783452500D98D61835E
:1002D000A207D98FA205034715004D8FE181A20720
:1002E000220703450500598DDD8D82802300B5006E
:1002F000A181A300B50082802300B50093D78500BB
:10030000A300F50093D705012301F500E181A301C6
:10031000B50082802300B50093D78500A300F500C7
:1003200093D705012301F500E181A301B500230264
:10033000C50093578600A302F500935706012303D7
:10034000F5006182A303C5008280014582800145DA
:1003500082802A881C411387170083C707003E85C7
:1003600093968701E18663C506002320E80082801A
:1003700093F6070E1306000C6382C60293F6070F6E
:100380001306000E6381C60893F6870F1306000F4D
:10039000639FC60613F577008D4621A013F5F7017C
:1003A000854683470700050793F5070C13060008E9
:1003B0006391C5061A0593F7F7035D8DFD16F5F2F7
:1003C0009307F00763F9A704CD7793870780AA976F
:1003D0009306F07F63F3F604B70711006371F50429
:1003E000C167E364F5F8C176AA969A06B707FF03DA
:1003F000FD8E9377F53FDD8EB7E700D8938707C072
:1004000033E5F6009DB713F5F700894659BF7D55D2
:1004100082807D5582807D5582807D5582807D558C
:1004200082809307F00763E7A7006DCE2380A500C5
:10043000054582809307F07F63E6A702854763E462
:10044000C7000145828093576500FD8B93E7070C39
:100450002380F5001375F50313650508A380A50037
:1004600009458280C1676376F504894763FEC70A40
:10047000CD7793870780AA971307F07F6364F7000F
:10048000014582809357C500BD8B93E7070E2380FB
:10049000F5009357650093F7F70393E70708A380E8
:1004A000F5001375F503136505082381A5000D45B7
:1004B00082808D4763FCC706C177E98F3707002824
:1004C000BA979983420541814977130707403A95C6
:1004D0003707100063FEE7041307F03F636CA704BF
:1004E000C98F4167BA9713D727011D8B1367070F71
:1004F0002380E50013D7C7001377F70313670708B6
:10050000A380E50013D767001377F7031367070885
:100510002381E50093F7F70393E70708A381F5002C
:10052000114582803285828001458280014582802A
:100530000145828001458280F9155C4DF91763FA07
:10054000F5001C590357A5003307B7023385E700B0
:10055000828001458280411106C622C426C24AC05B
:100560002A89AE841385A5011933034709008D47F5
:100570006308F700B240224492440249410182805C
:100580002A8413854401E5314205418DE5B74111C7
:1005900006C622C426C24AC02A892E84B284931574
:1005A0000601C1811305A4019133034709008D475A
:1005B0006308F700B240224492440249410182801C
:1005C00093D50401130544011533EDB7011106CE8F
:1005D00022CC26CA4AC84EC652C4AA892E8913857F
:1005E000A501713135ED8347090093F7F7FBFD173E
:1005F00093941700BE948A04BE94054A014431A026
:10060000C167FD176319F5060504B14763E9870261
:10061000B75700809387871AA29703C507004A95AA
:10062000B931E30F0AFC9307F00F63E49704939743
:100630001400CE972390A7002A8A8504F1B7834738
:10064000090093F7070495CB630B0A029307F00F99
:1006500063E997028604A69923900900054511A035
:100660000145F2406244D2444249B249224A0561FE
:1006700082800145FDB70145EDB70545DDB705456C
:10068000CDB70145F9BF011106CE22CC26CA4AC812
:100690004EC652C456C22A8AAE89B28AA386D500F3
:1006A000BD47A385F5002386050081451385A90173
:1006B00035399387FAFF139917003E990A093E9935
:1006C0000144814429A08504B14763EA9702C167C8
:1006D000FD176308F40093171900D29703D407009D
:1006E0000509B75700809387871AA69703C50700A7
:1006F000A2854E95E53E61F841647D14E9B7C16776
:10070000FD176307F40006094A9A83570A0099E324
:1007100093EA0A0423805901F2406244D2444249D8
:10072000B249224A924A05618280AA862D46014535
:10073000935715001E05C98F93F7F70F03C70600DF
:100740008506BA9713F5F70F7D167DF282802A860B
:1007500083461500850696060145814719A0850741
:10076000850763F3D7020947E38BE7FE1317F5000C
:1007700005813A95420541813307F600034707009A
:100780003A9542054181E9BF8280411106C622C4E3
:1007900026C2AA842E84084913054503C53408C41B
:1007A000884813058503D53C08C84CC89C4883C7B6
:1007B0001702898BA303F400232E0400B2402244C5
:1007C0009244410182802A860C41B1C92E87834719
:1007D00007000507FD4663F6F6009306A003E398BD
:1007E000D7FE9306A0036384D7000145828003C52A
:1007F0000500930705FD93F7F70FA54663EFF60095
:1008000089056384E5007D558280130505FD6354E9
:10081000A0007D55828018C282807D5582807D55E2
:100820008280411106C622C426C22A84AE841DC914
:100830001C419DCB03C707001DCB8356450003D742
:100840006700638AE6002545014480C0B240224427
:1008500092444101828003C517004D32058919E990
:100860000040E5B72545D5B73E842545F9BF254568
:100870000144E1BF25450144C9BF411106C622C458
:1008800026C24AC08347450089EB81442685B24091
:10089000224492440249410182802A841309C503FB
:1008A0008546105DCA85034515006932AA8415E5A1
:1008B00023020400105C1C54B307F6401850E3F701
:1008C000E7FC834634008947E392F6FC85463A9676
:1008D000CA8503451400B93A55BF854445BF411147
:1008E00006C622C426C24AC01C5D639AB7000149ED
:1008F0004A85B240224492440249410182802A84BE
:10090000AE84A53F2A896DF5854626869305C403E6
:1009100003451400C53819C10549FD5404DCC9BF9D
:10092000411106C622C426C24AC02A8423020500F9
:10093000FD571CDD6D37631C050EAA841305A42327
:100940003D322A89AD67938757A5630DF50283472A
:10095000C4031307B00E6383E7041307900E638F7D
:10096000E7021307800E638BE702AD67938757A5F5
:10097000630DF90A8D442685B2402244924402490F
:10098000410182802D46B755008093858566130509
:10099000C403EF40405145FD8544F1BFAD679387E7
:1009A00057A56309F90613057404D130034794046D
:1009B0009307F5FFE98FD5FB9307F01FE3F7A7FA3D
:1009C00093070020E3E3A7FA4DD39307F7FF7D8F4A
:1009D00049FF1305A404613849D98347C404FD17AE
:1009E0000547E364F7F81305D40451303DDD1305E2
:1009F000F404B5389307F00763E8A7001305C405AE
:100A0000B538C167E363F5F613052405EFF03F86BB
:100A100029DD95B72146B7550080938545671305B5
:100A2000E408EF40404841F1B9B78944A9B791447F
:100A300099B7011106CE22CC26CA4AC82A89AE84AB
:100A40008145F93D89476307F50063E3A706ADC01B
:100A5000014411A001448D4763E387021305C903D4
:100A6000931744009387671C3E95EFF03F819317DF
:100A70002400C1078A9723A8A7FE0504E9BF81C403
:100A80001384F4FF29A8268419A84A85513D8DE0D6
:100A9000854763FFA70005048D4763EB8700931725
:100AA0002400C1078A9783A507FFE5F10D45C5B767
:100AB000F2406244D244424905618280797106D68F
:100AC00022D426D24AD04ECE52CC56CA5AC85EC67E
:100AD0002E89B28423A00500FD31634B053E0A0533
:100AE000B7070002938747003E950041630F043E1D
:100AF0002320890093F4E40F8347040099CF034532
:100B00001400EFF0AFEF9377150081EB6381043EA3
:100B100011896310053E81446DAE23000400034536
:100B20001400EFF0EFED937715006396073C81C456
:100B300011896314053C81452285E53DAA849147CE
:100B4000630FF53A854763EEA73A032984036307E9
:100B5000F51A13057404EFF08FF193070020631862
:100B6000F53C13052405EFF08FF0AA8411E5130579
:100B70000406EFF0AFF0AA8404D00347C404A30135
:100B8000E4009307F7FF93F7F70F854663E3F63A20
:100B9000B3099702034A940423154401630D0A38EC
:100BA0009307FAFFB377FA00639907381305D40463
:100BB000EFF0EFEB2A8B2314A4009377F5006390FA
:100BC00007381305F404EFF08FEAAA8A11E513053C
:100BD000C405EFF0AFEAAA8A1305A404EFF02FE9E9
:100BE00063010536B307350113574B00BA9763EC21
:100BF000FA34B38AFA4033D74A0363E84A35B70672
:100C00000010D51663E1E61AC166D51663E5E62243
:100C1000094A59AA85071307F0036367F7003307EA
:100C2000F4000347C7037DD71307F003637DF72C58
:100C30001305440AEFF0AFE3930700106317F52C98
:100C40000347840AA5476314F72C13054408EFF003
:100C5000CFE4B307250133B5A700BE8AB309B500B9
:100C60006399092A13050409EFF04FE108D083477F
:100C7000A40AA301F4000547639FE7280347940AE9
:100C80008547339AE70093170A01C1832315F400BF
:100C90006385072813058409EFF04FDE2A8BB70719
:100CA000008093C7D7FF63ECA726930725005CCC91
:100CB0002322240313054409EFF04FDCB30B250175
:100CC000232874031305C408EFF04FDBB307250195
:100CD0001CD493170A01C183B3876703DE973E874D
:100CE000B3B7770163E0F902638C37011305C409D8
:100CF000EFF0CFD848D40149814925A0AD4721BFA5
:100D0000E3F6EAFEB544F1A28509B307240103C75F
:100D1000C703930710086306F70213090902137942
:100D2000F91FE31409FE8357A40063FCF91E4C5419
:100D30002285EFF07F80B305350122854D3669D5D8
:100D400049AA9309C403130549014E95EFF00FD347
:100D50002A89854763F9A71C5C4C6378F51C1C58ED
:100D60000357A4009306E5FF3307D702BA975CD870
:100D70000C5493577900BE9522859536631B051454
:100D80001375F9070A054E95EFF04FCFFD5763072E
:100D9000F5000509E30E25FDB54425AAFD571CCC39
:100DA0005CC8114A95A0014A8566D51663F7E60826
:100DB000630F0A18930A2700232E540123222403C9
:100DC0004A9508D4CA971CD88D47630AFA06630669
:100DD0000B184E9548D489476303FA0813971A00F5
:100DE0005697058393F71A00BA979387F71FA58341
:100DF00063E7F416FD571CCC5CC8930700F8A30208
:100E0000F4008D476300FA0623004401370700020F
:100E1000835707008507C207C1832310F7002313F8
:100E2000F400B7070002938707015CC4938707208B
:100E30001CC8814479A80D4AA5BF054AA5BF130562
:100E40006406EFF0CFC26316051063160B1013058E
:100E50008406EFF0AFC248D493972A0079B79397EE
:100E60001A0061B71305C406EFF06FC08547E31D94
:100E7000F5F89305190022859D3459F5A302040065
:100E80001305A423EFF0AFBEAD67938757A5E31D0D
:100E9000F5F61305C403EFF06FBEB75761419387B2
:100EA0002725E313F5F613050422EFF02FBDB777DE
:100EB000416193872727E319F5F413054422EFF0E6
:100EC000EFBB08CC13058422EFF04FBB48C82DBF01
:100ED000AD442685B250225492540259F249624AD6
:100EE000D24A424BB24B45618280B144DDB7814466
:100EF000CDB7A944F9BF8D44E9BFA944D9BF854402
:100F0000C9BFB544F9B7B544E9B7B544D9B7B54495
:100F1000C9B7B5447DBFB5446DBFB5445DBFB544E9
:100F20004DBFB5447DB7B5446DB7B5445DB7B54465
:100F30004DB7B54479BFB54469BFB54459BFB54451
:100F400049BFB54479B7B54469B7B54459B7B54455
:100F500049B7B544BDBFB544ADBFB5449DBFB54469
:100F60008DBF011106CE22CC26CA4AC84EC652C435
:100F700056C2AA84328A9389E5FF5C4DF91763E370
:100F8000F9008149CE8A4E840149CC589357C40058
:100F9000BE952685A93225E9135634001376F61F2F
:100FA000137774008547B397E70093F7F70F21A8ED
:100FB0002A89A28A6380890499E705069307F01FAE
:100FC000E3E5C7FC85473387C4000347C7037D8F2C
:100FD000860793F7F70F0504D44CF9166366D4001F
:100FE0002A8413060020814761F70509E31449FDAF
:100FF00013852A00F2406244D2444249B249224A4F
:10100000924A056182807D55F5B7011106CE22CC4A
:1010100026CA4AC84EC652C456C22A89B289368ADE
:101020009387E5FF4C5913D7C700BA9593D437007F
:1010300093F4F41F9D8B05443314F4001374F40FE0
:10104000938A15004A85EFF09F8901C50545A9A03F
:101050000544B307990083C7C70333F787003337C5
:10106000E000630A470333079900A18F230EF702BC
:1010700085472302F900FD196389090206041374E8
:10108000F40F61F8850405449307F01FE3F297FC21
:10109000D685AA8475B70945F2406244D2444249D4
:1010A000B249224A924A056182804E85F5B7011104
:1010B00006CE22CC26CA4AC84EC652C456C25AC010
:1010C000854763F7B7142A892E84B2895C4D63FD86
:1010D000F5148347050009476385E7106364F70843
:1010E0000547639FE70613DA15002E9A0C559357B0
:1010F0009A00BE95EFF0AFFEAA84631C0510930A18
:10110000C903130B1A00137AFA1F569A05885DCC8F
:1011100083470A00139749008566C116758FBD8BFA
:10112000D98F93F7F70F2300FA0085472302F900C0
:101130008325890293579B00BE954A85EFF02FFACD
:10114000AA8461E9137BFB1FDA9A41C493D7490053
:1011500093F7F70F2380FA0085472302F90055A87B
:10116000894445A8F51793F7F70F05476360F70C17
:101170000C5593577400BE95EFF06FF6AA8451E9B1
:101180000347090091476306F702370A00107D1AEA
:10119000B3F949011305C9039317240093F7C71F37
:1011A0003E95EFF0AF8DB70700F03376F500B3E969
:1011B000C9001305C9030A041374C41FCE85229500
:1011C000EFF08F9385472302F900A1A093F7F90F61
:1011D00099BF83C70A0013D789003D8BC19BD98F64
:1011E00095BF0C5593578400BE95EFF04FEFAA843E
:1011F0000DE11305C90306041374E41F9395090157
:10120000C1812295EFF08F8E85472302F90011A04E
:1012100089442685F2406244D2444249B249224A76
:10122000924A024B056182808944E5B78944D5B76B
:10123000411106C622C426C24AC02A84AE8432891D
:1012400001A84A86AD35AA8705E15C4CFD175CCC48
:101250005C4C99CB08403386F44093051600054753
:10126000E371F7FE0906F9BF3E85B240224492447D
:10127000024941018280034775008D476304F700EE
:1012800001458280411106C622C426C24AC02A896D
:101290000C45004D19C893841500268603250900C6
:1012A000393519E57D14A685F5B7A3030900228514
:1012B000B24022449244024941018280011106CE8B
:1012C00022CC26CA4AC84EC6044105476370B718E7
:1012D000AA872E84D84C63F3E51803C704008D4613
:1012E000630DD70E63ECE6028547630BF708894769
:1012F0006314F7028C5493578400BE952685EFF053
:101300000FDE631105161385C40306041374E41F6E
:101310002295EFE0DFF525AA054515AA9146631F42
:10132000D70418495049B366C70099C2144589E6E5
:1013300083C67700639C06129447B305D440930696
:10134000F7FF3337E0007D1632975E07A582D98E0E
:1013500003D7A400B3D6E60203C7770009466303A8
:10136000C70A8D466307D70A89466308D710DC4F42
:10137000DDC7370500801345F5FFD1A80545C1A895
:1013800013D915002E998C5493579900BE95268534
:10139000EFF0EFD419C17D555DA8930919001379B9
:1013A000F91F26990349C9038C5493D79900BE9518
:1013B0002685EFF0CFD24DE593F9F91FA69983C7A3
:1013C000C903A207B3E72701058801C413D5470065
:1013D000BDA805657D157D8D9DA88C54935774001F
:1013E000BE952685EFF0AFCF41E11385C4030A0413
:1013F0001374C41F2295EFE07FE8B7070010FD17B4
:101400007D8DB1A0E3EFB6F46384D5061305140017
:101410003DA8944FE3FAD5F4130514000DA88C549D
:1014200093577400BE952685EFF06FCB29E913859D
:10143000C4039317240093F7C71F3E95EFE01FE402
:10144000B707008093C7F7FF7D8D11A00545F240D7
:101450006244D2444249B249056182800545C5BF14
:101460007D55F5B77D55E5B77D55D5B70545C5B76C
:10147000370500801345F5FFD9BF0545C9BF7D5528
:10148000F9B7011106CE22CC26CA4AC84EC652C4AC
:1014900056C2AA892E89032A050003470A009147EC
:1014A0006305F706B70720006371F90A937AF9011B
:1014B00063980A0A23A8290303A4890031E8034793
:1014C0000A00894763F6E7000324CA02A3830900E0
:1014D00021E09357590003578A0063F5E7088327F3
:1014E000CA0223ACF90223AA890283A78903D9C3BC
:1014F00013579900BA9723ACF902130ACA039375DC
:10150000F91F2E9A23AE490391A0B707001069BFB7
:101510008354AA00A60463639902A2854E85793B91
:101520002A84FD576302F504854763F1A7048327E6
:10153000CA01637FF50233099940F1BFA285528544
:10154000EFE09FFF23ACA90279BF894A5685F2409C
:101550006244D2444249B249224A924A0561828099
:10156000894AEDB7894ADDB7854ACDB7894AF9BFBF
:10157000894AE9BF894AD9BF011106CE22CC26CAC1
:101580004AC84EC652C456C25AC0AA89AE8A032A55
:10159000050099E903294A01630609028327CA0164
:1015A0006363F902054905A0113B2A84854763FD61
:1015B000A71AFD57630DF5188327CA016369F5184B
:1015C000568911A0054903248A01630204180347C0
:1015D0000A0091476309F7006309590B014B631037
:1015E0000B12CA8411A20546CA855285EFF07F9777
:1015F0002A841307F5FFF55763EBE7148546054684
:10160000AA855285193489476302F5168547630117
:10161000F516639F0A028947A383F90003C779007F
:1016200089476300F71293871A006386870483A7AC
:10163000C90181E7854723AEF9002286D6854E850C
:10164000C53E63120510854723AEF900228B7DA8A5
:1016500003C779008947E313F7FC93071900E38F69
:1016600087FA83A78900B307F94023ACF9008D47B7
:10167000A383F90065B783A7C90191C7850723AE86
:10168000F900228B61A08947DDBF130B1900832766
:10169000CA016363FB00094BDA854E8505312A8454
:1016A00085476306F50AFD576303F50A0DD98327BD
:1016B0004A0105476378F7000327CA0163E6E7009C
:1016C000014B31BF014B21BF3E89014B09BFA685AC
:1016D0004E85ED362A841DC18547630AF506FD5700
:1016E0006307F506638A240985048327CA01E3E0BA
:1016F000F4FE854763F027098944D1BF268B7D56C8
:10170000DA8552856D3221E163970A020DED232AB5
:101710006A0103278A018327CA01F91763E5E700F5
:101720007D17232CEA0083475A0093E71700A30292
:10173000FA005A8429A85A86D6855285EFF03F9739
:10174000F1B7228BE1B78547630EF500054422858A
:10175000F2406244D2444249B249224A924A024B80
:10176000056182807D54E5B70544D5B70544C5B70A
:101770007D54F1BF5A84E1BF5A84D1BF011106CE16
:1017800022CC26CA4AC84EC652C456C20441854716
:1017900063F9B7122A892E84B289DC4C63F5F512FD
:1017A00015C203C7040091476317F700034775008C
:1017B00089476309F7007D56CE852685EFF03F8F78
:1017C00063140510A28A2DA00146D2852685EFF06C
:1017D0001F8E21C1D5A893071A006388870003C70D
:1017E000040091476305F704A28ADC4C637CF4048F
:1017F000228AA2854A85D9342A8429C58547630E61
:10180000F50CFD57630DF50C03C704009147E31D6C
:10181000F7FA984CDC4CF917E37FF7FA050798CCF8
:1018200083C7540093E71700A382F4006DB7330613
:101830005A4181460506D6852685EFF00FFD49E51C
:10184000A28A65B703C7040091476304F700014506
:10185000A5A863960900A30309004E85B5A0834798
:1018600079008DEF0324890063013403A2854A8542
:10187000B134854763F7A706FD576306F50693075E
:1018800014006394A7003E84C5B763043401014586
:1018900025A88947A303F90001453DA00D476384AE
:1018A000E700014515A08327890063E0F9040327B9
:1018B0008901BA9763ED37038947A303F90001450E
:1018C00021A0094511A00945F2406244D244424991
:1018D000B249224A924A056182800945F5B7054519
:1018E000E5B70945D5B70545C5B70145F1BF014580
:1018F000E1BF011106CE22CC26CA4AC84EC6AA8430
:101900002E89EFE09FF709C90545F2406244D244B1
:101910004249B249056182802A84CA852685EFE062
:10192000BFC12A8988DC9389C4031306002081453E
:101930004E85EFE03F8211A0050483D7A400637BAE
:10194000F400854633062401CE8503C51400EFE07C
:101950007F8E7DD103D5A400018D3335A00075B7EE
:10196000011106CE22CC26CA4AC84EC652C456C25F
:101970002A842E8A0441032905031309090203C797
:10198000040091476308F704B70720006364F90077
:10199000232C04021C5CCDCF9379F91F639C0900B2
:1019A00085071CDC4C5895ED9357590003D78400EC
:1019B00063F5E702232824039384C403CE9444DC14
:1019C0000145F2406244D2444249B249224A924A15
:1019D00005618280B707001055BF232C0402114512
:1019E000CDB79357990003D7A4007D17F98FF9F36A
:1019F0002285EFF0BF8CAA8A854763FDA704FD57B7
:101A0000630CF504DC4C6369F502630F0A024C5861
:101A100022859D36AA8A39C185476303F504FD579F
:101A20006302F504AA852685E9351DED8347740018
:101A300093E74700A303F400232A5403D6852685A1
:101A4000EFE09FAF08DCBDB7232C0402114595BF22
:101A5000114585BF0945B5B70545A5B71D4595B7DE
:101A6000094585B70545B1BF0545A1BF011106CEA2
:101A700022CC26CA4AC84EC62A84AE89032905004C
:101A800081450134AA8415C991476382F4062685ED
:101A9000F2406244D2444249B249056182805C5CB2
:101AA0008387070063D40700AA8421A08504638E7E
:101AB0003403854522856D350DE50C5C4A85EFE0E4
:101AC0001FE215E1034709009147E30AF7FC5C5C5C
:101AD00083C707001307500EE38AE7FCE1DBAA8403
:101AE000C9BFAA8455B7AA8445B7AA8471BF9D44CB
:101AF00079BF397106DE22DC26DA4AD84ED652D4B6
:101B000056D25AD05ECE62CC66CAAA892E8A9C4131
:101B10003EC61C4103A9C700014419A89307E00F62
:101B200063E2872E93171400CA9723909700050449
:101B30006800EFE01F82FD576304F52CC167636AFC
:101B4000F50093171400CA97135705012390E70077
:101B5000050493140501C180FD4763F897029307BC
:101B6000F0026384F4029307C0056380F4029307D4
:101B7000F007E3E597FAA685375500801305056859
:101B8000EF30E04B41DD194545AAFD4763E9970079
:101B90009144B2472320FA0035A085073EC6B247DC
:101BA00003C707009306F002E309D7FE9306C005BA
:101BB000E305D7FEFD4763F4E7008144D9BF9144B4
:101BC000C9BF7D1415C0B707008093C7F7FFA29760
:101BD0008607CA9783D7070013070002E383E7FE4F
:101BE0001307E002E38FE7FC93171400CA972390D2
:101BF0000700630B0420014711A005079317170086
:101C0000CA9783D7070093060002E388D7FE09E747
:101C10009306E0026394D70093E4340005C0B7074D
:101C2000008093C7F7FFA2978607CA9783D607005D
:101C30009307E0026384F6007D14CDB7930600029B
:101C40002380D904A380D9042381D904A381D90492
:101C50002382D904A382D9042383D904A383D9047A
:101C60002384D904A384D9042385D904A14B014C2E
:101C7000014B930A170006074A97035A07006307A8
:101C80000A06930700026306FA049307E002630062
:101C9000FA0463747C05630254059307F00763E458
:101CA000470D630B0A00D285375500801305C568C0
:101CB000EF30E0386307051093E43400130AF005B1
:101CC000B3878901238047055687050C5DB7E3027A
:101CD00054FD93E43400568769BFAD47638BFB0620
:101CE0006304540193E434006378540703C7090480
:101CF0009307500E630EF70EA147638FFB0E937789
:101D0000CB0031476387E70093773B000D4763942F
:101D1000E70093E4240093F7240081EF93771B00FE
:101D200099C393E40401137B4B0063040B0093E419
:101D30008400A38599040145F2506254D25442595B
:101D4000B259225A925A025BF24B624CD24C216138
:101D5000828093E4340059BF0A0B137BFB0F228768
:101D6000AD4B214C39B793EC2400930520365285B6
:101D7000EF10D0002A8A9377050881CF137AF507F0
:101D8000B75700809387871AD29703CA0701E68462
:101D900009BF9307F00F63F4A7029387FBFF637BF0
:101DA000FC0093578500338789012300F704050C55
:101DB000E68439B793E4340056875E8C5DBDE684D3
:101DC000CDB59307FAFBC207C18365476364F7008B
:101DD000136B2B009307FAF9C207C1836547E361D0
:101DE000F7EE136B1B00011A420A135A0A01C9BD10
:101DF00095472380F90409B70A0B137BFB0F01B742
:101E000019451DBF19450DBF19453DB7411106C6FE
:101E100022C426C2014435A8EF10607F13170501C4
:101E200041839316F40093571400B697C207C183F9
:101E30001375F50FAA97C207C1839396F70013D4C1
:101E4000170036944204418021833A944204418031
:101E5000268593042500035505005DFD2285B240CB
:101E60002244924441018280011106CE22CC26CA2E
:101E70004AC84EC652C456C2AA892E8A1306000406
:101E80008145EFE02FAD930750F82380F9009307C9
:101E900000FC2380F90285440149814A13040004AF
:101EA00081A0A68533858900EFE04FC409049377AC
:101EB000F40181CFFDD493171900D29783D4070082
:101EC000EDD005091379F90FE9BF93871A0013F7CD
:101ED000F70F93171900D29783D7070099CFBA8AC3
:101EE0009307140033878900930610FC2300D70062
:101EF000CE9709042380070075BFA3812903890AAF
:101F0000A380590152851937AA8513854902EFE04C
:101F1000EFBDF2406244D2444249B249224A924A59
:101F200005618280011106CE22CC26CA4AC84EC65F
:101F300052C456C25AC02A8AAE891385A501EFE061
:101F40000FB359E583C7090093F7F703FD171394FF
:101F500017003E940A043E94854A014901A80145B0
:101F60008DA8C167FD176310F5080509B14763E344
:101F70002705B75700809387871ACA9703C50700BC
:101F80004E95EFE0CFAEAA84E38D0AFC9307F00FE5
:101F9000E3E787FCEF10A067AA8A130B140006047E
:101FA000529403550400EF108066E39AAAFAA68AB9
:101FB0005A8465BF83C7090093F707049DC76388E8
:101FC0000A020604229A83570A0085E7054511A0F4
:101FD0000145F2406244D2444249B249224A924AFF
:101FE000024B056182800145EDB70545DDB705452A
:101FF000CDB70145F9BF011106CE22CC26CA4AC889
:102000004EC652C4AA840841032905018C5CEFE046
:102010001F8D2A8409E9CC5C03C70500930750088B
:10202000630CF70009442285F2406244D2444249DD
:10203000B249224A05618280130600024A85EF20D8
:10204000B06B83471900850793995700138709FAE6
:102050009307002063E6E70C81452685EFF05F904B
:102060002A8491476302F5025DFD8C5C8840EFE0B5
:102070001F872A844DF9CC5C03C705009307000C29
:102080006306F700094445B7094471BF130600020F
:1020900013050902EF205066834739029387C70270
:1020A0003D47B3D7E702960763EEF906130A00042B
:1020B00039A009448DBF130A0A0263733A058145AA
:1020C0002685EFF0FF892A849147E304F5FE21FD80
:1020D0008C5C8840EFE0BF802A8431F5CC5C03C77C
:1020E00005009307100C6311F7049307F025E3E450
:1020F00047FD1306000233054901EF20F05F65BF7D
:1021000093070026E3E147F34A85EFE04FE4AA8412
:1021100013052900EFE0AF95E387A4F0094421B748
:10212000094411B7094401B70944F5BD011106CEB0
:1021300022CC26CA4AC84EC652C456C2AA842E8A87
:1021400003290500930AF00F9309F00F114419A811
:10215000130750086380E70681452685EFF05F800E
:102160002A8471ED8C5CE1CD4A85EFE04FF72A843B
:1021700079E5CC5C83C70500F1C30346090011472C
:10218000E308E6FC03C7B5001377F7032383E400F5
:102190001306500E638BC7081306E002638AC70854
:1021A0001376F7FD61161336160063044603930990
:1021B000F00F5DB79C58FCC42685353D2A8449E163
:1021C0008327090183C7470093F7F7032383F400AC
:1021D000BDA03D466311C70413F7070401CB83CAB2
:1021E000D50093F7F70B9858F8C4BE89638537017B
:1021F0009309F00F95B783C7D500638557019309FD
:10220000F00F99BF0325C900EFE04FBC0DC5FD19C4
:1022100093F9F90F91B7639709002E85EFE0EFD09E
:10222000630F5501FD57FCC419A89309F00F2DB792
:102230009309F00F15B79309F00F39BF114419C076
:1022400023AC04022285F2406244D2444249B2499E
:10225000224A924A05618280797106D622D426D21A
:102260004AD04ECE52CC56CA5AC85EC62A89832955
:1022700005008145EFF0EFA02A84631A051603C715
:1022800009009147630AF700FD572326F904930AD2
:10229000F00F130AF00F61A803A5C900853EAA8BB1
:1022A00081A803A509015295EFD07FFCEF102036DD
:1022B000AA8A83A7C90013171B00BA9703D5070082
:1022C000EF10E034639DAA00FD1493F4F40F090AA3
:1022D000050B91C49377FA01E9F7090AD9B789E8A0
:1022E00083A7C900060BDA9783D70700638107101D
:1022F00081454A85253D2A84631B050E83A4090177
:1023000013854402EFD0BFF6E31475FF83C4340293
:10231000228B130A000475BFFD572326F904130A04
:10232000F00F81454A85EFF0AFE32A8469E1832508
:1023300089034E85EFE0AFDA2A8455E98324C90387
:1023400003C7040045C783C7B40093F6F70323030C
:10235000D9001306500EE301C7FCA18B95CBBD47F6
:10236000E39CF6FA8347B90493F70704DDFB937700
:10237000070491CB83CAD4001377F70B8327090393
:102380002326F9043A8A63004705130AF00F51BF68
:10239000BD47E389F6FC63170A002685EFE0EFB836
:1023A000630755058347B904858B81EB2D4693055B
:1023B00009042685EF20302F1DC9FD572326F90477
:1023C000130AF00FB9BF83C7D40063855701130AFE
:1023D000F00F81BFA68503A5C900A93609C57D1ADE
:1023E000137AFA0F3DBF130AF00F25BF114422855F
:1023F000B250225492540259F249624AD24A424B94
:10240000B24B45618280011106CE22CC26CA2A84B5
:102410002EC6044119A085073EC6B24703C7070070
:102420009306F002E309D7FE9306C005E305D7FE45
:1024300023240400232E040003C70700FD4763E0A4
:10244000E704930700F8A305F40481452285EFF023
:102450004F83F2406244D244056182801147E31AFF
:10246000E5FE918BFDF71545EDB79385C4031C5828
:1024700093F7F71FBE952685EFE0EF8D08C46C003B
:102480002285EFF00FE771F52285F9338347B40415
:1024900071F5918BDDFF83476400C18B95C703C73E
:1024A00004009147E313F7FC1C441CD01C4893F72D
:1024B00007F003477400D98F5CD07C441CD4A285FC
:1024C0002685EFE08FAC65BF154561B7411106C6A3
:1024D00022C42A849C411CC19C511CC583C745024F
:1024E000A303F500DC5193F707F01CC9232A05006C
:1024F000232E05008C556CC5EFE0BFF809C5B2402E
:102500002244410182802285FD34D5BF797106D6EF
:1025100022D426D24AD04ECEAA8483C2050083CFCD
:10252000150003CF250083CE350003CE450003C33D
:10253000550083C8650003C8750003C5850003C73F
:10254000950083C7A50023805400A380F401238154
:10255000E401A381D4012382C401A3826400238304
:102560001401A38304012384A400A384E40023852D
:10257000F400954763E5D7029D49A9A08505BD47AD
:1025800063EFB700860693771700BE960583C16791
:10259000F58FEDD7C56793871702BD8EC5B7035773
:1025A000060079DB09068145D9BF1389F9FF138736
:1025B00009010A97230CF7FE63030902BD4763F084
:1025C000B702CA8913F7F60093070703B68591820D
:1025D00013069003E37BF6FC93077703F9B7130721
:1025E000E007930709018A97238CE7FE014411A0B5
:1025F0000504637E2403B387840003C507009307A3
:1026000000026306F502EFD05FD47DD19387E9FF26
:10261000638F87000504E9BF1307000293071400C6
:1026200026942300E4001D47636DF7003E849D4718
:10263000E3E427FF930709018A9703C787FF05098A
:10264000F1BFB250225492540259F249456182803E
:10265000011106CE22CC26CA4AC84EC6AA841C4105
:1026600003A907014A85EFE08F8EAA85130529008B
:10267000EFD0DFC7834919008509EC442685EFE0D8
:102680005FE02A8401A81309090281452685EFF03D
:102690002FAD2A8405E48C5C8840EFE04FA42A84A7
:1026A00011ED13060002CA85C85CEF20F0049C40BF
:1026B00005472382E700FD19E39709FC2285894736
:1026C00063F387000945F2406244D2444249B2496B
:1026D00005618280197186DEA2DCA6DACAD8CED660
:1026E000D2D4032A05008346B50493F7060A6399FA
:1026F000072A2A89814411A085048327CA001397D9
:102700001400BA9783D70700E5FB03470A009147F7
:10271000630CF708834F0904034F1904834E2904FF
:10272000034E3904034349048348590403486904A8
:102730000345790483458904034699040347A904A2
:102740008347B904230AF105A30AE105230BD10548
:10275000A30BC105230C6104A30C1105230D010576
:10276000A30DA104230EB104A30EC104230FE104A1
:10277000A30FF104858A638D061093070004A30557
:10278000F90485499307300663E9370FCE8603269F
:10279000CA00CC0813050904953B4A85EFF0DFAB6E
:1027A0002A8461ED8509F9BFB904BD47B3D4F402A9
:1027B000938524004A85EFF06FAB2A846313051ECE
:1027C00003270903938714009607B307F7402326CE
:1027D000F9048347790013F747000DC7ED9BA30366
:1027E000F9004A85EFE03FA919C12A845DAA7D5608
:1027F000832549034A85EFE0BFA3631D051A83279C
:10280000890081EB8325CA0003250A01EFF0CFE59B
:1028100049AACA850A855D39AA8719C13E8451A291
:1028200083270901032749018355AA00A605BE9500
:10283000B3B7F5003386E7002328B900232AC9007F
:1028400003250A0113058503EFD0DFAC03250A0138
:10285000832509010326490113058502EFD09FABAB
:102860008347790003270A0193E71700A300F702C3
:102870000A85F93BAA8759D555B793074006638D5A
:10288000F9129147631FF4108347F105A305F9047A
:102890008347F105898BC5CBB104B547B3D4F402A6
:1028A0008504A6854A85EFF06F9C2A84631B050E7C
:1028B000FD14C1EC6317040E832589035285EFE0F4
:1028C0000F822A8479ED1306000281450325C9038E
:1028D000EFD05F888327C903034F0904834E19048F
:1028E000034E290403433904834849040348590427
:1028F00003456904834579040346890483469904A2
:102900000347A9042380E701A380D7012381C701DE
:10291000A381670023821701A38207012383A700F5
:10292000A383B7002384C700A384D7002385E700CF
:102930008347B9040327C903E18B2306F7008547C2
:102940002302FA00B9A88544A9BF832509039397F8
:1029500054009D8D4A85EFE0DFB22A8439E11305EA
:102960000904EFD09FDCAA89832589035285EFD023
:102970001FF72A8421F1CE8613F6F40F8325C903AD
:102980000325CA00EFD03FD085472302FA008145D6
:102990004A85EFE0FFFC2A8411FDFD14F1F419BF14
:1029A00019442285F6506654D6544659B659265ACB
:1029B000096182802A84F5B71D44E5B7411106C636
:1029C00022C426C24AC0AA84EFD03FEB2A8411ED6C
:1029D00003C704008D476301F7020146814503C523
:1029E0001400EFD03F8811C105442285B240224433
:1029F000924402494101828003C754008547E31E87
:102A0000F7FC1389C4031306002081454A85EFD0E3
:102A10006FF4AD65938555A51385A423EFD01F8D65
:102A2000B7556141938525254A85EFD0FF8CB77551
:102A300041619385252713850422EFD0FF8B8C4CB1
:102A400013854422EFD05F8BCC4813858422EFD0CE
:102A5000BF8AD050050690DC8546CA8503C51400A0
:102A6000EFD04FFDA38204008DBF011106CE22CC12
:102A700026CA4AC84EC652C456C25AC0832A050046
:102A8000238D05001C5D638F07262A8AAE8903C744
:102A90000A009147630AF7067845FD576304F71467
:102AA00001490144814409A293170A019385040155
:102AB000CE951306F00F058EA9055D8DEFD07F969C
:102AC00025C1AA94014A03A50A018347350263740C
:102AD000F9049307F02563EF87029377F40191E3FC
:102AE00009042295EFD0AFF809040509E31E0AFA9C
:102AF0008D6793870780AA97C207C1831307F07F6A
:102B0000E364F7FA2A8AC1B70149014A81441304F0
:102B1000000455BF814463170A0091C4A68719A811
:102B2000AA84D5BF814493871400CE941307F00381
:102B3000238DE400CE97238D0700A386090083A789
:102B40000A0183C7470013F777032386E900C18B87
:102B500081EB03A50A0113058503EFD00FF419A03B
:102B60000145814523A0A90023A2B90003A50A01BC
:102B70003105EFD0CFEF2395A90003A50A01390550
:102B8000EFD0EFEE2394A900B5AA13150901930520
:102B90000401CE951306F00F018EA905598DEFD0D3
:102BA0005F8815C92A94014983A7CA0013971400A6
:102BB000BA9703D707000DC38504E31809FC8D6796
:102BC00093870780BA97C207C1839306F07FE3EE2D
:102BD000F6FA3A89D1BF2A846303090001444E946E
:102BE000230D04000149814489A01304500EB9A8A3
:102BF000AD4763E02707B38729011307E002A386E7
:102C0000E7000509B9A0930520362285EF00701C66
:102C100041C1B3852901314633062641B505EFD0C0
:102C20005F80630B050E2A99D684A94763E3970654
:102C30008327CA03938A1400A69703C40700930747
:102C400000026305F4049547E301F4FAA547E38124
:102C5000FAFA1375F40FEFD04FEF55D5A147E3847F
:102C6000FAFAAD47E381FAFA8327CA03D69703CB72
:102C700007005A85EFD0AFED59D52204938A24007E
:102C8000336B8B0013140B014180B5BFD68471BF29
:102C90000149B3872901A386070083C7A90185E7F6
:102CA0006311090C930619004E999307F003230D45
:102CB000F900CE96238D06008327CA0383C7C70079
:102CC00099E3A38609008327CA0383C7B70093F754
:102CD000F7032386F9000325CA037105EFD00FDA45
:102CE00023A0A90023A209000325CA035905EFD098
:102CF0000FD82395A9000325CA036105EFD02FD76C
:102D00002394A900F2406244D2444249B249224A83
:102D1000924A024B056182802A89A5BF41480DA0D5
:102D2000B387D900238DB70005068506B387C90090
:102D300083C7D700BDDFBE851307E002E380E7FE4F
:102D40001387F7FB420741836545E36BE5FC0327E7
:102D5000CA030347C7003377070179D39385070276
:102D6000C1B7214881460146D1B7797106D622D430
:102D70002AC62EC432842ECE6808EFD0DFA4634169
:102D80000506931725003707000213074700BA9777
:102D9000944381CE9317250037070002130747009D
:102DA000BA9723A0070023800600B24791CFA380E3
:102DB000A700B247238007000A05B70700029387E0
:102DC00047003E95B2471CC111E40145B250225460
:102DD0004561828001466C002800EFD03FCEFDB7F0
:102DE0002D45EDB7757106C722C526C34AC1CEDE93
:102DF000D2DCD6DA2EC66307052CAA89B2841379F1
:102E0000F6034A866C086800EFD05FCB2A8409CDB0
:102E100023A009002285BA402A449A440A49F65957
:102E2000665AD65A49618280F2473ED0B2450810B0
:102E3000EFF06FDD2A8409E58307B10663CF070849
:102E400093F7C4016381071245C091476309F408F1
:102E50001369890055FC93778900638507127245D1
:102E60000347050091476309F708B70521547645E4
:102E70003905EFD06FC8B705215476455905EFD015
:102E8000AFC7724AF64AD6855285EFD0CFECAA84F6
:102E900093070002A385FA000146F6455285EFD05C
:102EA0000FEF814576457105EFD00FC5F247054715
:102EB0002382E700E1C803AA87030146A68508101C
:102EC000EFE0DF8B2A8429F5D2857245EFD03FA150
:102ED0002A84FD14F247C4CB75A0194495B7081095
:102EE000EFF04FFF2A84ADB783476102C58BD1EB6A
:102EF0009188ADD0214429BF23A0A900CE85EFD071
:102F0000DF8872440848794681450905EFD08FA4CF
:102F100008486946814513056502EFD0AFA31C48F8
:102F2000130700022382E7000848B7052154210552
:102F3000EFD08FBCF2479C4B0547A380E7020810F7
:102F4000EFF00FF12A84E31505EC83A589009DC9F4
:102F500001464E85EFE09F822A8483A78900FD17F2
:102F600072475CCB05A0E31504EA8347610213F7BF
:102F7000070163150714898891C4858B81C71D4497
:102F800041BD1D44E31604E89377890099C3136992
:102F9000090472451C5D23A4F904F64523A6B9046F
:102FA000034705009147630DF706EFD0CFDA23A45E
:102FB000A90076457105EFD06FAC23A8A90023AA1C
:102FC0000900F24A23A0590183D76A002392F9002D
:102FD00023882903A388090223A209048147014801
:102FE00023ACF90223AE0903138A09051306002056
:102FF00081455285EFD00F96137609024DCE83A4FA
:10300000090103A94901B3E72401D5C723AC9902FB
:1030100023AE290383DAAA00A60A83A589001DA886
:10302000A25723A0F902C25793F707F00347710292
:10303000D98F23A2F902B65723A4F902CE85EFD087
:10304000CFF441B70944B387544133B7F400BE8489
:103050003309E94005E40147630E09004E85EFE0BE
:10306000EFA5AA858547E3FFA7FCFD57E31DF5FC07
:103070000544D1BF6314E900E3E29AFE23A0B9043A
:10308000E31804D893F7F41F9DC7F24A5685EFD092
:10309000AFCA19E10944ADBB5E09A580B3649900CC
:1030A0003386A40023A2C9048546D28503C51A002D
:1030B000EFD04F9511E5E30F04D499BB114489BBC0
:1030C0000544B9B32544B9B3397106DE22DC26DAEA
:1030D0004AD84ED652D456D25AD05ECEAA84AE89A1
:1030E0003289368A23A006006C00EFD08FF3631874
:1030F000051603C514036314051683C70403858BE3
:103100006385071A9848D4489C5CD05CB307F740A5
:103110003337F700918E6393E60C63F1270D3E89F8
:1031200075A8AC402685EFE06F99C5A08947A388B4
:10313000F40209452DA28547A388F402054505A29E
:103140008947A388F402094519AA8387040363C445
:1031500007002604A5A0FC40B3875741E3FB87FE88
:10316000A60713060020938504053385F900EF10A8
:10317000B058C5B7F040630156038387040363CB9F
:10318000070E8546568693850405B24703C517008A
:10319000EFD04F876314051023A254059C5C93F76E
:1031A000F71F130400201D8C637389004A849385E4
:1031B00004052286BE954E85EF10105433098940D0
:1031C00083270A00A2972320FA00A2999C5CD85C6E
:1031D000A29733B487003A949CDCC0DC6305090CE9
:1031E0009C5CD05C13F7F71F55FB1317760193D641
:1031F0009700D98E32470357A7007D1733FBE600AF
:10320000631C0B00D18F91FF88448547E3F0A7F240
:10321000FD57E302F5F2A8C0B24BAC405E85EFD09B
:10322000AFB119DDB30AAB00135499009307F01F37
:10323000E3F227F5B3078B0003D7AB006374F70005
:1032400033046741A2865686CE8503C51B00EFC0B6
:103250007FFBE30C05EE8547A388F4020545F25099
:103260006254D2544259B259225A925A025BF24BDA
:103270002161828085469385040503C51B00EFC04C
:103280007FFB01E983C7040393F7F7072388F40260
:10329000CDBD8547A388F4020545D1B78547A388EE
:1032A000F40205456DBF4A855DBF1D454DBF59718F
:1032B00086D6A2D4A6D22A84EC08EFD08FD60DE50C
:1032C0008347040313F7070405C3E207E18763C2DA
:1032D00007027645034705009147630EF7022C4429
:1032E000EFD0EFDF630B050CB650265496546561A2
:1032F00082808546704093050405F64703C5170094
:10330000EFC05FF3631405108347040393F7F707D7
:103310002308F4027DBF2285EFD0FFF571F57D56BD
:103320002C402285EFD0DFF061F1A2852800EFF07C
:10333000EF995DF9F647944B03C746001367070200
:103340002382E60003477400944B13671700A380A1
:10335000E602884B0C4413054503EFC0FFF9F6471E
:10336000884B0C48504813058503EFC0BFFAF64759
:10337000884B0C48504813058502EFC0BFF9F6474B
:10338000884BB70521543105EFC01FF7F647984B1E
:10339000A30A0700884B81454105EFC0FFF52800CF
:1033A000EFF00FAB31F17645EFF04FE183470403C7
:1033B00093F7F7FB2308F40205BF644483C7B40006
:1033C00093E70702A385F4001044A6850840EFD0D8
:1033D0000F9C0C481385C401EFC01FF2B7052154A0
:1033E00013856401EFC05FF1814513852401EFC0AF
:1033F000FFEF764585472302F500EFF02FDC83478A
:10340000040393F7F7FB2308F402F9BD0545E9BD72
:10341000011106CE22CC2A84593D09C5F2406244EE
:10342000056182806C002285EFD0AFBF65F9232053
:103430000400EDB7797106D622D42EC641C92A847C
:1034400001466C086800EFD06FE719C5232004001F
:10345000B250225445618280F2471CC0B245228599
:10346000EFE07FFA05ED8307B40463C007028347EA
:103470006400C18BA1CB72450347050091476304EB
:10348000F7024C5CEFD02F8D08C4F24783D767005A
:103490002312F40081452285EFD0BFFE91476305DA
:1034A000F5025DD565B71C441CD01C4893F707F0A6
:1034B00003477400D98F5CD07C441CD4A285EFD024
:1034C000CFACE1B71545D9BF154549B7254549B733
:1034D000011106CE22CC26CA4AC8AA842E896C00C5
:1034E000EFD02FB42A840DED6307090281452685AC
:1034F000EFE0DFC391476303F50015E9CA85268530
:10350000EFF0AFD681452685EFE08FC5914763097F
:10351000F5002A8431A081452685EFD09FF62A84C4
:103520002285F2406244D2444249056182802A8465
:10353000C5BF597186D6A2D4A6D22AC6AE8401468A
:103540000C086800EFD08FD72A8419C52285B650A1
:103550002654965465618280B2450808EFE0BFEAC0
:103560002A846DF58307B10563C80700E5D0A685F9
:103570000808EFF08FCFD9BF1944C9BF9307F007F0
:1035800063E5A700420541818280C1676371F5044C
:1035900093072036638BF502014582808507C207B9
:1035A000C1831307F007636DF70093961700375731
:1035B00000801307C725369703570700E310A7FEBF
:1035C0009387070813F5F70F82808147D9BF01451C
:1035D00082809307F00763FBA7029307203663847A
:1035E000F500014582809307F00F63E0A702B7075B
:1035F000008093C707F83E950605B757008093876C
:10360000C725AA9703D50700828001458280C1673C
:103610006372F5089318050193D80801856763F96B
:10362000F800B75700809387C7259387C71B09A861
:10363000B75700809387C7259387071011A0C287CB
:1036400003D7070039C763E6E8041388470083D728
:10365000270093D6870093F7F70F131605014182D1
:10366000B385E7006346B600F9FA8607C297C9BF7B
:10367000A14763E0D7028A06B75700809387872364
:10368000BE969C428287B307E64086073E988358E1
:10369000080046858280B387E840858BB388F84070
:1036A000C20893D80801F5B7C118C20893D8080119
:1036B000CDB78118C20893D80801E1BF938808FDEF
:1036C000C20893D80801F1B79918C20893D8080125
:1036D000C9B7A108C20893D8080165BF938808FB41
:1036E000C20893D8080175B7F9779387073ABE984F
:1036F000C20893D8080171BF370705009D6791077D
:103700005CCFB717050003A7C7C0B706FDFFFD16BE
:10371000758FC166558F23A6E7C003A7C7C0B7063C
:10372000F4FFFD16758FB7060400558F23A6E7C07A
:10373000B74708001307001023A6E740130700202F
:1037400023A4E740B72608008567938757D023A6B0
:10375000F6809307D00623A0F680FD5723AEF680AF
:103760008280411106C622C426C237550080130547
:103770004569EF00906AB75400801385847AEF00A2
:10378000D06937040002130404474C5037550080B9
:103790001305456CEF0070680C5437550080130515
:1037A000056EEF0090678355A40037550080130520
:1037B000856FEF0090664C48375500801305C57043
:1037C000EF00B0654C543755008013054572EF008B
:1037D000D0640C503755008013058574EF00F063FA
:1037E0000C4C375500801305C575EF001063375535
:1037F000008013058577EF0050621385847AEF000F
:10380000D061B2402244924441018280411106C6F7
:1038100037050002930785003707490098C32382C4
:1038200007002393070013058500EF10805BB2406B
:10383000410182800171232E111E232C811E232A17
:10384000911E2A84AA850813EFF0DFBEAA8419ED21
:10385000375500801305457CEF00305C37550080FC
:103860001305857AEF00705BB5E899A8AA853755EE
:1038700000801305C57AEF00505AD9BF9305A10106
:103880000812EF10F00A8A850812EFF09FCA0C1296
:10389000375500801305457FEF003058A285081288
:1038A000EF1010090C123765008013050580EF003A
:1038B000D0568245376500801305C580EF00F0556E
:1038C0008A850813EFF0DFC001E58347A101DDF72A
:1038D0003765008013050582EF0030548320C11F37
:1038E0000324811F8324411F1301012082801301BF
:1038F0000194232E116A232C816A232A916A37644A
:103900000080930544853765008013050586EF0028
:10391000D05005469305448513050146EFF08FCC42
:1039200029E93765008013050589EF00104F03274B
:1039300081490326C1498327014783264147630202
:10394000F706F40C1306F01F8C1413050146EFF074
:10395000AFF705E98327C1259387076B8A972388EB
:1039600007BA8C14376500801305C58CEF00F04A48
:103970007DBFAA853765008013054587EF00F049B4
:103980004DB7AA85376500801305058BEF00F04819
:103990008320C16B0324816B8324416B1301016C71
:1039A0008280E310D6FA376500801305058DEF009D
:1039B000D04613050146EFF0BFA539ED376500800D
:1039C0001305858FEF0070450546B7640080938529
:1039D00004912800EFF00FC12A842A869385049170
:1039E000376500801305C591EF00304315CC228662
:1039F000B765008093850591376500801305859331
:103A0000EF00B041856593858538370500021305C1
:103A10008500EF106047E1BFAA8537650080130578
:103A2000858DEF00903F59BF3765008013050596DF
:103A3000EF00B03E39A88327C1259387076B8A978B
:103A4000238807BA8C14376500801305C58CEF00F6
:103A5000D03C06471646E247F2466302F702F40CF2
:103A60001306F01F8C142800EFF00FE669D5AA8525
:103A7000376500801305058BEF00303A6DBFE3100A
:103A8000D6FE376500801305058DEF00103928003C
:103A9000EFF01F98AA853765008013058597EF0022
:103AA000D037FDB5397106DE02C802CA02CC02CE9B
:103AB00002D002D202D402D6BD472308F1008947C2
:103AC000230AF1003ECE930700F8A301F10223027E
:103AD000F1020C080A85EF001063F2502161828028
:103AE000411106C622C437050002130505473707F2
:103AF000000213078700B946373608001306064050
:103B00009305C523130545267D2C2A8405E1B76559
:103B10000080938505993765008013058599EF002E
:103B2000D02F2285B240224441018280B7650080B7
:103B30009385C598CDB7411106C6AD37EFF01FCDBF
:103B4000EFF09FBB713F376500801305859AEF004A
:103B5000D02C0146B76500809385059B3705000290
:103B600013050547EFF06FA01DE9376500801305C9
:103B7000459DEF00902A376500801305859EEFF084
:103B80007FCBEFF01FBE376500801305C59EEF00A9
:103B9000D028EFF0DFD50145B24041018280AA85EF
:103BA000376500801305459BEF0030277D55EDB745
:103BB000411106C622C4AA853724080013050480D3
:103BC000EF00C07A13050480EF00E078B240224491
:103BD00041018280411106C60CC190C11841854740
:103BE0005CC318412305F7001841A305F7001841ED
:103BF0001146A306C70018411D462304C7001841FB
:103C0000230607001841A304F7001C412387D700AF
:103C10000841EF00107E01E5B24041018280376526
:103C200000801305C59FEF00501F13053008EDB746
:103C3000797106D622D426D24AD04ECE52CC56CA5C
:103C40002A89AE89328AB68ABA84FD57A307F10061
:103C5000014437470F00130707248546268693053E
:103C6000F10003250900EF1000070504420441801C
:103C700089679387077163E2871403C7040093077A
:103C8000F00FE318F7FCA307310137440F001307C7
:103C90000424854626869305F10003250900EF10CC
:103CA000800393578A01A307F10013070424854674
:103CB00026869305F10003250900EF10C0019357F4
:103CC0000A01A307F10013070424854626869305FD
:103CD000F10003250900EF10000093578A00A307A5
:103CE000F10013070424854626869305F100032579
:103CF0000900EF00507EA307410113070424854605
:103D000026869305F10003250900EF00D07CA30768
:103D1000510113070424854626869305F1000325E7
:103D20000900EF00507BFD57A307F100014437471E
:103D30000F0013070724854626869305F100032507
:103D40000900EF0050790504420441808967938798
:103D5000077163E7870603C704009307F00FE308C2
:103D6000F7FC930780046386F9049307A007638434
:103D7000F904014535A01384170037470F001307D6
:103D800007248546338684009305F1000325090046
:103D9000EF0070749377F40F0D47E37EF7FC014555
:103DA000B250225492540259F249624AD24A4561B1
:103DB00082808147D5B78147C5B713053008CDB795
:103DC00013053008F1BF011106CE22CC26CA4AC81D
:103DD000AA843A8901352A8401C92285F2406244C5
:103DE000D244424905618280B70710009CC48840D4
:103DF000EF00106D9305800C4A85EF10E008FD5729
:103E0000A307F10005A037470F00130707248546D5
:103E10001306E1009305F1008840EF00D06B050424
:103E20001374F40FA547E3F087FE930520034A853A
:103E3000EF10800502C423060100B9458840EF0059
:103E4000B0663800930650090146930500042685A4
:103E5000C5332A8459F18840EF009066B9458840FF
:103E6000EF0090643800930670081306A01A9305BB
:103E700080042685EFF0DFDB2A8425F103498100E9
:103E800013794900631109060347C1009307A00A8B
:103E90006319F71A38009306F00F01469305A0073F
:103EA0002685EFF0FFD82A840DF983479100E207B9
:103EB0000347A1004207D98F0347B1002207D98FDA
:103EC0000347C100D98F9844F98F6396071A884039
:103ED000EF00105F37650080130545A2EF00E07327
:103EE00013040008DDBD38009306F00F014693056A
:103EF000A0072685EFF0DFD32A84E31005EE834781
:103F00009100E2070347A1004207D98F0347B100A0
:103F10002207D98F0347C100D98F9844F98FC1CFA9
:103F20000349810013794900631D0908380093068D
:103F3000F00F0146930570072685EFF07FCF2A84A6
:103F4000E31D05E838009306F00F3706004093059F
:103F500090062685EFF0DFCD2A84E31005E883473D
:103F60008100918BC1E71309800C83478100858B09
:103F7000F9C338009306F00F0146930570072685B4
:103F8000EFF01FCB6312051838009306F00F3706C9
:103F90000040930590062685EFF09FC9631805162B
:103FA0007D191379F90FE31209FC8840EF00505195
:103FB000130420081DB58840EF009050130400083A
:103FC00029BD8840EF00D04F1304100839B537479A
:103FD0000F001307072485461306E1009305F1003F
:103FE0008840EF00504F05091379F90FA547E3F01A
:103FF00027FF1309800C83478100858B9DC73800FC
:104000009306F00F0146930510042685EFF05FC27A
:10401000631A050E7D191379F90FE31E09FC884018
:10402000EF00104A130420084DBB8D47DCC08840C8
:10403000EF0010495DB323A204008840EF00504810
:1040400069BB8840EF00D047376500801305C5A0E5
:10405000E9231304300851B337470F00130707242F
:1040600085461306E1009305F1008840EF00B04655
:1040700005091379F90FA547E3F027FF1309800C11
:1040800083478100858BA9C738009306F00F01464E
:10409000930570072685EFF0BFB92A84E31F05D288
:1040A00038009306F00F37060040930590062685EA
:1040B000EFF01FB82A84E31205D27D191379F90FA6
:1040C000E31009FC8840EF00B03F1304200831B32F
:1040D00038009306F00F01469305A0072685EFF000
:1040E0003FB52A84E31B05CE8347910093F707046D
:1040F00099E78547DCC08840EF00903CF9B98947D3
:10410000DCC0D5BF2A84D1B92A84C1B92A84F1B1CF
:10411000797106D622D426D24AD04ECEAA842E84D5
:104120003289FD572307F100B9450841EF00D03728
:104130001307F1009306F00F2286930510052685DC
:10414000EFF01FAFAA8945E58347F100A9E30144D9
:104150008347F1001307E00F6383E70A1307C00FDB
:104160006389E70237470F001307072485461306C4
:10417000F1009305E1008840EF00F03589679387EF
:10418000F77063E08708050442044180D1B7BE8917
:10419000B9A8014405A037470F0013070724854637
:1041A000330689009305E1008840EF00D032050412
:1041B000420441809307F01FE3FF87FC37440F0060
:1041C0001307042485461306F1009305E100884097
:1041D000EF0070301307042485461306F1009305A1
:1041E000E1008840EF00302F8840EF00702D4E85B1
:1041F000B250225492540259F249456182800144DE
:1042000055BF93092008E5B7411106C62E86AA8539
:10421000370500021305456DE53DB240410182803E
:10422000797106D622D426D24AD04ECEAA842E84C4
:104230003289FD572307F100B9450841EF00D02628
:104240001307F1009306F00F22869305800526855B
:10425000EFF01F9EAA8909E58347F10091CBBE8943
:104260004E85B250225492540259F24945618280DF
:1042700037440F001307042485461306F100930505
:10428000E1008840EF003025F9572307F1001307BC
:10429000042485461306F1009305E1008840EF00F1
:1042A0009023014405A037470F00130707248546D4
:1042B0001306F100B30589008840EF00D021050402
:1042C000420441809307F01FE3FF87FCFD5723075B
:1042D000F10037440F001307042485461306F1004C
:1042E0009305E1008840EF00101F13070424854662
:1042F0001306F1009305E1008840EF00D01D13077D
:10430000042485461306F1009305E1008840EF0080
:10431000901C1307042485461306F1009305E10061
:104320008840EF00501B8840EF00901915BF4111E5
:1043300006C62E86AA85370500021305456DCD35C4
:10434000B240410182805C4D93F7070499E3014537
:10435000828005458280411106C622C42A842285B6
:10436000DD3775DDB2402244410182800CD5828068
:10437000411106C622C42A8421A00504EFF05F8300
:10438000034504007DF9B2402244410182805D7101
:1043900086C6A2C4A6C2CAC04EDE52DC56DA5AD8BD
:1043A0002A8A2EC6E5A2EFF0BF80228AC5A2130793
:1043B0003A0003451400054901A413073A000345D8
:1043C00014000949D5AAB3093041094911A49397AA
:1043D0002900CE978607AA97938907FD0345070012
:1043E0000507930705FD93F7F70FA546E3F1F6FEE2
:1043F0003A8ADDA28149F5B72A869307E6FB93F650
:10440000F70F5947636ED7089397260037570080F8
:104410001307C760BA979C438287B2471387470048
:104420003AC683AA0700014411A00504B3878A0095
:1044300083C70700FDFB31A013050002EFF04FF723
:1044400026849377290091E793041400E36634FFF0
:1044500026845685313F31A013050002EFF04FF559
:10446000268493041400E36934FF0DA2B247138736
:1044700047003AC603C50700EFF08FF301AAA9462B
:10448000937749008DC7B247138747003AC69843D0
:1044900093074004630CF6020146ADA0C146CDB7B8
:1044A000EFF00FF1E5A08946E1BFA146D1BF930728
:1044B00040046308F600B247138747003AC69843A2
:1044C000E1BFB247138747003AC69843E35607FC5B
:1044D0003307E04013690901C1B713087002C2979E
:1044E00093F7F70F1304160093870703930406034B
:1044F000338824002300F8FE63E4D502FD4763E11E
:1045000087022286B377D702BA853357D702254868
:10451000E37AF8FC13088007E30105FD1D48C1B7E5
:104520009377090199CB93070403338427009307FA
:10453000D0022300F4FE130426009377190089C7E4
:10454000130B0003A28401A8130B0002E5BF5A85D8
:10455000EFF00FE6D6849377290091E7938A140051
:10456000E3E734FFD6847D14930704038A9703C5D9
:1045700007FEEFF0EFE365F831A013050002EFF05E
:104580002FE3A28413841400E3E934FF13041A0018
:1045900003450A002DC993075002E316F5E01307FF
:1045A0002A000345040093070003E302F5E09307A4
:1045B000D002E304F5E001499307A002E31CF5E211
:1045C000B2479386470036C683A90700E3CD09DECC
:1045D000130A1700034507009307C0066306F5009A
:1045E0009307C0046317F5001369490003450A00E7
:1045F000050A11C993070006E3F0A7E0130605FEBC
:104600001376F60FDDBBB640264496440649F259B0
:10461000625AD25A425B61618280397106CE2ED2D3
:1046200032D436D63AD83EDA42DC46DE4C102EC6BC
:10463000EFF0FFD5F240216182809C4137070040B6
:104640007D17F98F9CC1B747080093870740630A1D
:10465000F508B757080093870780630DF508B7473B
:1046600008006303F50A05458280114863090607BF
:1046700014C583260E00FD8ED04533161601D18E4B
:104680002320DE0083A60E00F58F9445B396160115
:10469000D58F23A0FE0005079C41B3D6E740B5CED9
:1046A0008546B396E600F58FFDD7032603009318E1
:1046B00017008D47B397170193C7F7FF7D8E03A8A7
:1046C000450013783800331818013366060123209B
:1046D000C300D0411148E30A06F941FE79B754C539
:1046E00049BF37130500930E43C1130E03C11303D3
:1046F000C3C009A837130500930E03C2130EC3C12C
:10470000130383C1014749BF37130500930E83C0CC
:10471000130E43C0130303C0F5B7014582808547DC
:104720006301F50289476302F50219C105458280DC
:10473000B7060600DC4A7D771307F73FF98FDCCA1E
:10474000828085669386068019A093060040014703
:10475000B70705009C5FE98F91EB0507B7A7070036
:104760009387F711E3F6E7FE0D4582804111370686
:1047700006005C4A7D771307F73FF98FD58F5CCA37
:1047800002C621A0B24785073EC6324793073006CE
:10479000E3DAE7FE01454101828091476308F504B1
:1047A00063EEA70285476306F50489476316F502A1
:1047B000A14601450147B70705009C5FF58F85EFCE
:1047C0000507B7A707009387F711E3F6E7FEB707DA
:1047D0000500C8D30D45828005458280A147631539
:1047E000F50089460945F9B70545828085460D459E
:1047F000D1B79146C1B741118A05C98DB7070500E8
:10480000CCD302C621A0B24785073EC632479307E4
:104810003006E3DAE7FE0145410182808547630106
:10482000F50289476301F50219C105458280B70683
:1048300006009C4A7D771307F73FF98F9CCA828058
:104840001306004021A00566130606800147B7073E
:1048500005009C5FE98F91EB0507B7A707009387D9
:10486000F711E3F6E7FE0D45828041113707060098
:104870001C4BFD769386F63FF58FD18F1CCB854779
:104880001CCF02C621A0B24785073EC63247930718
:104890003006E3DAE7FE01454101828011C5854714
:1048A0006306F50005458280894611A0AA86014766
:1048B000B70705009C5FF58F91EB0507B7A70700C9
:1048C0009387F711E3F6E7FE0D4582804111B707A4
:1048D0000500C8D702C632479307300663C6E70013
:1048E000B24785073EC6C5BF014541018280B70773
:1048F000050088C38280B7070500C8C38280B70758
:10490000050088C78280411106C622C426C2AA8437
:104910002E842320050023220500232405002326BE
:104920000500B7070600D84B719BD8CB984B719BFD
:1049300098CB03C735010A07D8CB03C745010A073F
:1049400098CBC845EFF0BFDD88C00C440345440058
:10495000EFF0BFE4C8C003450401513F0345140113
:10496000593F03452401613F084CEFF03FEB88C4F9
:10497000484C2D37C8C483470400858B99E7370717
:1049800006005C4B93E727005CCB83470400898BD0
:1049900099E7370706005C4B93E717005CCB83472A
:1049A0000400918B99E7370706001C4B93E727001B
:1049B0001CCB83470400A18B99E7370706001C4BEB
:1049C00093E717001CCB2685B24022449244410154
:1049D0008280011106CE22CC2A8402C002C202C407
:1049E00002C61841B7370800630DF7001840B73703
:1049F0000800938707406308F70AF24062440561A4
:104A00008280B707050013070010D8CF9D473EC02E
:104A100085473EC28A8537450800EFF01FC28347AD
:104A2000E4003547638AE7046362F7021D47638F3A
:104A3000E7042D476396E702A1673EC08A853745A4
:104A4000080013050540EFF05FBF19A839476399C7
:104A5000E700A1473EC08A8537450800EFF0FFBD5B
:104A6000A1473EC058408547630DF7028A85374508
:104A70000800EFF09FBC9DBF91673EC08A85374517
:104A8000080013050540EFF05FBBD9BF9307000492
:104A90003EC08A853755080013050580EFF0FFB941
:104AA000C1B73EC4E1B7B707050013070020D8CF50
:104AB000B70700409D073EC085473EC202C48A85B5
:104AC0003745080013050540EFF03FB78347E40082
:104AD0003547638EE704636EF7001D47638FE70475
:104AE0002D47639FE700B7070040938707043EC048
:104AF00001A839476396E700B7070040C1073EC0E9
:104B00008A853745080013050540EFF01FB3B70746
:104B10000040A1073EC0584085476306F7028A85DA
:104B20003745080013050540EFF03FB1F9B5B70769
:104B30000040938707023EC0E1B7B7070040938764
:104B400007083EC075BF3EC4D9BF14419C4E37070D
:104B500001FF7D17F98F9CCE18411C4FC205CD8FE8
:104B60001CCF828014419C4E41771307F70FF98FB9
:104B70009CCE18411C4FA205CD8F1CCF82801841BE
:104B80001C4F93F707F01CCF18411C4FCD8F1CCF43
:104B90008280A306B5001C418CD7828018415C4BF3
:104BA00093E747005CCB828018415C4B93E787001A
:104BB0005CCB8280011106CE22CC2A84230805001A
:104BC00018415C4BF99B5CCBC5372285C13F1C402B
:104BD000DC433EC6B247F240624405618280411127
:104BE00006C618415C4BF99B5CCBE937B2404101EA
:104BF00082804DC9411106C622C42A84EFF07FDDB0
:104C000022854D3F2285E13F584025CB85476319DA
:104C1000F706834784008E07034694009316E60048
:104C2000D58F8346A4008A06D58F8346B4008606B6
:104C3000D58F8346C400A606D58FD98F0547630359
:104C4000E6040347E4002A07D98F18401CC38545B2
:104C50002285EFF09FEF81452285EFF0BFF081457F
:104C60002285EFF0DFF18345D400A14763F1B7025D
:104C70000545B240224441018280A304040051BF93
:104C8000014741BF1167130707C0D98F7DBF228538
:104C9000EFF03FF0232E040023220402232A040015
:104CA0000145C1BF054582802307B500AA0514410F
:104CB0009C4271771307F73FF98FCD8F9CC282809A
:104CC000BD472307F50014419C421167130707C035
:104CD000D98F9CC282804111AA872308050010D178
:104CE00054D10CCD54CD1441054690D61041544AB0
:104CF000858A99E2854654CA0146054805A88C4331
:104D0000D441C18A91CED45381CE8C519453238007
:104D1000B6009453850694D3D453FD16D4D30548D6
:104D200093061600637BE60229CF3686CC4F99E1C5
:104D3000C8530DC588435441918AF1D2E9D1E300AB
:104D400008FC944F83C6060054CD944F850694CF3B
:104D5000D44FFD16D4CF01485DB70D45944398421A
:104D60001166718F09EBD84A799BD8CA9443D84A07
:104D70001367C700D8CA9C43DC433EC6B247410113
:104D800082800D45E1BF18411C4393E717001CC307
:104D9000828018411C43F99B1CC31C4123A40700BB
:104DA0001C4123A6070082802302B50089C58547E0
:104DB0006388F50082801C41984323A0070082800D
:104DC00018411C4393E727001CC382809307F03FE0
:104DD00063F4B7009305F03F2313B5001C41CCC327
:104DE0008280411106C622C42A841C4123A00700E8
:104DF00083454500553F835564002285C13FB2403D
:104E0000224441018280411106C6B70705009C4338
:104E100037170200130797C46373B700BA85216779
:104E2000130707D0B385E50293F7F70F8507B3D5CE
:104E3000F502835765008507B3D5F5021C4123A40D
:104E400007001C4123A607001C418CCB1C4123AA50
:104E50000700EFF05FF3B240410182801C419047B0
:104E6000D847944BDC4B630CF70063FDE70041111E
:104E700006C6EFF01FF20545B24041018280E3F61D
:104E8000C6FEF5B701458280411106C622C42A84B8
:104E90009D3F2285E13775DD2285EFF09FEFB2401F
:104EA0002244410182808D4763F3C702B367B50096
:104EB0008D8B8D4689CB9306F6FF29A871161105B7
:104EC000910563F6C60018419C41E309F7FE93067D
:104ED000F6FF0DC28506AE9619A0638DD5008347F7
:104EE000050003C7050005058505E388E7FE338552
:104EF000E740828001458280B347B5008D8BB308BF
:104F0000C500B1E78D4763F4C704937735002A875E
:104F1000B9EB13F6C8FFB306E6409307000263C877
:104F2000D706AE86BA876371C70203A80600910749
:104F3000910623AE07FFE3EAC7FE9307F6FF998FBA
:104F4000F19B91073E97BE956366170182802A8781
:104F5000637E150383C7050005078505A30FF7FECC
:104F6000E39AE8FE828083C6050005079377370041
:104F7000A30FD7FE8505D1DF83C60500050793770C
:104F80003700A30FD7FE8505F9FF61B78280411175
:104F900022C61304000283A3050083A2450083AF49
:104FA000850003AFC50083AE050103AE450103A331
:104FB000850103A8C501945113074702B307E640D2
:104FC000232E77FC232057FE2322F7FF2324E7FF1D
:104FD0002326D7FF2328C7FF232A67FE232C07FF9A
:104FE000232ED7FE93854502E347F4FAAE86BA87AF
:104FF0006371C70203A806009107910623AE07FF5D
:10500000E3EAC7FE9307F6FF998FF19B91073E975E
:10501000BE956365170132444101828083C7050054
:1050200005078505A30FF7FEE387E8FE83C70500A4
:1050300005078505A30FF7FEE392E8FEE9BF93F6A7
:10504000F50F93773500C1CE91CB83470500D1C7CB
:105050006386D708050593773500E5FB93F5F50FD3
:1050600093978500AE971841139307013363F300BC
:105070003708FFFE3346E3001308F8EFB3070701D4
:10508000B30506011347F7FF1346F6FFF98FB788FC
:10509000808033F7C500D98F93880808B3F71701CC
:1050A00085E75841110533466700B3070701B3058B
:1050B00006011347F7FF1346F6FFF98F33F7C500D4
:1050C000D98FB3F71701F1DF8347050099C76380D4
:1050D000F606834715000505FDFB0145828081CB5F
:1050E00083470500E5DF050593773500F5FB18419B
:1050F0003706FFFE1306F6EF9347F7FFB78680806B
:105100003297F98F93860608F58F91EB5841110578
:10511000B307C7001347F7FFF98FF58FE5DB834728
:105120000500CDDF834715000505EDFF82808280F5
:10513000B367B5008D8BB1EF9841B7867F7F9386BB
:10514000F6F7B377D700B697D98FD58F7D56639B87
:10515000C7042A867D5818C2D84191051106B37735
:10516000D700B697D98FD58FE38707FF83C7050090
:1051700003C7150083C625002300F60099C7A300C6
:10518000E60001C72301D60091E28280A301060058
:105190008280AA8703C7050085078505A38FE7FEE0
:1051A00075FB82802A86D9B701030507090E101204
:1051B0001416181C1E000000808182838485868757
:1051C00088898A8B8C8D8E8F9091929394959697E7
:1051D00098999A9B9C9D9E9F8081828384858687D7
:1051E00088898A8B8C8D8E8FB0B1B2B3B4B5B6B7C7
:1051F000B8B9BABBBCBDBEBFC0C1C2C3C4C5C6C7B7
:10520000C8C9CACBCCCDCECFD0D1D2D3D4D5D6D7A6
:10521000D8D9DADBDCDDDEDF909192939495969716
:1052200098999A9B9C9D9E9FF0F0F2F2F4F4F6F60A
:10523000F8F9FAFBFCFDFEFF86360080963600800A
:10524000A8360080B2360080BC360080C8360080A8
:10525000D2360080DC360080E8360080100411046D
:105260001204130414041504160417041804190472
:105270001A041B041C041D041E041F042004210422
:1052800022042304240425042604270428042904D2
:105290002A042B042C042D042E042F043004310482
:1052A0003204330434043504360437043804390432
:1052B0003A043B043C043D043E043F0491259225FE
:1052C000932502252425612562255625552563252C
:1052D000512557255D255C255B2510251425342592
:1052E0002C251C2500253C255E255F255A255425A7
:1052F00069256625602550256C2567256825642568
:10530000652559255825522553256B256A251825CD
:105310000C25882584258C25902580254004410472
:105320004204430444044504460447044804490431
:105330004A044B044C044D044E044F040104510430
:1053400004045404070457040E045E04B000192238
:10535000B7001A221621A400A025A0007D1D01007F
:10536000632C001E9601A01E5A01001F0806101F84
:105370000606201F0806301F0806401F0606511F9C
:105380000700591F521F5B1F541F5D1F561F5F1FD1
:10539000601F0806701F0E00BA1FBB1FC81FC91F61
:1053A000CA1FCB1FDA1FDB1FF81FF91FEA1FEB1FF5
:1053B000FA1FFB1F801F0806901F0806A01F080683
:1053C000B01F0400B81FB91FB21FBC1FCC1F0100C3
:1053D000C31FD01F0206E01F0206E51F0100EC1FDD
:1053E000F31F0100FC1F4E21010032217021100229
:1053F000842101008321D0241A05302C2F04602C35
:105400000201672C0601752C0201802C6401002D1D
:10541000260841FF1A03000061001A03E000170389
:10542000F8000703FF00010078010001300132019C
:105430000601390110014A012E017901060180019E
:105440004D004302810182018201840184018601B1
:105450008701870189018A018B018B018D018E01F2
:105460008F0190019101910193019401F601960140
:105470009701980198013D029B019C019D0120022A
:105480009F01A001A001A201A201A401A401A60103
:10549000A701A701A901AA01AB01AC01AC01AE01B2
:1054A000AF01AF01B101B201B301B301B501B50163
:1054B000B701B801B801BA01BB01BC01BC01BE0112
:1054C000F701C001C101C201C301C401C501C4018A
:1054D000C701C801C701CA01CB01CA01CD01100132
:1054E000DD0101008E01DE011201F3010300F10173
:1054F000F401F401F8012801220212013A02090024
:10550000652C3B023B023D02662C3F0240024102F9
:10551000410246020A015302400081018601550200
:1055200089018A0158028F015A0290015C025D02D2
:105530005E025F02930161026202940164026502ED
:1055400066026702970196016A02622C6C026D0284
:105550006E029C01700271029D01730274029F0130
:1055600076027702780279027A027B027C02642C4E
:105570007E027F02A60181028202A90184028502C5
:1055800086028702AE014402B101B20145028D02DA
:105590008E028F0290029102B7017B030300FD038C
:1055A000FE03FF03AC0304008603880389038A0318
:1055B000B1031103C2030200A303A303C40308033E
:1055C000CC0303008C038E038F03D8031801F2036E
:1055D0000A00F903F303F403F503F603F703F703F3
:1055E000F903FA03FA03300420035004100760049F
:1055F00022018A043601C1040E01CF040100C00457
:10560000D00444016105260400000000A644008087
:105610006C4400807E440080A0440080A044008050
:10562000A0440080A0440080A0440080A0440080EA
:10563000A0440080A0440080A0440080A0440080DA
:10564000AA440080A0440080A0440080A0440080C0
:105650001A440080A04400807E440080A044008062
:10566000A04400809C440080EB769045584641540D
:10567000202020004641543332202020000000002A
:105680002A3A3C3E7C223F7F000000002B2C3B3D11
:105690005B5D00000D0A2F2F202D2D2D20202D2D9C
:1056A0002D2053797374656D205365727669636537
:1056B000496E666F202D2D2D20202D2D2D202F2F72
:1056C0000D0A0000566F6C756D6520626173652070
:1056D000736563746F723A2025750D0A000000002F
:1056E000464154206261736520736563746F723A3A
:1056F0002025750D0A000000436C757374657220D7
:1057000073697A653A2025750D0A00004C6173743F
:10571000206461746120636C75737465723A20252E
:10572000750D0A00526F6F74206469726563746F3F
:105730007279206261736520736563746F723A20B9
:1057400025750D0A000000004E756D206F6620461D
:105750004154733A2025750D0A00000053656374A7
:105760006F72732070657220636C75737465723A22
:105770002025750D0A0000000D0A2F2F202D2D2D3C
:1057800020202D2D2D20456E642053797374656D76
:105790002053657276696365496E666F202D2D2DE5
:1057A00020202D2D2D2F2F200D0A00007265732033
:1057B0003D20256420665F6F70656E6469720D0A16
:1057C000000000000D0A2F2F2D2D2D2020202D2D23
:1057D0002D2020446973706C61792044697265637F
:1057E000746F727920202D2D2D2020202D2D2D0934
:1057F0002F2F00006E616D65203D2025732C200049
:1058000070617468203D2025732C200073697A65CF
:105810003A2025752062797465730D0A0000000036
:105820000D0A2F2F2D2D2D2020202D2D2D20456EC2
:105830006420446973706C61792044697265637493
:105840006F7279202D2D2D2020202D2D2D2F2F0D05
:105850000A0000005461626C652E747874000000C8
:1058600052656164696E672066696C652025730DF9
:105870000A000000665F6F70656E28292066616906
:105880006C65642C20726573203D2025640D0A0030
:105890000D0A60602A2A2052656164696E67207370
:1058A000746172742E2E2E2E20600D0A00000000EE
:1058B000665F726561642829206661696C65642C85
:1058C00020726573203D2025640D0A0025730000B9
:1058D0000D0A6060600D0A00665F636C6F73652877
:1058E00029206661696C65642C20726573203D20F7
:1058F00025640D0A000000000A52656164696E6744
:105900002066696C65206578616D706C650D0A00B4
:1059100054657374312E747874000000257320660A
:10592000696C65206F70656E207374617475733A6D
:105930002025640D0A0000004572726F72206F63AB
:10594000637572656420776974682066696C652088
:1059500025732C207374617475732025750D0A00EE
:105960000D0A602A2A2A2A2A2A2A2A2A2A2A2A2A9E
:1059700060600D0A00000000436C6F736520737453
:10598000617475733A2025640D0A00006E6F7420EF
:10599000666F756E64000000534420636172643A60
:1059A0002025730D0A0000005265616479210D0AFB
:1059B00000000000665F6D6F756E742829206661B7
:1059C000696C65642C20726573203D2025640D0A86
:1059D00000000000665F6D6F756E74282920646F8B
:1059E0006E65210D0A0000002F0000002A2A2A20DF
:1059F0005374617274202A2A2A0D0A005350495F99
:105A0000496E69745F4572726F720A00436F6D6D03
:105A1000756E69636174696F6E206572726F720D65
:105A20000A000000496E636F727265637420766FBE
:105A30006C74616765000000000000000000000059
:040000058000000077
:00000001FF
