:0200000480007A
:100000003741000213010100B70100029381010092
:10001000B7150080938505E237160080130606E3C6
:10002000B70600029386060039A083A2050023A02C
:10003000560091059106E3EAC5FEB70500029385D7
:100040000501370600021306060821A023A00500BB
:100050009105E3EDC5FEB7000080E7804007B700DB
:100060000080E7804007B7000080E780803A730097
:100070005010F5BF8280000000000000000000006A
:100080000000000000000000000000000000000070
:100090000000000000000000000000000000000060
:1000A0000000000000000000000000000000000050
:1000B0000000000000000000000000000000000040
:1000C0006F004000197106C20AC40EC612C816CAD3
:1000D0001ACC1ECE22D026D22AD42ED632D836DA48
:1000E0003ADC3EDEC2C0C6C2CAC4CEC6D2C8D6CA78
:1000F000DACCDECEE2D0E6D2EAD4EED6F2D8F6DA28
:10010000FADCFEDE970000009380E00482909240CB
:100110002241B2414242D2426243F24302549254DB
:100120002255B2554256D2566257F2570648964863
:100130002649B649464AD64A664BF64B065C965C5B
:10014000265DB65D465ED65E665FF65F096173004A
:10015000203001A04111131715002A9702C621A0D3
:10016000B24785073EC6B247E3CCE7FE4101828035
:10017000411106C6B707000283C7170195CF37475D
:100180000800130707C0370500029307450198C30D
:1001900023A2070023A407020547D8D7D8D31547C1
:1001A00098DB3D47D8DB98DFD8DFB8C3130545019E
:1001B0002525B24041018280374708001307078098
:1001C000D9B7011106CE2306A10037470F00130748
:1001D000072485467000B707000283C5070137056D
:1001E000000213054501EF00A075B707000223A028
:1001F000A70015E1B707000293874701DC5389EB9D
:10020000B707000203A747015C439166D58F5CC323
:10021000F240056182803705000213054501F5268D
:10022000D1BF411106C622C42A8413654500513F3F
:100230001375B40F7937B240224441018280011115
:1002400006CE22CC26CA4AC84EC62A84AE84B70936
:10025000000203C92901937705FFCD8F3369F900A7
:100260004A8585374A85753F1315440003C4290123
:10027000C98C458C1374F40F2285A137228555371C
:10028000F2406244D2444249B24905618280411140
:1002900006C6B707000221472389E700B707000217
:1002A000A388A700B70700022388B700D13581458E
:1002B0000D45713781450D45593781450D4541370C
:1002C00081450945AD3F81451945953F8145130558
:1002D0008002B537814531459D37814505458537D4
:1002E00081450945A93FB24041018280411106C6BE
:1002F00022C426C2AA84014411A8B387840085457C
:1003000003C507002D3F05041374F40F2685EF0085
:10031000D026E364A4FEB24022449244410182808C
:10032000411106C61375F50F8947638CF50263CB3F
:10033000B7008DC185476391F502130505FC137560
:10034000F50F19A88D476399F500130545FD137541
:10035000F50F19A0134505088145D535B240410177
:100360008280130545F91375F50FFDB7397106DE67
:1003700002C802CA02CC02CE02D002D202D402D6F5
:10038000BD472308F1008947230AF1003ECE9307B9
:1003900000F8A301F1022302F1020C080A85EF0024
:1003A0007011F25021618280011106CEC137B7076A
:1003B00005000567D8CFB74708001307002098C786
:1003C000984B1347072098CB02C221A0924785077C
:1003D0003EC2124789679387F770E3D9E7FE374734
:1003E00008001C4B93C707201CCB02C421A0A247C6
:1003F00085073EC4224789679387F770E3D9E7FEF4
:10040000374708001C4B93C707201CCB930570028D
:100410000545B53D13054006353B130540061D3B1C
:1004200081450145F53D37150080130505DE7D3D0D
:1004300013054006053385450145DD353715008038
:10044000130505DF65351305400629338945014548
:10045000C13D37150080130505E0493D13054006F1
:10046000D5398D4501456D3D37150080130505E1F2
:10047000B53D13054006F93981453145C933374744
:1004800008001C4B93C707201CCB02C63247B7A7F6
:1004900007009387F711E3C4E7FEB24785073EC61E
:1004A000F5B79C41370700407D17F98F9CC1B747CE
:1004B000080093870740630AF508B7570800938739
:1004C0000780630DF508B74708006303F50A054583
:1004D000828011486309060714C583260E00FD8E2D
:1004E000D04533161601D18E2320DE0083A60E00E0
:1004F000F58F9445B3961601D58F23A0FE0005070E
:100500009C41B3D6E740B5CE8546B396E600F58F5D
:10051000FDD703260300931817008D47B3971701E3
:1005200093C7F7FF7D8E03A8450013783800331872
:100530001801336606012320C300D0411148E30AA5
:1005400006F941FE79B754C549BF37130500930E2C
:1005500043C1130E03C11303C3C009A83713050019
:10056000930E03C2130EC3C1130383C1014749BFD6
:1005700037130500930E83C0130E43C0130303C04B
:10058000F5B701458280011106CE22CC2A8402C033
:1005900002C202C402C61841B74708009387078009
:1005A000630DF7001840B7470800938707C063063C
:1005B000F702F240624405618280B7070500130725
:1005C0000040D8CF930700603EC085473EC23EC47E
:1005D0008A8537450800F135F1B73707050085678B
:1005E000938707805CCFB73700403EC085473EC247
:1005F0003EC48A8537450800130505405D3555BF63
:1006000018411C43F99B1CC3828023220504184116
:100610001C43F99B1CC318411C4393E717001CC3E0
:10062000828018411C4393E717001CC382804CD57D
:1006300014419C427D777D17F98F9CC218411C4361
:10064000B205CD8F1CC3828018411C43F99B1CC38B
:100650000CD514419C427D771307F70FF98F9CC28C
:1006600014419C42A2050567130707F0F98DCD8F51
:100670009CC2828018411C43F99B1CC35C59D20761
:100680003707F000F98F185D4207B7060F00758F26
:10069000D98F03470504D98F585D2207C166FD161F
:1006A000758FD98F185972071441D98F9CCA8280CF
:1006B00018411C43F99B1CC34CCD14419C4201774B
:1006C0007D17F98F9CC218411C43C605CD8F1CC3F2
:1006D00082801C4123A4070018459307F00763E1BB
:1006E000E70418411C4793F7F7BF1CC7144198460D
:1006F0001C45860793F7F70FD98F9CC61C45130737
:10070000F007636CF70214419846860793F7F70FDA
:10071000D98F9CC618411C47A166D58F1CC7828003
:1007200018411C4793E707401CC714419C461845D5
:100730001377F73FD98F9CC6D1B71441984693F7EA
:10074000F73FD98F9CC6F9B71C4123A60700144177
:10075000DC46184D2207D98FDCC61441D8461C4907
:10076000860793F7F70FD98FDCC658458547630393
:10077000F700828018415C47A166D58F5CC7D5BF62
:100780004CC914419C423707F8FF7D17F98F9CC272
:1007900018411C43CE05CD8F1CC382800CD114415F
:1007A0009C4241777D17F98F9CC218411C43C205BA
:1007B000CD8F1CC38280411106C622C42A84113FFA
:1007C000228559374C482285653F0C502285F937E0
:1007D000B240224441018280411106C622C42A84CB
:1007E0005D332285313D4C54228591350C54228550
:1007F000A13D228541355C4085E7814522854D3DFF
:10080000228505355C4091C70547639FE700228537
:100810005D37232804040145B2402244410182800F
:100820004C4C22857135E9BF0545FDB71441DC42CA
:10083000370700FE7D17F98FDCC218415C43E605DF
:10084000CD8F5CC38280AE87FD1581CB1C419C4F50
:1008500093F70704EDDB0145828085477CC10D4598
:100860008280AE87FD1581CB1C419C4F93F7070812
:10087000EDDB0145828085477CC10D458280AA86DB
:1008800019A88947FCC2054582808D47FCC20545F1
:100890008280898B8DEBAE87FD159DC39C429C4F5A
:1008A00013F5070179FD13F7073065D713F7071024
:1008B00069FF13F7072071DF9147FCC2054582806D
:1008C0008547FCC20D45828018415C4393F707C001
:1008D0005CC39307F00763E1B7021441DC427D7704
:1008E0001307F77FF98FDCC218415C43860593F547
:1008F000F50FCD8F5CC382801441DC42056713077E
:100900000780D98FDCC21441DC427D777D17F98FD7
:10091000DCC218415C4393F5F53FCD8F5CC3828008
:100920002A871C43884FA1677D8D11C99387F5FFE6
:1009300099C1BE85FDB785477CC30D458280828005
:10094000011106CE22CC26CA4AC84EC652C456C28F
:100950002A892E84B284BA899307F00F63FED704E4
:1009600010415C42370701FF7D17F98F5CC21841C7
:100970005C433706FF00D18F5CC3938616F0939AD1
:10098000060193DA0A0118415C43B7060001D58FCE
:100990005CC3130AF00FA2854A853D37032709007F
:1009A0005C4393F7F7BF5CC3032709005C43896688
:1009B000D58F5CC3014499A0368A10415C42370749
:1009C00001FF7D17F98F5CC218415C43C2063706F0
:1009D000FF00F18ED58F5CC31441DC42370700FF66
:1009E0007D17F98FDCC24C519135814A6DB7832751
:1009F000090083C6040094D785040504637F44017D
:100A0000CE854A85AD3D65D5F2406244D244424927
:100A1000B249224A924A0561828063880A04CE85DF
:100A20004A85813575F19307F00F63FF57058326DB
:100A30000900DC42370701FF7D17F98FDCC203276D
:100A400009005C43B706FF00D58F5CC3938A1AF098
:100A5000C20A93DA0A01032709005C43B7060001C2
:100A6000D58F5CC3130AF00FB1B783270900DC43AD
:100A700037070002F98F89C7CE854A85553569B792
:100A8000CE854A85C93349B7568A83260900DC4298
:100A9000370701FF7D17F98FDCC2032709005C438C
:100AA000C20AB706FF00B3FADA00B3E757015CC326
:100AB00083260900DC42370700FF7D17F98FDCC26F
:100AC000832549024A859D33814AEDB585476301F7
:100AD000F50289476302F50219C105458280B70610
:100AE0000600DC4A7D771307F73FF98FDCCA828066
:100AF00085669386068019A0930600400147B707D4
:100B000005009C5FE98F91EB0507B7A70700938766
:100B1000F711E3F6E7FE0D45828041113706060026
:100B20005C4A7D771307F73FF98FD58F5CCA02C601
:100B300021A0B24785073EC6324793073006E3DA65
:100B4000E7FE01454101828091476308F50463EEA9
:100B5000A70285476306F50489476316F502A14697
:100B600001450147B70705009C5FF58F85EF050735
:100B7000B7A707009387F711E3F6E7FEB70705006D
:100B8000C8D30D45828005458280A1476315F500D5
:100B900089460945F9B70545828085460D45D1B797
:100BA0009146C1B741118A05C98DB7070500CCD35D
:100BB00002C621A0B24785073EC6324793073006DA
:100BC000E3DAE7FE01454101828085476301F502D2
:100BD00089476301F50219C105458280B706060001
:100BE0009C4A7D771307F73FF98F9CCA82801306D2
:100BF000004021A00566130606800147B7070500DF
:100C00009C5FE98F91EB0507B7A707009387F71162
:100C1000E3F6E7FE0D4582804111370706001C4BC5
:100C2000FD769386F63FF58FD18F1CCB85471CCF81
:100C300002C621A0B24785073EC632479307300659
:100C4000E3DAE7FE01454101828011C5854763066D
:100C5000F50005458280894611A0AA860147B7079D
:100C600005009C5FF58F91EB0507B7A707009387F9
:100C7000F711E3F6E7FE0D4582804111B707050045
:100C8000C8D702C632479307300663C6E700B247AB
:100C900085073EC6C5BF014541018280B7070500F3
:100CA00088C38280B7070500C8C38280B7070500E4
:100CB00088C78280411106C622C426C2AA842E8417
:100CC00023200500232205002324050023260500F8
:100CD000B7070600D84B719BD8CB984B719B98CB2C
:100CE00003C735010A07D8CB03C745010A0798CBCC
:100CF000C845E93B88C00C4403454400B135C8C031
:100D000003450401613F03451401693F0345240184
:100D1000713F084C5D3D88C4484C053FC8C48347BB
:100D20000400858B99E7370706005C4B93E72700A3
:100D30005CCB83470400898B99E7370706005C4B3F
:100D400093E717005CCB83470400918B99E7370743
:100D500006001C4B93E727001CCB83470400A18BA4
:100D600099E7370706001C4B93E717001CCB268535
:100D7000B2402244924441018280937735002A8711
:100D80009DEFB7867F7F9386F6F7FD5510431107D9
:100D9000B377D600B697D18FD58FE389B7FE834658
:100DA000C7FFB307A7408DCA8346D7FF9DC203453F
:100DB000E7FF3335A0003E9579158280F9D283474D
:100DC0000700050793763700F5FB098F1305F7FF3A
:100DD00082801385D7FF82801385C7FF8280000041
:100DE000312E2048656C6C6F204772616E6974000B
:100DF000322E204D494B333220414D5552000000D8
:100E0000332E20534342204D4552494449414E0020
:100E1000342E205041534344205374726F6E670048
:100E200001000000000000000000000000000000C1
:040000058000000077
:00000001FF
