:0200000480007A
:100000003741000213010100B70100029381010092
:10001000B715008093850511371600801306065525
:10002000B70600029386060039A083A2050023A02C
:10003000560091059106E3EAC5FEB70500029385D7
:100040000544370600021306064721A023A0050039
:100050009105E3EDC5FEB7000080E7804007B700DB
:100060000080E7804007B7000080E780C05C730035
:100070005010F5BF8280000000000000000000006A
:100080000000000000000000000000000000000070
:100090000000000000000000000000000000000060
:1000A0000000000000000000000000000000000050
:1000B0000000000000000000000000000000000040
:1000C0006F004000197106C20AC40EC612C816CAD3
:1000D0001ACC1ECE22D026D22AD42ED632D836DA48
:1000E0003ADC3EDEC2C0C6C2CAC4CEC6D2C8D6CA78
:1000F000DACCDECEE2D0E6D2EAD4EED6F2D8F6DA28
:10010000FADCFEDE970000009380405C8290924013
:100110002241B2414242D2426243F24302549254DB
:100120002255B2554256D2566257F2570648964863
:100130002649B649464AD64A664BF64B065C965C5B
:10014000265DB65D465ED65E665FF65F096173004A
:10015000203001A0011126CA935475014AC84EC629
:1001600052C41317950006CE22CC56C293F4F40F56
:100170002E8A935997001359F501B5C49307F00FD0
:10018000638FF40613973900B7070004B369F700CB
:10019000938414F8814A93577A0113149A0093F7C1
:1001A000F70F2580135AFA01ADC71307F00F638DBF
:1001B000E7060E0437070004598C938717F8814629
:1001C0009D8C93972A00D58FFD17394733464901F7
:1001D0006364F70817170000130707CC8A07BA975C
:1001E0009C43BA978287638309024E855D249307F7
:1001F000B5FF9304A0F8B399F900898C61BF93040B
:10020000F00F8D4AE39909F8894A71B78144854A0C
:1002100059B70DC02285B52C9307B5FF3314F400F0
:100220009307A0F8898F61BF9307F00F8D4649F8B7
:10023000894679B78147854661B74A864E84D68616
:100240008947638AF6148D476381F614854763975F
:10025000F60881470147C1A09315540063FD890C3E
:10026000FD14814713D50501B3D8A902C166FD1657
:10027000ED8EC18333F7A902468433881603420703
:10028000D98F63FC0701AE971384F8FF63E7B700CB
:1002900063F507011384E8FFAE97B387074133D8AE
:1002A000A702B3F7A70233870603C207C28663F12A
:1002B000E7023385B700B338F5009306F8FFAA8745
:1002C000639808006376E5009306E8FFB307B5007E
:1002D0004204998F558CB337F0005D8C1387F40777
:1002E0006352E0069377740099C79377F4009146C0
:1002F0006383D7001104B7070008E18F99C7B707D8
:1003000000F8FD177D8C138704089307E00F63C482
:10031000E70893573400F2406244A6075E07A583BE
:100320005D8F1315F601D2444249B249224A924ADE
:10033000598D056182809397F90193D919001DB7F2
:100340005286FDBD854619C7998EED458147014707
:10035000E3C3D5FC9384E409B356D400331494006A
:1003600033348000B3E7860013F7770019C713F71B
:10037000F70091466303D7009107370700047D8F8C
:100380008D8351DB8147054779B7B70740001307D5
:10039000F00F014649B781471307F00FADBF9357E0
:1003A0007501370680009306F6FF93F7F70F930564
:1003B000E007E98E1357F501014563DAF50205EB15
:1003C0001307E0097D556344F7021307500933E52D
:1003D000C6006357F7009387A7F63315F5008280B0
:1003E00013076009B307F7403355F5008280828018
:1003F000411122C406C62A84814719CD5928930782
:10040000E009898F130760096341F7022147630FF1
:10041000E50661153314A4002604258013957701A1
:10042000B240418D224441018280130790096357F5
:10043000F7041307B50195463317E400898E333767
:10044000E0003354D400598C370700FC7D179376B5
:100450007400618F91C63D8891466303D4001107F3
:10046000B7060004F98E81CAB70700FCFD177D8F1F
:100470009307F009898F1354370079BF9546130706
:10048000B5FFE303D5FC3314E4007DBF9307600997
:1004900061B7C1676376F5029337051093C71700FC
:1004A0008E07130700021D8F3355F50097170000C4
:1004B000938747A2AA9703C507003305A740828008
:1004C00037070001C147E36EE5FCE147D9BF4111A1
:1004D00006C622C426C24AC0370500021304C5441A
:1004E000B754080004C044C02305040023040400DA
:1004F0000549A30424011305C5441D2544C4A104D2
:1005000004C8230B0400230A0400A30A24011305D2
:10051000C4003925B24022449244024941018280FC
:10052000B70700809387070073905730B70705001F
:100530001D671107D8CF1307B008D8CBD84713676A
:100540008700D8C78280B74708001306002090C7ED
:100550001307004098C790C398C337170500832638
:10056000C7C0B705FDFFFD15ED8EC165CD8E2326F5
:10057000D7C08326C7C0B705F4FFFD15ED8EB705BC
:100580000400CD8E2326D7C01307001023A6E74012
:1005900023A4C7408280B72608001387068085679A
:1005A000138657D023A6C6801306D00623A0C68084
:1005B000FD5654CF3707050091462324D740736773
:1005C000043093870780F3A747308280011106CE5D
:1005D000813F953FC937E53DB707000283C7074410
:1005E000E5DFB747080013070020D8C302C632472B
:1005F00089679387F77063DCE700B7470800130744
:10060000002098C3B707000223800744F1B7B24720
:1006100085073EC6E9BF411106C6D93BB7070002B0
:1006200083A50700053EB707000283A547001D36D6
:10063000BD3385676364F50005657D15B2404101F2
:100640008280411106C622C426C2AA8485252A8436
:1006500083C74400938707FDB70400022384F40096
:10066000A945B355B50237150080130505FDED26E4
:10067000228555372A8493150501C18183C78400DB
:1006800005476386E70209476389E70213160401F9
:100690004182B707000283C5870037150080130524
:1006A00085FE5D2EB240224492444101828037058E
:1006B00000021305C5441923D1BF370500021305F5
:1006C000C5443105E529D9B7B70705009387074029
:1006D0009C53918BC5C3B727080093870780DC4FD5
:1006E00093F7070481CFB72708001307000423AE50
:1006F000E780B707000205472380E744B7270800D3
:1007000093870780DC4F93F7070285CFB727080050
:100710001307000223AEE78003A64782B706000254
:1007200083C7164437070002130747443E97230048
:10073000C700850793F7F70FA380F6441147636856
:10074000F700B7070500114723ACE740828041114D
:1007500006C63705000213054544E535B707000214
:10076000A3800744B7070500114723ACE740B24018
:10077000410182808280411106C622C4AA853724A5
:100780000800130504801D28130504802928B240A1
:100790002244410182805C4D93F7070499E30145AF
:1007A000828005458280411106C622C42A842285A2
:1007B000DD3775DDB2402244410182800CD5828054
:1007C000411106C622C42A8419A005046D370345C9
:1007D000040065FDB2402244410182805D7186C6FD
:1007E000A2C4A6C2CAC04EDE52DC56DA5AD82A8A41
:1007F0002EC6E1AA4937228AC9AA13073A0003453F
:1008000014000549CDAA13073A000345140009490D
:10081000DDA2B30930410949DDAA93972900CE979B
:100820008607AA97938907FD0345070005079307E5
:1008300005FD93F7F70FA546E3F1F6FE3A8AE1AA24
:100840008149F5B72A869307E6FB93F6F70F5947D8
:10085000636BD7089397260037170080130787E349
:10086000BA979C438287B247138747003AC683AA48
:100870000700014411A00504B3878A0083C707005D
:10088000FDFB29A013050002FD352684937729007E
:1008900091E793041400E36734FF268456850D37EF
:1008A00029A013050002C13D268493041400E36AC5
:1008B00034FF21AAB247138747003AC603C5070091
:1008C0005D3D21A2A9469377490085C7B2471387AA
:1008D00047003AC6984393074004630BF60201466B
:1008E000A5A0C146CDB7413DCDA08946E9BFA146EF
:1008F000D9BF930740046308F600B2471387470047
:100900003AC69843E9BFB247138747003AC69843AF
:10091000E35707FC3307E04013690901C9B713081F
:100920007002C29793F7F70F13041600938707031B
:1009300093040603338824002300F8FE63E4D50201
:10094000FD4763E187022286B377D702BA85335722
:10095000D7022548E37AF8FC13088007E30105FD78
:100960001D48C1B79377090199CB930704033384DA
:1009700027009307D0022300F4FE13042600937788
:10098000190089C7130B0003A28439A0130B0002BE
:10099000E5BF5A85CD33D6849377290091E7938AB2
:1009A0001400E3E834FFD6847D14930704038A9788
:1009B00003C507FEC9336DF829A013050002653B86
:1009C000A28413841400E3EA34FF13041A000345DD
:1009D0000A002DC993075002E31EF5E013072A0011
:1009E0000345040093070003E309F5E09307D002F1
:1009F000E30BF5E001499307A002E313F5E4B247E6
:100A00009386470036C683A90700E3C409E0130AAA
:100A10001700034507009307C0066306F500930718
:100A2000C0046317F5001369490003450A00050A6D
:100A300011C993070006E3F7A7E0130605FE137636
:100A4000F60F11B5B640264496440649F259625A4B
:100A5000D25A425B61618280397106CE2ED232D485
:100A600036D63AD83EDA42DC46DE4C102EC6BD33CE
:100A7000F24021618280011106CE22CC2A8402C07C
:100A800002C202C402C6B70705002167D8CF0357C8
:100A9000850093071010630EF7028D473EC28A85CA
:100AA000374508001305054005225840B757080090
:100AB0006307F702B7570800A1076306F7028A85A4
:100AC00037450800130505400122F24062440561E4
:100AD0008280B7170040938707803EC07DBFB7175D
:100AE00000403EC0C1BFB72700403EC0C9BF23057C
:100AF000B50058411C4393E7C73F1CC3828058414F
:100B00001C4393E727001CC38280411106C658414D
:100B10001C4393E717001CC3DD37B24041018280BC
:100B2000411106C622C42A84B9375C4023A00700BD
:100B30002285E13F0347840085476306F7000347AA
:100B40009400631BF700B717050003A7C7C0B706DB
:100B5000C000558F23A6E7C05840B7570800630B65
:100B6000F7025840B7570800A107630FF702834503
:100B7000A4002285AD3F5040184283478400AA0755
:100B800083469400AE06D58FD98F1CC2B240224452
:100B900041018280B717050003A7C7C0B70600034D
:100BA000558F23A6E7C075BFB717050003A7C7C0B9
:100BB000B706000C558F23A6E7C055BF8567FD1704
:100BC000FD8D5C41CCC382809C41370700407D177E
:100BD000F98F9CC1B747080093870740630AF5085F
:100BE000B757080093870780630DF508B7470800DB
:100BF0006303F50A0545828011486309060714C599
:100C000083260E00FD8ED04533161601D18E23208B
:100C1000DE0083A60E00F58F9445B3961601D58F9E
:100C200023A0FE0005079C41B3D6E740B5CE85461C
:100C3000B396E600F58FFDD703260300931817003F
:100C40008D47B397170193C7F7FF7D8E03A8450023
:100C50001378380033181801336606012320C300C7
:100C6000D0411148E30A06F941FE79B754C549BF9E
:100C700037130500930E43C1130E03C11303C3C002
:100C800009A837130500930E03C2130EC3C1130343
:100C900083C1014749BF37130500930E83C0130E6C
:100CA00043C0130303C0F5B701458280294681453F
:100CB000BDA2411106C622C426C29307400263EDBD
:100CC000D7080547B682AE87970800009388583446
:100CD0006384E60803C807003E838507338708015D
:100CE00003470700218B7DF71307D0026304E81048
:100CF0001307B002630BE806B703008093C3F3FF4A
:100D00008144B5EE13070003630EE80EA942A9461D
:100D100033F4530201438148254EE54FFD5E33DF36
:100D20005302130708FD6378EE001307F8FB63EE28
:100D3000EF06130798FC6352D708630BD3017D536A
:100D400063681F01630B1F090543B3885802BA98F3
:100D5000850703C8F7FFF1B7D928B2402244D94725
:100D60001CC19244014541018280B703008003C841
:100D7000070093C3F3FF930723008144C1D6414783
:100D8000E398E6F813070003C142E313E8F803C74A
:100D90000700930880051377F70DE31B17F703C8C7
:100DA0001700C1428907C146A5B71307F8F963E6E2
:100DB000EF00130798FAE342D7F87D576302E30286
:100DC00099C0B308104101C6631903040CC2B240B4
:100DD00022449244468541018280E34BE4F6ADB75C
:100DE0001307200218C19E887DD29385F7FF9E8845
:100DF0000CC2F1BF03C80700B703008093072300AC
:100E0000854401B703C7070093088005A142137703
:100E1000F70DA146E31E17EF59B7C683F9B7B2869F
:100E20002E86AA8517F5FF810325851E59B517F56E
:100E3000FF810325E51D8280EA080080B408008058
:100E4000C4080080E6080080E6080080E60800800C
:100E5000E6080080E6080080E6080080E6080080DA
:100E6000E6080080E6080080E6080080EE080080C2
:100E7000E6080080E6080080E6080080660800803A
:100E8000E6080080C4080080E6080080E6080080CC
:100E9000E208008002F5FFFFBEF3FFFFACF4FFFFA6
:100EA000BEF3FFFFF6F4FFFFBEF3FFFFACF4FFFF5E
:100EB00002F5FFFF02F5FFFFF6F4FFFFACF4FFFFC2
:100EC000A6F3FFFFA6F3FFFFA6F3FFFFF6F4FFFF75
:100ED00000010202030303030404040404040404E1
:100EE00005050505050505050505050505050505B2
:100EF0000606060606060606060606060606060692
:100F00000606060606060606060606060606060681
:100F10000707070707070707070707070707070761
:100F20000707070707070707070707070707070751
:100F30000707070707070707070707070707070741
:100F40000707070707070707070707070707070731
:100F50000808080808080808080808080808080811
:100F60000808080808080808080808080808080801
:100F700008080808080808080808080808080808F1
:100F800008080808080808080808080808080808E1
:100F900008080808080808080808080808080808D1
:100FA00008080808080808080808080808080808C1
:100FB00008080808080808080808080808080808B1
:100FC00008080808080808080808080808080808A1
:100FD000496E7075742076616C75652025642F31BB
:100FE00030303020000000002D205365742043680D
:100FF000616E6E656C202564202D2053656E742013
:10100000746F204441432025640D0A0000202020F5
:1010100020202020202028282828282020202020A8
:101020002020202020202020202020202088101078
:1010300010101010101010101010101010040404D4
:101040000404040404040410101010101010414192
:101050004141414101010101010101010101010180
:101060000101010101010101101010101010424294
:101070004242424202020202020202020202020250
:1010800002020202020202021010101020000000F0
:101090000000000000000000000000000000000050
:1010A0000000000000000000000000000000000040
:1010B0000000000000000000000000000000000030
:1010C0000000000000000000000000000000000020
:1010D0000000000000000000000000000000000010
:1010E0000000000000000000000000000000000000
:1010F00000000000000000000000000000000000F0
:1011000000000000000000000000000000000000DF
:101110009A99993900401C46020000001000000214
:1011200000000000FC02000264030002CC03000285
:1011300000000000000000000000000000000000AF
:10114000000000000000000000000000000000009F
:10115000000000000000000000000000000000008F
:10116000000000000000000000000000000000007F
:10117000000000000000000000000000000000006F
:10118000000000000000000000000000000000005F
:10119000000000000000000000000000000000004F
:1011A000000000000000000000000000000000003F
:1011B000000000000000000000000000000000002F
:1011C000000000000000000001000000000000001E
:1011D0000E33CDAB34126DE6ECDE05000B000000E3
:1011E00000000000000000000000000000000000FF
:1011F00000000000000000000000000000000000EF
:1012000000000000000000000000000000000000DE
:1012100000000000000000000000000000000000CE
:040000058000000077
:00000001FF
