:0200000480007A
:100000003741000213010100B70100029381010092
:10001000B7150080938505E937160080130606E9B9
:10002000B70600029386060039A083A2050023A02C
:10003000560091059106E3EAC5FEB70500029385D7
:100040000500370600021306060721A023A00500BD
:100050009105E3EDC5FEB7000080E7804007B700DB
:100060000080E7804007B7000080E78040267300EB
:100070005010F5BF8280000000000000000000006A
:100080000000000000000000000000000000000070
:100090000000000000000000000000000000000060
:1000A0000000000000000000000000000000000050
:1000B0000000000000000000000000000000000040
:1000C0006F004000197106C20AC40EC612C816CAD3
:1000D0001ACC1ECE22D026D22AD42ED632D836DA48
:1000E0003ADC3EDEC2C0C6C2CAC4CEC6D2C8D6CA78
:1000F000DACCDECEE2D0E6D2EAD4EED6F2D8F6DA28
:10010000FADCFEDE970000009380E00482909240CB
:100110002241B2414242D2426243F24302549254DB
:100120002255B2554256D2566257F2570648964863
:100130002649B649464AD64A664BF64B065C965C5B
:10014000265DB65D465ED65E665FF65F096173004A
:10015000203001A0397106DE02C802CA02CC02CEEC
:1001600002D002D202D402D6BD472308F10089474B
:10017000230AF1003ECE930700F8A301F102230207
:10018000F1020C080A85EF00F039F25021618280FB
:10019000B7070500D84F9D66558FD8CFD84B13674A
:1001A0009708D8CB8280411106C637050002930715
:1001B000450037470800130707C098C323A207006C
:1001C00023A407020547D8D7D8D3154798DB3D4766
:1001D000D8DB98DFD8DFB8C313054500EF00100562
:1001E00001E5B2404101828037150080130585E4A6
:1001F000E521C5BF411106C622C426C24AC02A89CC
:10020000B7040002138444001C40D843B70601FF22
:10021000FD16758FD8C3D843C166558FD8C34C50CF
:1002200013854400EF00D005CA8513854400EF0014
:10023000700B1C40D8431377F7BFD8C3D8438965E8
:100240004D8FD8C39385057113854400EF00F004EA
:100250001C4023A407026840B24022449244024951
:1002600041018280411106C622C41D37E535014790
:10027000814621468565938555D0372508001305AD
:100280000580012A0D3737150080130585E5A92162
:10029000014405A837150080130545E735293705C2
:1002A000000213054500652B37070002832707006E
:1002B00085072320F7003D476344F70205041374C4
:1002C000F40F93178401E18763C6070222851D3767
:1002D00071F1A285371500801305C5E6F52EC1B76B
:1002E000B707000223A00700371500801305C5E8F3
:1002F000E526E9B7371500801305C5E7F12E01A003
:10030000411106C622C4AA853724080013050480BB
:10031000352213050480012AB24022444101828023
:10032000011106CE22CC2A8402C002C202C402C637
:10033000B717080093870740630CF500B72708003C
:10034000938707806304F402F2406244056182806F
:10035000B70705000947D8CF930700063EC0854779
:100360003EC28A85374508007926C9BFB707050010
:100370001147D8CFB7070040938707303EC0854765
:100380003EC202C48A853745080013050540A526EC
:1003900065BF011106CE22CC26CA4AC84EC652C439
:1003A000AA842E893284368ABA899D3FBD4763FB71
:1003B000270523A0040023A62401FD57DCCC23A29B
:1003C000440123A43401936714009CC005A0014597
:1003D00011A005451377840009CB19C53707200004
:1003E000F98F99EF014511A0014511EDDC4C137710
:1003F000440065D3370740007D8F71DB0545D9BFC9
:100400000545E5B70145F2406244D2444249B2494C
:10041000224A056182805C4D93F7070499E3014508
:10042000828005458280411106C622C42A84228525
:10043000DD3775DDB2402244410182800CD58280D7
:10044000411106C622C42A8419A00504553D03455E
:10045000040065FDB2402244410182805D7186C680
:10046000A2C4A6C2CAC04EDE52DC56DA5AD82A8AC4
:100470002EC6E1AA7135228AC9AA13073A0003459C
:1004800014000549CDAA13073A0003451400094991
:10049000DDA2B30930410949DDAA93972900CE971F
:1004A0008607AA97938907FD034507000507930769
:1004B00005FD93F7F70FA546E3F1F6FE3A8AE1AAA8
:1004C0008149F5B72A869307E6FB93F6F70F59475C
:1004D000636BD70893972600371700801307C7DE92
:1004E000BA979C438287B247138747003AC683AACC
:1004F0000700014411A00504B3878A0083C70700E1
:10050000FDFB29A013050002E53B26849377290013
:1005100091E793041400E36734FF268456850D3772
:1005200029A013050002E93B268493041400E36A22
:1005300034FF21AAB247138747003AC603C5070014
:10054000C13321A2A9469377490085C7B2471387D3
:1005500047003AC6984393074004630BF6020146EE
:10056000A5A0C146CDB7693BCDA08946E9BFA1464C
:10057000D9BF930740046308F600B24713874700CA
:100580003AC69843E9BFB247138747003AC6984333
:10059000E35707FC3307E04013690901C9B71308A3
:1005A0007002C29793F7F70F13041600938707039F
:1005B00093040603338824002300F8FE63E4D50285
:1005C000FD4763E187022286B377D702BA853357A6
:1005D000D7022548E37AF8FC13088007E30105FDFC
:1005E0001D48C1B79377090199CB9307040333845E
:1005F00027009307D0022300F4FE1304260093770C
:10060000190089C7130B0003A28439A0130B000241
:10061000E5BF5A85F531D6849377290091E7938A0F
:100620001400E3E834FFD6847D14930704038A970B
:1006300003C507FEF1316DF829A013050002C93189
:10064000A28413841400E3EA34FF13041A00034560
:100650000A002DC993075002E31EF5E013072A0094
:100660000345040093070003E309F5E09307D00274
:10067000E30BF5E001499307A002E313F5E4B24769
:100680009386470036C683A90700E3C409E0130A2E
:100690001700034507009307C0066306F50093079C
:1006A000C0046317F5001369490003450A00050AF1
:1006B00011C993070006E3F7A7E0130605FE1376BA
:1006C000F60F11B5B640264496440649F259625ACF
:1006D000D25A425B61618280397106CE2ED232D409
:1006E00036D63AD83EDA42DC46DE4C102EC6BD3352
:1006F000F240216182809C41370700407D17F98FCD
:100700009CC1B747080093870740630AF508B757AD
:10071000080093870780630DF508B7470800630357
:10072000F50A0545828011486309060714C583262A
:100730000E00FD8ED04533161601D18E2320DE002B
:1007400083A60E00F58F9445B3961601D58F23A08E
:10075000FE0005079C41B3D6E740B5CE8546B3966B
:10076000E600F58FFDD703260300931817008D4789
:10077000B397170193C7F7FF7D8E03A84500137841
:10078000380033181801336606012320C300D04116
:100790001148E30A06F941FE79B754C549BF37133A
:1007A0000500930E43C1130E03C11303C3C009A870
:1007B00037130500930E03C2130EC3C1130383C185
:1007C000014749BF37130500930E83C0130E43C082
:1007D000130303C0F5B701458280011106CE22CC78
:1007E0002A8402C002C202C402C61841B7470800E8
:1007F00093870780630DF7001840B7470800938779
:1008000007C06306F702F240624405618280B707C1
:10081000050013070040D8CF930700603EC085470E
:100820003EC23EC48A8537450800F135F1B7370727
:1008300005008567938707805CCFB73700403EC0CF
:1008400085473EC23EC48A853745080013050540EA
:100850005D3555BF18411C43F99B1CC38280232280
:10086000050418411C43F99B1CC318411C4393E722
:1008700017001CC3828018411C4393E717001CC358
:1008800082804CD514419C427D777D17F98F9CC2A4
:1008900018411C43B205CD8F1CC3828018411C43F4
:1008A000F99B1CC30CD514419C427D771307F70FAD
:1008B000F98F9CC214419C42A2050567130707F0FB
:1008C000F98DCD8F9CC2828018411C43F99B1CC3BB
:1008D0005C59D2073707F000F98F185D4207B70659
:1008E0000F00758FD98F03470504D98F585D2207F4
:1008F000C166FD16758FD98F185972071441D98FAB
:100900009CCA828018411C43F99B1CC34CCD1441E6
:100910009C4201777D17F98F9CC218411C43C60584
:10092000CD8F1CC382801C4123A407001845930768
:10093000F00763E1E70418411C4793F7F7BF1CC7B2
:10094000144198461C45860793F7F70FD98F9CC62C
:100950001C451307F007636CF7021441984686079D
:1009600093F7F70FD98F9CC618411C47A166D58F06
:100970001CC7828018411C4793E707401CC71441DD
:100980009C4618451377F73FD98F9CC6D1B71441C1
:10099000984693F7F73FD98F9CC6F9B71C4123A619
:1009A00007001441DC46184D2207D98FDCC61441DC
:1009B000D8461C49860793F7F70FD98FDCC65845F0
:1009C00085476303F700828018415C47A166D58F95
:1009D0005CC7D5BF4CC914419C423707F8FF7D174F
:1009E000F98F9CC218411C43CE05CD8F1CC3828059
:1009F0000CD114419C4241777D17F98F9CC218415C
:100A00001C43C205CD8F1CC38280411106C622C47F
:100A10002A84113F228559374C482285653F0C5066
:100A20002285F937B240224441018280411106C635
:100A300022C42A845D332285313D4C542285913570
:100A40000C542285A13D228541355C4085E78145D6
:100A500022854D3D228505355C4091C70547639F42
:100A6000E70022855D37232804040145B240224473
:100A7000410182804C4C22857135E9BF0545FDB7A7
:100A80001441DC42370700FE7D17F98FDCC21841A4
:100A90005C43E605CD8F5CC38280AA8619A889478E
:100AA000FCC2054582808D47FCC205458280898B4A
:100AB0008DEBAE87FD159DC39C429C4F13F507013E
:100AC00079FD13F7073065D713F7071069FF13F7A0
:100AD000072071DF9147FCC2054582808547FCC233
:100AE0000D45828018415C4393F707C05CC39307B0
:100AF000F00763E1B7021441DC427D771307F77F0B
:100B0000F98FDCC218415C43860593F5F50FCD8F54
:100B10005CC382801441DC42056713070780D98FCC
:100B2000DCC21441DC427D777D17F98FDCC21841AD
:100B30005C4393F5F53FCD8F5CC3828085476301AD
:100B4000F50289476302F50219C105458280B7069F
:100B50000600DC4A7D771307F73FF98FDCCA8280F5
:100B600085669386068019A0930600400147B70763
:100B700005009C5FE98F91EB0507B7A707009387F6
:100B8000F711E3F6E7FE0D458280411137060600B6
:100B90005C4A7D771307F73FF98FD58F5CCA02C691
:100BA00021A0B24785073EC6324793073006E3DAF5
:100BB000E7FE01454101828091476308F50463EE39
:100BC000A70285476306F50489476316F502A14627
:100BD00001450147B70705009C5FF58F85EF0507C5
:100BE000B7A707009387F711E3F6E7FEB7070500FD
:100BF000C8D30D45828005458280A1476315F50065
:100C000089460945F9B70545828085460D45D1B726
:100C10009146C1B741118A05C98DB7070500CCD3EC
:100C200002C621A0B24785073EC632479307300669
:100C3000E3DAE7FE01454101828085476301F50261
:100C400089476301F50219C105458280B706060090
:100C50009C4A7D771307F73FF98F9CCA8280130661
:100C6000004021A00566130606800147B70705006E
:100C70009C5FE98F91EB0507B7A707009387F711F2
:100C8000E3F6E7FE0D4582804111370706001C4B55
:100C9000FD769386F63FF58FD18F1CCB85471CCF11
:100CA00002C621A0B24785073EC6324793073006E9
:100CB000E3DAE7FE01454101828011C585476306FD
:100CC000F50005458280894611A0AA860147B7072D
:100CD00005009C5FF58F91EB0507B7A70700938789
:100CE000F711E3F6E7FE0D4582804111B7070500D5
:100CF000C8D702C632479307300663C6E700B2473B
:100D000085073EC6C5BF014541018280B707050082
:100D100088C38280B7070500C8C38280B707050073
:100D200088C78280411106C622C426C2AA842E84A6
:100D30002320050023220500232405002326050087
:100D4000B7070600D84B719BD8CB984B719B98CBBB
:100D500003C735010A07D8CB03C745010A0798CB5B
:100D6000C845E93B88C00C4403454400B135C8C0C0
:100D700003450401613F03451401693F0345240114
:100D8000713F084C5D3D88C4484C053FC8C483474B
:100D90000400858B99E7370706005C4B93E7270033
:100DA0005CCB83470400898B99E7370706005C4BCF
:100DB00093E717005CCB83470400918B99E73707D3
:100DC00006001C4B93E727001CCB83470400A18B34
:100DD00099E7370706001C4B93E717001CCB2685C5
:100DE000B240224492444101828000006A050080A2
:100DF000340500804405008066050080660500809B
:100E00006605008066050080660500806605008036
:100E10006605008066050080660500806605008026
:100E20006E0500806605008066050080660500800E
:100E3000E6040080660500804405008066050080A9
:100E400066050080620500804932435F496E69741F
:100E5000206572726F720A0053746172742073633A
:100E6000616E202E2E2E200D0A000000307825788D
:100E70002020000020202E20202000000D0A537486
:100E80006F70207363616E202E2E2E200D0A0000DD
:040000058000000077
:00000001FF
