:0200000480007A
:100000003741000213010100B70100029381010092
:10001000B74500809385057B37560080130606821E
:10002000B70600029386060039A083A2050023A02C
:10003000560091059106E3EAC5FEB70500029385D7
:100040000507371600021306069221A023A005001B
:100050009105E3EDC5FEB7000080E7804007B700DB
:100060000080E7804007B7300080E78000FB730026
:100070005010F5BF8280000000000000000000006A
:100080000000000000000000000000000000000070
:100090000000000000000000000000000000000060
:1000A0000000000000000000000000000000000050
:1000B0000000000000000000000000000000000040
:1000C0006F004000197106C20AC40EC612C816CAD3
:1000D0001ACC1ECE22D026D22AD42ED632D836DA48
:1000E0003ADC3EDEC2C0C6C2CAC4CEC6D2C8D6CA78
:1000F000DACCDECEE2D0E6D2EAD4EED6F2D8F6DA28
:10010000FADCFEDE97300000938000D382909240AC
:100110002241B2414242D2426243F24302549254DB
:100120002255B2554256D2566257F2570648964863
:100130002649B649464AD64A664BF64B065C965C5B
:10014000265DB65D465ED65E665FF65F096173004A
:10015000203001A03D432A876373C3029377F700E1
:10016000BDEFADE5937606FF3D8ABA960CC34CC34E
:100170000CC74CC74107E36BD7FE11E28280B30680
:10018000C3408A069702000096966780A600230760
:10019000B700A306B7002306B700A305B7002305E1
:1001A000B700A304B7002304B700A303B7002303D9
:1001B000B700A302B7002302B700A301B7002301D1
:1001C000B700A300B7002300B700828093F5F50FB6
:1001D00093968500D58D93960501D58D61B793963D
:1001E00027009702000096968682E78086FA96801E
:1001F000C1171D8F3E96E374C3F8A5B7B70500027B
:1002000005654111114693854509130505F006C69C
:10021000EF10403AB705000211469385C508130553
:100220000050EF102039B240B70500021146938507
:1002300005091305001041016F10C03741119305E6
:100240000008014506C6EF1040240145EF10801C50
:10025000B240B705000205651946938505071305E9
:10026000059041016F1000354111930500080145CB
:1002700006C622C4EF1060210145EF10A0190564E5
:10028000B7050002130504F0114693854509EF10E8
:100290006032B705000211469385C508130500506A
:1002A000EF104031B705000211469385050913058B
:1002B0000010EF102030130504902244B240B7051F
:1002C000000219469385050741016F10A02EB7075C
:1002D00000809387C71F370800022324F800B70760
:1002E000008093878726B706000223A2F600B7078F
:1002F0000080370700029387C7232320F70019C126
:100300002324A80099C123A2B60019C22320C70044
:100310008280011105652C0019461305059006CE53
:1003200022CCEF10801EB707000203A48707B7078F
:100330000600938717101CC0B707000203A7C70762
:100340002326040023280400135607011376F60F12
:1003500022069357870193568700D18F370601FFF6
:100360007D1693F6F60FC206F18FD58FA2076207AE
:10037000A183D98F370700025CC09307070783D793
:10038000470003270707B70680002310F40214C4B0
:1003900058CC232A0400232C040023010402130652
:1003A000000481451305C402A301040223020402D0
:1003B000A302040223030402A3030402230404028D
:1003C000A304040223050402A305040261331305F8
:1003D000C406130600088145B53BB787536393876E
:1003E00037262326F40EF24062440561828039717B
:1003F00022DC26DA4ED652D406DE4AD856D25AD05D
:100400005ECE62CC66CA3137B70600021387060794
:1004100003D80607B7070002B706000203A4870740
:1004200023A0060AB70600023705000223AE06081D
:10043000B706013D8357470093865613835527001F
:100440001305C5002328D40E03460500930670103B
:10045000231AD40EB146231B040F231CB40E231DF4
:10046000F40E231ED40E034A370093D9870093F469
:10047000F70F6307062049479306F7FEC206C182BD
:10048000BA87B305E4003307D5002386C50E0346BB
:100490000700138717004207418379FE138977000D
:1004A0009383270093823700938F4700138F570061
:1004B000938E670013838700938897001388A700A3
:1004C0001385B7009385C7001386D700138BE70009
:1004D000938AF7004209C107138E76001359090168
:1004E0009906C203C202C20F420FC20E4203C208E3
:1004F00042084205139C0501931B0601420BC20AE8
:10050000C20793D3030193D2020193DF0F01135F5C
:100510000F0193DE0E01330EC94193F6F60F13530C
:10052000030193D80801135808014181135C0C01A1
:1005300093DB0B01135B0B0193DA0A01C1831356A2
:100540004A00A545930C760363E4C500930C0603AB
:10055000B300E4009375FA002386900F25471386B5
:1005600075036364B70013860503A29313D7440091
:100570002386C30E2546930577036364E60093053F
:100580000703A29213F6F4002386B20E25479305C3
:1005900076036364C70093050603A29F13D749003F
:1005A0002386BF0EA5451306770363E4E500130613
:1005B0000703229F13F7F9002306CF0EA545130664
:1005C000770363E4E50013060703A29E2386CE0E9D
:1005D000229E2306DE0E33072401930670032306B2
:1005E000D70E229319472306E30E8546A298238649
:1005F000D80E22988D462306D80E22952306E50EA6
:10060000B30584013D472386E50E330674011307C5
:10061000A0032306E60EB30664011307B003238686
:10062000E60E33075401FD562306D70E1307701349
:10063000636DF700130680131D8E42069387C70E65
:10064000418281453305F4003136B707000203C506
:10065000470A7400A285FD57130730041306402291
:100660003EC6EF10B034F2506254D2544259B259DF
:10067000225A925A025BF24B624CD24C2161828028
:1006800093071002930A00027D4BF94B754C71459C
:100690006D48E94865439946454E6149DD4E594FDD
:1006A000D54FD142CD43494759BD011106CE22CC89
:1006B0008D31B707000283C757080547F51793F731
:1006C000F70F6376F726B707000203A48707FD57E5
:1006D0003EC69305F00F370700029307070783D83C
:1006E00047000356070783D627003707033D130744
:1006F00057132328E40E13077010231AE40E231D4A
:10070000140F231BC40E231CD40E1307F00F13D594
:10071000880003C3370093F8F80F638FE522CD47B5
:10072000494E4946C5464148370700022298B14E16
:100730008345C7002306D80FA2962386060E638D35
:1007400005241307C7008146B28722962306B60EFA
:100750008345170013861700420636880507418235
:100760008506FDF189079906C207328EC1832108EB
:1007700093F6F60F13574300A54E9305770363E4F2
:10078000EE0093050703229E130726002306BE0EE4
:100790001373F30093150701A54EC181130E730364
:1007A00063E46E00130E0303A2971307360023863B
:1007B000C70F13D3480093170701A54EC183130E2B
:1007C000730363E46E00130E03033307B400930551
:1007D000460093F8F8002306C70FC2052547C181DC
:1007E000138378036364170113830803A297130725
:1007F00056002386670E935845004207A54741835C
:100800001383780363E4170113830803A295930706
:1008100066003D892386650EC207A548C1839305FE
:10082000750363E4A8009305050322972306B70E1A
:100830003388074113077600229842072306D80E13
:10084000A297418393068600930570032386B70E13
:10085000C206B307E400A145130796002386B70E2E
:10086000C1829307A6004207A29685454183C2072D
:100870002386B60E22979306B6008D45C1832306C4
:10088000B70EA2971307C6009945C2062386B70E76
:10089000C1829307D6004207A296BD454183C20795
:1008A0002386B60E22979306E6009305A003C18324
:1008B0002306B70EA2971307F6009305B003C206EE
:1008C0002386B70EC182930706014207A296418391
:1008D000FD45C2072386B60E2297C18393061002F8
:1008E00045062306D70EA29742067D572386E70EBC
:1008F00041829307701363ECC7001305C60E93077C
:1009000080133386C74081452295EFF0BF84B70737
:10091000000203C5470A7400A285130730041306BA
:100920004022EF10B008F240624405618280370730
:10093000000203248707B707000237070002832657
:10094000470903A7070A9387070A83C537002315BA
:10095000040054C43AC641B3B707000213874709DD
:1009600083D6470903572700B707000283A7070A62
:10097000130620432310E41013076043231EC40E04
:10098000231FD40E2322F4102311E410FD47794EC7
:100990007946F546714849BB99461D48E1BB0111AE
:1009A00006CE22CC26CAB532B7060002B70700022F
:1009B000B705000203A4850703D547091387060777
:1009C00013864709B70700020358470083582700DA
:1009D00003A7070AB707043D9387571303D30607F6
:1009E0002328F40E8356260093077010231AF40E62
:1009F00093072043FD54231EF40E93076043231BEB
:100A0000640E231C140F231D040F231FA40E231098
:100A1000D4102311F4102322E4102304941013069D
:100A2000B01181452315040013059410EFF08FF2E7
:100A3000B707000203C5470A7400A28513073004F4
:100A40001306402226C6EF106076F2406244D2447C
:100A500005618280797122D4370400020345440A7B
:100A600006D626D24AD04ECE52CC56CA5AC8EF002D
:100A7000D05801ED0145B250225492540259F24926
:100A8000624AD24A424B45618280B70400022A86FC
:100A900083A584070345440A130761003400EF105F
:100AA000D00B0357610093073004AA860145E31475
:100AB000F7FC03A78407B70700029387070783455E
:100AC000C70103C60700E397C5FA8345D70103C6EC
:100AD0001700E391C5FA8345E70103C62700E39BAE
:100AE000C5F88345F70103C63700E395C5F883458C
:100AF000070203C64700E39FC5F60346170283C7F4
:100B00005700E319F6F6370E000213030E0A834569
:100B10000E0A03451300834E230083483300B3E7D6
:100B2000A500B3E7FE00B3E7F80003468100639C2D
:100B30000714034891000345A1008345B100220832
:100B4000B36806014205E205B3E8A800C206C18207
:100B500037040002B7030002B7020002B3E8B8008E
:100B6000B74500801306070F8147369713086003C7
:100B70001305F00F9385053E37090002B704000204
:100B8000930F8408138F0309938EC2086377E614CA
:100B9000834606006365D80E8A06AE969442828626
:100BA0008346160089063696D5B7834A2600034A3F
:100BB0003600834946008346560023005E0BA3009F
:100BC000430123013301A301D300232E1909190680
:100BD00075BF834726000D0655BF83462600034A8E
:100BE00046008349560023ACD400834A3600A2064F
:100BF0001906D696A206D296A206CE9623ACD400AB
:100C000071B783461600034B2600834A3600034A19
:100C1000460083495600890623046409A3805F01C6
:100C200023814F01A3813F0136968DB7834616007D
:100C3000034B2600834A3600034A46008349560088
:100C4000890623886309A3005F0123014F01A301E3
:100C50003F01369625BF834A2600034A3600834962
:100C600046008346560023865209A3804E01238105
:100C70003E01A381DE00190611BF050601BFE39105
:100C8000A6F23A8621B7638DC502B707000283C575
:100C9000C709E391C5DE9387C7090348910083C55F
:100CA0001700E319B8DC0345A10083C52700E3134F
:100CB000B5DC8345B10083C73700E39DF5DA41B564
:100CC00003489100E313A8FC0345A100E31FD5FBF3
:100CD0008345B100E39B15FB9DB5139587016185A5
:100CE00059BBB707000203C5470A411106C6EF10FA
:100CF0006010B240B70700021947A382E70841011C
:100D00008280011126CAB70400028387440822CCDE
:100D100006CE4AC84EC605446350F40437090002A3
:100D2000030759089307E7FF93F7D70FD1C3630D64
:100D300087060545F2406244B707000223A0070872
:100D40003D47B70700022382040823AAE700D244E4
:100D50004249B2490561828037090002B7090002A1
:100D60000327090883A6490163F8E6023707000252
:100D7000830657081387E6FF1377D70F21C7638EC3
:100D80008602232009080327090885072382F4081F
:100D90009307F70023AAF900F2406244D244424983
:100DA000B249054505618280A3020908014559B78A
:100DB000EFF0EFE3A3028908ADBFEFF04FE38387C5
:100DC0004408C1B7DD308387440865BF411126C29E
:100DD0008964138504B006C622C44AC0252D2A8919
:100DE0008D45138504B05525B707000203C5470A92
:100DF0000567B7060002B74500801307873893865A
:100E00004609454693854558EF10403A2A84CA85DD
:100E1000138504B09D2DCD5705456318F400B240ED
:100E200022449244024941018280953E37070002E4
:100E300003260708854683270708918FE3FDF6FE02
:100E4000B24022449244024901454101828041114D
:100E500022C4370400020307540806C626C2994775
:100E60006307F704B704000203C5440A1605130517
:100E700085304D23930720026312F502E13E83473C
:100E8000540811479374F50F6364F70837470080DF
:100E90008A071307C74BBA979C43828703C5440A46
:100EA0008146130640048945EF00705EC1BF1545B9
:100EB000B2402244924441018280B707000283A7D6
:100EC00087017D576389E700B704000203A7040880
:100ED000858363E4E7081145E1BF95476380F40C1F
:100EE00099476380F4102244B2409244410111BDFD
:100EF0008947E39AF4FEB707000283A78707984B58
:100F0000B707000223AAE708EFF02FFAA30294081C
:100F1000054579BF95476388F40E9947E395F4FC3E
:100F2000B707000223A007083D47B707000223AA1E
:100F3000E700B7070002238207088547A302F408E9
:100F40000545BDB7B707000223AA0708EFF02FCA6F
:100F50008547A302F4080545A1BF37070002832790
:100F6000C707B706000203A646098507B7060002B1
:100F7000232EF70623ACC608EFF02FF3B7070002C5
:100F80003D4723AAE700B7070002238207089147DD
:100F900023A00408A302F408114519BF3707000273
:100FA000B70700020346870983C64709B704000252
:100FB000238204086302D608B707000283A747000C
:100FC00082970D45B707000223A007083D47B707E2
:100FD000000223AAE7008D4723820408A302F40835
:100FE000C1BDB707000223A007083D47B7070002AD
:100FF00023AAE700B7070002238207088547A30258
:10100000F408114575B5D93325C1B707000283A788
:1010100087008297B707000223A007083D47B7075C
:10102000000223AAE700B7070002238207088D47C2
:10103000A302F4080545ADBD130787099387470947
:101040000346170083C61700E318D6F603462700A9
:1010500083C62700E312D6F60347370083C737005D
:101060001145E31BF7F4B9BFB707000237070002C9
:1010700083A7070023200708BD4637070002232A5D
:10108000D700370700022302070882970545A3020D
:10109000040839BD79714ECE52CCB7090002056AF9
:1010A00026D24AD019462A89AE8413050A90938520
:1010B000090722D406D61384090702C6B92183463C
:1010C0001400834704008345240003473400D58F70
:1010D0000346440083465400CD8FD98FD18FD58FDE
:1010E000A5CFB7553412B307C70093858567AE9770
:1010F000318F358FB697BA97370700022302270B37
:101100000565370700026C00232C97061146370748
:101110000002130505F0232EF70669296C0011461D
:10112000130500104129B707000223A007083D4717
:10113000B7070002B250225423AAE700B707000203
:1011400023820708B7070002A382070892540259B6
:10115000F249624A45618280B717DC0019469387DD
:1011600007809385090713050A9023A8F90623121F
:101170000400892103473400034644008346540099
:101180008DB7370700028327070885072320F70854
:101190008280B707000203C74709938747092300E6
:1011A000E50003C71700A300E50003C727002301DC
:1011B000E50083C73700A301F5008280B70700026E
:1011C00003C70709938707092300E50003C7170032
:1011D000A300E50003C727002301E50083C737000C
:1011E000A301F5008280B707000203C7C7089387F1
:1011F000C7082300E50003C71700A300E50003C7E5
:1012000027002301E50083C73700A301F500828092
:10121000B707000203C78708938787082300E50004
:1012200003C71700A300E50003C727002301E5005B
:1012300083C73700A301F5008280B707000203A52A
:10124000870182803745008041111305855906C604
:10125000EF20002201A07971AA87056737150002E7
:101260001306F1019305F10013078738854613052E
:10127000058F06D6A307F100A30F0100EF20F00AA7
:10128000B2504561828001110567371500021306CF
:10129000F1009305E100854713078738854613055C
:1012A000058F06CE2307F100A3070100EF20F0070A
:1012B000F2400345F10005618280371500021305F5
:1012C000058F6F203005371500028327058F0547EE
:1012D000B945D8CB1305058F6F205002B705000222
:1012E000397193850502014506DEEF1090214C0807
:1012F000054502C623180100EF10B0206C002145FF
:10130000EF100076325789476300F70C37460080AC
:101310001306865B374500806C001305055CEF20E3
:1013200020150348910183478101034771018346DA
:101330006101034651018345410137450080130592
:10134000C55DEF20E0120347D1018346C10103468A
:10135000B1018345A101374500801305855FEF206A
:10136000201103475102834641020346310283455F
:101370002102374500801305C560EF20600F034749
:101380001102834601020346F1018345E10137451D
:10139000008013050562EF20A00D034791028346EC
:1013A00081020346710283456102374500801305BF
:1013B0004563EF20E00B3745008013058564EF207F
:1013C000200BF25021618280374600801306065BB5
:1013D00091B7411122C4370400021304040213051B
:1013E000640006C67D331305E400C93B1305A40061
:1013F000DD3B13052401293D89471CCCC535353D0E
:101400002244B240AA853745008013058566410114
:101410006F200006011122CC370400021304C4031C
:101420005C4406CE26CA4AC8AA8482975C4813F94F
:10143000F40F82975C5013D50401A1801375F50F4A
:1014400093F4F40F89CF1C5499CBA204458D231635
:10145000A100230721018D456800829709A81C502F
:1014600082971C50268582971C504A8582975C4C37
:1014700082971C4CAA8482971C488297F24062444F
:1014800042492685D24405618280797126D2B7040B
:1014900000029384C403DC4406D622D44AD04ECE44
:1014A0002A842E898297DC489369440093F9F90FC6
:1014B00082979C541355040121801375F50F137402
:1014C000F40F85CB2204418DC209B3653501620951
:1014D000B3E525012EC66800914582979C4C829702
:1014E0009C488297B250225492540259F249456165
:1014F00082809C5082979C50228582979C504E857A
:1015000082979C504A858297D1BF797126D2B704C1
:1015100000029384C403DC4406D622D44AD04ECEC3
:1015200052CC2A892E84B2898297DC48137AF90F2B
:101530008297DC5013550901135989001375F50F73
:101540001379F90F8DCF98541DCB2209B36725016C
:101550008D4568002316F100230741010297DC50F6
:10156000CE85228582979C4C82979C488297B25068
:10157000225492540259F249624A456182809C5039
:1015800082979C504A853309340182979C5052853A
:101590008297E38A09FCDC4C05048297A30FA4FE22
:1015A000E30389FCDC4C05048297A30FA4FEE3143B
:1015B00089FE55BF797122D4370400021304C40395
:1015C0005C4406D626D24AD04ECE52CCAA842E896E
:1015D000B28982975C4813EA4400137AFA0F829723
:1015E000185413D50401A1801375F50F93F4F40F6B
:1015F0001DCBA204B36795008D4568002316F1004A
:101600002307410102971C54CE854A8582971C4CC2
:1016100082971C488297B250225492540259F24940
:10162000624A456182801C5082971C502685B30413
:10163000390182971C5052858297E38A09FC034541
:1016400009001C5005098297E31B99FEC9B7B747EB
:1016500000809387476D9043D4439847DC47B71584
:1016600000803715008039719385A52B1305652CF3
:101670003ECE06DE32C836CA3ACC22DC26DA4AD85A
:101680004ED652D4EF00707DB7150080371500801C
:101690009385652513056528EF00307F0C08054507
:1016A000EF10003CFD57630AF50C7D54B7440080F1
:1016B00021A08347F10099EF9305F1003D45EF101C
:1016C000203AE31885FE1385446AEF10705A834769
:1016D000F100FDD3B7050002056513840502194624
:1016E0009385050213050590F135184C8947630C65
:1016F000F700ED360145F2506254D2544259B259C6
:10170000225A21618280B70500029385050E0145AA
:10171000513237150080371600809305253D13069A
:1017200046241305253DEFE09FBA81440544114945
:1017300095490D4AEFF0AFF19307E5FFA307A1002C
:1017400093F7F70FE30885FE13871400637EF40216
:10175000630E2503630E350371FD9374F70FE37B6E
:101760009AFC37450080A6851305056CEF10505094
:10177000EFF02FD7A5361145BDBF374500801305C3
:101780008568EF10F04E01A00545B5B70945A5B72E
:101790000D4595B701114AC84EC613195500896900
:1017A00021099387091026CACA9906CE22CC3E99F0
:1017B00081444E8585311314850042044A85418059
:1017C00091392A944204418019E8E39484FEF2405E
:1017D00062444249B2492685D244056182804E85E1
:1017E000153993148500C2044A85C1802531AA9415
:1017F000C204C180E39F84FAD9BF011189674AC836
:101800001319550021094EC6938907609387077005
:1018100026CACA9906CE22CC3E9981444E85DD3E29
:101820001314850042044A854180ED362A9442040F
:10183000418019E8E39484FEF24062444249B2498F
:101840002685D244056182804E85E9369314850051
:10185000C2044A85C1807D3EAA94C204C180E39F30
:1018600084FAD9BF797126D2AA841305803406D6AA
:1018700022D44AD04ECE52CC713E7DC19307200275
:10188000630BF5000545B250225492540259F249B7
:10189000624A45618280035681001DCE37090002ED
:1018A0000144370A00021309090EB7090002018E2C
:1018B0000357CA0B4206B30589009386090C41827F
:1018C0000945EF00B00E2A9442044180E34D05FA29
:1018D00003568100E31D86FC094505372314A1004A
:1018E00055D185679387078063EEA7083709000203
:1018F0002A861307A10074009305090E0945EF001D
:10190000D025E352A0F81316050141822314C1002B
:1019100089CC0357A10005661306068074002C00CD
:101920001305090E82940356810029DE370900024F
:1019300001441309090E018E0357A1004206B305A5
:101940008900740041820945EF0050062A94420440
:101950004180E34A05F203568100E31E86FC1DB771
:10196000056681461306A65C894509450D2689470B
:10197000E30AF5F0B250225492540259F249624AF5
:10198000456182802314F1003E858DB7011126CA7E
:10199000AA841305803206CE22CC4AC82317010040
:1019A000953C15C1CD47630AF50CDD47630CF50284
:1019B000F1476300F50C0544F24022856244D244AD
:1019C000424905618280056681461306965C85451D
:1019D0000545752C2A84F24022856244D24442494E
:1019E0000561828013058022353405894DE1054566
:1019F00029352317A1002A865DDD85679387078037
:101A000063F5A7002317F1003E863709000293050E
:101A1000090E054595252A84E350A0FA1316050101
:101A200041822317C10099C80566130606809305F5
:101A3000E1001305090E82940356E1002DDE3709FB
:101A4000000281441309090E29A00356E100E304B2
:101A500096F6058E4206B305990041820545D121CF
:101A6000AA94C2042A84C180E35105FE0545592683
:101A7000A1B7054511212A8481B7054551262A843D
:101A8000F24022856244D244424905618280854504
:101A900013058022DD3AA1BF11E28280011126CA1E
:101AA000931425004AC84EC613891400896952C48C
:101AB0000E09138A09404A9A52859389095006CE25
:101AC00022CC56C23284AE8A4E99EFF0BF94AA89D6
:101AD0004A85EFF03F94A209AA99C20993D9090156
:101AE000890422868E04139589004E94D685269506
:101AF0004204C9344180935584005285EFF0FF9829
:101B00009375F40F6244F240D244B249224A924A99
:101B10004A85424905616FF05F9711E282800111A9
:101B200026CA931425004AC84EC6138914008D692D
:101B300052C40E09138A09804A9A528593890990E2
:101B400006CE22CC56C23284AE8A4E99EFF09F8CDC
:101B5000AA894A85EFF01F8CA209AA99C20993D9D4
:101B600009018D0422868E04139589004E94D68532
:101B700026954204EFF07F99418093558400528569
:101B8000EFF0BF909375F40F6244F240D244B24933
:101B9000224A924A4A85424905616FF01F8F01111E
:101BA00026CA4EC6931455008D694AC8A1041389EC
:101BB000098026994A859389099006CE22CC52C481
:101BC000CE942E8AEFF01F852A842685EFF09F841D
:101BD000B305450122042E944204418093558400AC
:101BE0004A85EFF09F8A9375F40F6244F2404249B0
:101BF000B249224A2685D24405616FF01F894111FE
:101C000022C41314550026C2930484104AC0C1454F
:101C10002A89268506C62104EFF03F872685EFF046
:101C20006FFF6DFD13050420FD45EFF01F8637059E
:101C30000002B705000283D6050B0356250B854726
:101C4000B397270193C7F7FF7D8E37070002F58F03
:101C5000B7160002131819009386068E1307870A19
:101C6000C2964A972319C50A2398F50A23900600BD
:101C700023000700130404302285EFF0AFF96DFD57
:101C8000B240224492440249054541018280A14765
:101C900063E0A716797126D24AD04ECE52CC06D632
:101CA00022D485472A892E8AB289B6846385F510A5
:101CB0009387E5FF93F7F70F09476D556366F70CB8
:101CC00093F74600639C071099CA639AE50093F75F
:101CD000060391C793978601E18763D107104A8570
:101CE000393F13145900210493F504FFB365BA007A
:101CF0002285EFF08FF96381090A93D5890093F962
:101D0000F90F13050440EFF04FF8CE85130504508A
:101D1000EFF0AFF79309041085454E85EFF0EFF62D
:101D20004E85EFF02FEF6DFD3708000237050002FA
:101D30008356050B0356280B8547B397270193C796
:101D4000F7FF7D8E8588F58F37070002B7160002F2
:101D5000B3942401931519009386068E1307870AFE
:101D6000458EAE964A972319C80A2318F50A239080
:101D7000060023000700130404302285EFF08FE9EA
:101D80006DDD131589016185B250225492540259B8
:101D9000F249624A45618280B706000283D9C601D2
:101DA0004167411793871900C207C183638AE7021D
:101DB000239EF60099B70565130505F011466C00E2
:101DC000EFF0AFF4B2477555E1D393F7440099E7CC
:101DD000E38704F093F71402E39307F069556DB7B6
:101DE000F177239EF6009309F00E9305F00F11BFD3
:101DF0007D558280A14763F4A7007D55828001B59F
:101E0000A14763E5A706411122C41314550021041C
:101E100026C2AA84228506C64AC0EFF0AFDF3D89FC
:101E200085476311F504130904304A85EFF08FDE0E
:101E3000CD47631BF5021304041089452285EFF09A
:101E4000CFE42285EFF00FDD6DFD4A85EFF08FDCEA
:101E5000D147631FF5000545B24022449244024930
:101E6000410182806D55CDBF7555FDB77D5582808E
:101E7000268571337155CDB7A14763E2A70A411199
:101E800022C41314550021044AC02A89228506C69B
:101E900026C2EFF02FD83D8985476310F5089304DB
:101EA0000410A1452685EFF04FDE2685EFF08FD692
:101EB0006DFDB7060002B707000203D6060B03D775
:101EC000270B8547B397270193C7F7FFF18F335748
:101ED00027412398F60A93771700930404301304DC
:101EE000042091C721A8EFF0EFD2218911ED2685BA
:101EF000EFF04FD2AA872285FDF70545B240224474
:101F000092440249410182804A85D539B240224437
:101F1000924402494D55410182806D55C5B77D55AA
:101F20008280A14763E4A714797156CA931A5500B9
:101F3000A10A4AD02A89568522D466C206D626D25C
:101F40004ECE52CC5AC85EC662C46AC0AE8C3284D1
:101F5000EFF04FCC3D898547631EF510630A0410EE
:101F6000138A0A305285EFF0EFCADD476305F500AA
:101F7000F1476318F50C370D000283570D0BB3D7EB
:101F80002741858BC9E38549B39929010965130563
:101F900005F05695EFF00FC89314A5009397040130
:101FA000C1836373F400A284C204C1805D4B714C91
:101FB000B70B00024A85EFF0EFFD2A845285EFF05F
:101FC0006FC563046501631C850783D72B0BB3F7CB
:101FD0003701BDC363639404E6854A8526866D3C5C
:101FE000938A0A10930500025685EFF00FCA5685B2
:101FF000EFF04FC26DFD83570D0B2685B3E7370118
:102000002318FD0A21A893840A202685EFF08FC0AB
:10201000937705018DEB218931E50145B2502254BA
:1020200092540259F249624AD24A424BB24B224C74
:10203000924C024D45618280E36E94F671BF4A85F1
:102040007D3E6555E1BFC1452685EFF00FC483573E
:102050000D0B8549B399290113C7F9FFF98F23188F
:10206000FD0A2DB74A85613E4D554DBF7D55828095
:1020700049556DB76D555DB7A14763E5A7127971F5
:1020800026D293145500A10422D42A8426854AD04E
:1020900066C206D64ECE52CC56CA5AC85EC662C476
:1020A0006AC0AE8C3289EFF0EFB63D898547631D7B
:1020B000F50E6307090E0965130505E02695EFF097
:1020C0006FB5931BA50093970B01C1836363F90C54
:1020D000096BC20B0549130B0BF093DB0B01331992
:1020E0008900138A0430DD49B70A0002714C269B2F
:1020F0002285EFF08FF02A8D5285EFF0AFB1AA87DD
:102100002285638437056398870963170D04EFF010
:102110006FE82A8D5A85EFF0EFAF9317A500630C97
:10212000FD0683D72A0BB3F72701F9D30145B25037
:10213000225492540259F249624AD24A424BB24B5B
:10214000224C924C024D4561828083D72A0BB3F713
:1021500027018DCFE30C0DFC6A8663F3AB015E862D
:102160001319060113590901E68522854A86EFF005
:10217000DF9A93840410930500042685EFF0EFB0F6
:102180002685EFF02FA96DFD4A8555B7E3020DF6C0
:10219000E1B7CA8B35BF2285EFF07FA6655541BFF9
:1021A000495571B77D5582806D5551B7A14763E0A0
:1021B000A71A79714ECE93195500A1094AD02A89E0
:1021C0004E8522D426D252CC5AC806D656CA5EC6EE
:1021D0002E8B328A3684BA84EFF0CFA33D897915ED
:1021E000894763E8A71663080A1683471400034764
:1021F000040083462400A207D98F13978700A18388
:10220000D98FC207C18303473400A207B697A2073C
:10221000BA97638E071063820410938A093056853B
:10222000EFF04F9F930720046304F5029377F50EB8
:10223000130720026555638DE700B2502254925473
:102240000259F249624AD24A424BB24B45618280FE
:10225000856B13850BC01146A2854E95EFF08FB5A7
:1022600093D5840033857901EFF02FA213850B10ED
:1022700093F5F40F4E95EFF04FA10965130505F0A6
:102280004E95EFF02F999314A50093970401C18305
:10229000636DFA084A85EFF0EFCFC204054A2A843D
:1022A0005685C180331A2A01B70B0002EFF08F96D2
:1022B0003DC183D72B0BB3F74701A1C763619408D6
:1022C000DA854A852686EFF02FFD138409109305E1
:1022D00000022285EFF06F9B2285EFF0AF936DFD3A
:1022E0009389092011A031ED4E85EFF0AF929377DD
:1022F00005012189EDDB4E85C145EFF00F9926855B
:102300002DBFE37F94FA4A85EFF0CFC82A84568523
:10231000EFF04F9059FD71550DB74E85EFF08F8F4F
:102320001189E31C05EE555509BFD284A5B74E852A
:10233000EFF04F8E1189E31005EE5155FDBD0145BB
:10234000EDBD4E85A145EFF04F944D55FDB57D5542
:1023500082806D55DDB54955CDB51D7186CEA2CCB7
:10236000A6CACAC8CEC6D2C4D6C2DAC05EDE62DC95
:1023700066DA6AD86ED6A1473AC663E7A72A9314ED
:102380005500A1042A892685AE8C328C368DEFF05B
:102390006F889377F500F9170947AA896368F728CA
:1023A00063080C28371A0002130A0A8E931D1900BD
:1023B000B307BA0183D70700F9EB4A85EFF0EFC303
:1023C000138B0430854A2A845A85B39A2A01B70BA5
:1023D0000002EFF02F84630C051483D72B0BB3F7A7
:1023E0005701638B07126309041693F979008D472F
:1023F0006386F91691476383F91C8947A28A63941F
:10240000F90AB307BA0183D70700938404106398CD
:1024100007202C084A852146EFF02FF09305000491
:102420002685EFF08F862685EFE0DFFE6DFD835772
:10243000E1010357C1018348810193968700034856
:1024400091010345A1018345B101A183D58FB24616
:10245000131687002183B709000223001D01A30082
:102460000D012301AD00A301BD00518F9389890A9D
:102470002390E600C2073307BA01C183B38629015E
:102480002310F700130700F82380E6004DA8937986
:1024900075008D46638FD9089146638CD908814AAF
:1024A00001446388E908A2854A85EFF04FEFB3073E
:1024B000BA01B7090002239087009384041093891E
:1024C000890A930500042685EFE03FFC2685EFE0AE
:1024D0007FF46DFD6E9A83570A00818FC207C18316
:1024E0002310FA0099C7B387290103C507001365B4
:1024F0001500CA992380A900F6406644D64446498F
:10250000B649264A064BF25B625CD25C425DB25D24
:102510005685964A25618280E31904EC4A85EFF0DE
:10252000CFAD2A845A85EFE0FFEEE31805EAF15AB1
:10253000E1B7B7090002938404109389890A628481
:1025400063F387013E84420441802286E6854A8502
:10255000EFF0AFDCA28AB5B7814A79BFB307BA0101
:1025600083D7070093840410DDEB2C084A851946B5
:10257000EFF0AFDA930500042685EFE01FF1268522
:10258000EFE05FE96DFD8357C1010345810183459C
:1025900091010346A1018346B10113978700B70952
:1025A0000002A183D98F9389890A2300AD00A3007B
:1025B000BD002301CD00A301DD006DBDB307BA014D
:1025C00083D7070093840410B9EB2C084A85094689
:1025D000EFF0AFD4930500042685EFE01FEB2685CE
:1025E000EFE05FE36DFD834781018346910133078F
:1025F000BA01A207F916B697C207C1832310F700E4
:102600001307A05E6368F702B70900029389890A7D
:1026100033872901930600F82300D7000DB7B709C7
:1026200000029389890A21BFFD5AF9B5ED5AE9B52F
:10263000C95AD9B54A85EFF08FDC930A70C16DBDD8
:1026400082800345050082802300B5008280014519
:102650008280828082808280828009C981C9B70796
:1026600000029387C7038CCFC8CB8280B725008038
:1026700037250080B70700029387C70393858565D8
:10268000130565658CCFC8CB8280B707000293879E
:10269000C70303D707001377072011E301A009C57B
:1026A00081C58CD3C8CF8280B725008037250080B4
:1026B000938525651305E5648CD3C8CF8280797135
:1026C00022D405642C0813050490194606D6EFE0C1
:1026D000DFE36C00114613050010EFE01FE30C0868
:1026E000114613050050EFE05FE211464C08130558
:1026F00004F0EFE09FE1930500080145EFE0FFD80B
:102700000145EFE03FD12C08130504901946EFE096
:102710007FEA6C00114613050010EFE0BFE90C08DA
:10272000114613050050EFE0FFE84C08130504F0D4
:102730001146EFE03FE8B25022544561828001111A
:1027400022CC2A8426CA06CE4AC84EC6AE84853F0D
:1027500021CC8307040041476342F7022289130515
:1027600014009306840041466302D5020347050026
:102770000505BA97E207E187E358F6FEF2406244A6
:10278000D2444249B2497D550561828089691384EA
:1027900089F0A10983450900228513040402EFE0B2
:1027A000DFCE0509E31834FFB9C48387040041472D
:1027B000E346F7FC938514009386840026894146FE
:1027C000638CB60003C705008505BA97E207E18769
:1027D000E346F6FAE398B6FE8964138484E09384B2
:1027E00084F083450900228513040402EFE0FFC949
:1027F0000509E31894FEF2406244D2444249B249CA
:1028000001450561828001114AC82A899375050F27
:1028100042090565130505501359090122CC26CA42
:102820004EC606CE13598900EFE03FC693048020C0
:102830000144A14929A093840402630F3401B357D2
:102840008940858B0504E5DB2685FD45EFE0FFC368
:1028500093840402E31534FFF2406244D2444249B7
:10286000B24905618280411106C622C48345050034
:10287000034715008547FD1593B515009A05630FAD
:10288000F70403473500834625006304F704639487
:10289000F60093E505010D64130504E0EFE0FFBECB
:1028A000130504E0EFE01FB79375F507130504E087
:1028B000EFE0BFBD130504E0EFE0DFB5936505F879
:1028C000130504E02244B24093F5F50F41016FE097
:1028D000DFBB6388E60093E5850075BF93E585035C
:1028E0005DBF93E5850145BF411122C42A840D6572
:1028F000130505E006C6EFE0FFB113576540937777
:10290000850393060002058B6389D7049306800331
:10291000638CD702938607FF2300E400A300040022
:1029200013F7F60FC146E11763E9E60405472301F3
:10293000E40093F7F70F370701010507B357F700D6
:10294000858B8DE7814725A08547A300F4002300F0
:10295000E40023010400814719A88547A300F4007F
:102960002301F4002300E400E147F1B78547A30108
:10297000F400B2402244410182802301040093F715
:10298000F70F6147E379F7FA8147D5B7411122C4C0
:102990000D6426C2AA84130504E006C6EFE09FA7D3
:1029A00093770504C5CF85479375750C638DF40443
:1029B00093E58503130504E0EFE03FAD130504E064
:1029C000EFE05FA59375F507130504E0EFE0FFABBB
:1029D000130504E0EFE01FA4936505F893F5F50FE8
:1029E000130504E0EFE07FAA130504E0EFE09FA2E7
:1029F00013758503133515003305A040B2402244FA
:102A000092444101828093E50503130504E0EFE061
:102A1000DFA7130504E0EFE0FF9F9375F5071305AB
:102A200004E0EFE09FA6130504E0EFE0BF9E93658E
:102A300005F893F5F50F130504E0EFE01FA5130566
:102A400004E0EFE03F9DB2402244137505031335C7
:102A5000150092443305A040410182807D5579BF25
:102A6000BD4763EAA71AB74700809387074D0A0559
:102A70003E951C41411122C406C626C24AC02E847E
:102A800082870D65130505E0EFE0DF9893778503F6
:102A9000938707FD93B717002300F400B240224448
:102AA000924402490145410182802244B24092444D
:102AB000024903C505004101D1BD0D65130505E0BF
:102AC000EFE05F9505892300A400C9BFEFF03FBF89
:102AD000F1B7814519C09305840022852244B24094
:102AE000924402494101A1B9056913050950EFE07B
:102AF0007F92AA8413050970EFE0DF919317850098
:102B0000C198C207C18393F4F40FA697C207C1838B
:102B10001CC069B780410565130505609375F40F06
:102B2000EFE0BF9693150401C1810965A1811305EA
:102B30000580EFE09F959DB7056513050560EFE003
:102B40007F8DAA84096513050580EFE0BF8C2205FF
:102B500026954205418108C091B788416D313DBF3E
:102B600083D50500856413850430A181EFE0FF91D2
:102B70008345040013850440EFE03F9105B70569E4
:102B800013050930EFE01F89AA8413050940EFE01F
:102B90007F88A20426952310A40009B72E85E13171
:102BA000F5BD2E859133DDBDB70700029387C703BE
:102BB00003C727002380E50003C73700A380E50093
:102BC00003C747002381E50003C75700A381E50041
:102BD00003C767002382E50083C7770023830500CE
:102BE000A382F50065BD0D64130504E0EFE09F824C
:102BF0009375F507130504E0EFE03F89130504E042
:102C0000EFE05F81936505F893F5F50F130504E098
:102C1000EFE0BF8761B57D558280411126C2856492
:102C200022C4AA852A8419461385049006C6EFE0BB
:102C30007F989305E400114613050010EFE09F977D
:102C40009305A400114613050050EFE0BF969305CD
:102C500064001146138504F0EFE0DF95034634016C
:102C60008347240183464401034754012206C206D8
:102C7000D18F0C4C6207D58FD98FB24022443707D1
:102C80000002232CF70AB707000223AAB70A9244CE
:102C900041018280411126C2856422C4AA852A840A
:102CA00019461385049006C6EFE03F869305E400BD
:102CB000114613050010EFE05F859305A40011464F
:102CC00013050050EFE07F8493056400138504F042
:102CD0001146EFE09F83B70700021387870B83D667
:102CE000870B03572700B707000283A7470B231959
:102CF000D400231AE400B2401CCC22449244410187
:102D00008280954763ECA70AB747008093870751F5
:102D10000A053E951C41411122C406C626C24AC07E
:102D20002E84828783C505008964138504B0EFE093
:102D3000CFF58355240013850490A181EFE0EFF4D3
:102D400083452400138504A0EFE02FF40145B24031
:102D5000224492440249410182800969130509B065
:102D6000EFE04FEB2300A40013050990EFE08FEA9A
:102D7000AA84130509A0EFE0EFE9A2042695231128
:102D8000A400E9B72E85513DD1B72E8521377DBFEF
:102D90008041937754FC8DE30145EFE0AFE7B365E5
:102DA000850093F5F50F0145EFE02FEE45B701459E
:102DB000EFE04FE608C059BF7D5551BF7D55828079
:102DC000411122C42E84B74500809385856E26C2AA
:102DD00006C6AA84EF10A02801CDB745008055464D
:102DE0009385456F2685EF009060D1472310F4004E
:102DF000B2402244924441018280411122C42E8477
:102E0000B74500809385C57026C206C6AA84EF1018
:102E1000002501CDB745008035469385457126854F
:102E2000EF00F05CB1472310F400B240224492441A
:102E300041018280B707050003A70742411106C67A
:102E400022C41377070215C3B7460800984A938730
:102E500007401347072098CA375708009306000811
:102E60002326D7C21307000298CFB707050003A790
:102E70000742138407409377170089E7B240224442
:102E800041018280EFE0EFAF854737170500232C23
:102E9000F780B2401CCC224441018280397109473D
:102EA000930700F802C802CA02D002D20C080A85B1
:102EB000BD4606DE02CC02D402D62308D100230A86
:102EC000E1003ACEA301F1022302F102EF00B00CBF
:102ED000F25021618280856693860680F3B7463082
:102EE00037070500504BB717050093870780136617
:102EF000460050CB23AA07001306F03F90CF375669
:102F0000E80123A6070013060680D0C30546D0CBF0
:102F10001305F00F2322A74041657D15232CA74000
:102F20002320C74093050740216537470800232623
:102F3000A74037570800370500302322A7C01305E4
:102F40000008232AA7C02320A7C22326A7C013074F
:102F5000000298C573670430F3A6463090CB828098
:102F60004111371500023737080006C69307058F51
:102F70001307074098C30547D8C31307004023969B
:102F8000E700370701011307771098C71305058F6E
:102F900039472387E700EF00F02501E5B240410102
:102FA0008280B24037450080130545724101C9A1B6
:102FB0004111B707008006C622C426C293870700C6
:102FC00073905730B70705005D67D8CF1307B00877
:102FD000D8CBD847B73400803734008013678700D8
:102FE000D8C7BD3FB717000283A7078F0547D8CBC7
:102FF000753585653725080001478146214693854B
:1030000055D0130505806D28F93537450080130527
:103010004573B929EFE0AFE3374500801305C57963
:103020008129138504DCEFE07F961305A4DFEFE030
:103030007F83C5BF411122C437240800AA85130528
:10304000048006C6FD28130504802244B2404101D5
:10305000E5A00111B717080006CE02C402C6938787
:103060000740630BF500B7270800938707806305C7
:10307000F502F24005618280B70705000947D8CF05
:10308000930700063EC08A858547374508003EC243
:103090001121F24005618280B70705001147D8CFA2
:1030A000B707004093870730374508003EC08A8540
:1030B0008547130505403EC2F12EF240056182802E
:1030C000011122CC26CA4AC84EC652C42A8406CE52
:1030D0002E89B284368ABA89AD3FBD47014563FD6A
:1030E00027032320040023262401FD575CCC232240
:1030F00044012324340193E714001CC013F7440057
:1031000013F68400B7054000370520005C4C11EF32
:1031100019C2E98FE5DF0545F2406244D2444249D5
:10312000B249224A056182805C4CB3F6B700F9DEF1
:10313000E98F75D2EDF3CDBF5C4D93F70704EDDF5A
:1031400082800CD582801D71CAC886CEA2CCA6CA48
:10315000CEC6D2C4D6C2DAC05EDE62DC66DA6AD817
:103160006ED62A890345050059C9B74C0080130B58
:1031700050022E8A13041900130C0003930BA002B3
:10318000938C8C528A89930A00026311650B034564
:103190001900630F85259307D0026300F5260909FE
:1031A0000146631D752183240A00110A63D50400BA
:1031B000B304904009460345090005099377F50DCE
:1031C0001307C0046387E7021DC993070006AA8698
:1031D00063F6A700930605FE93F6F60F9387E6FBCA
:1031E00093F7F70F5947636BF7028A07E6979C43FB
:1031F00082870345090013664600050979F5F64004
:103200006644D6444649B649264A964A064BF25B7E
:10321000625CD25C425DB25D25618280213D0345E6
:1032200009001304190061DDE30365F721352289E4
:10323000FDB79375460003270A0093074A00638190
:10324000051E930540046394B600634E071E3E8A34
:10325000014EA94665A893774600638F071A032796
:103260000A00014E110A894655A003450A00110AB9
:10327000D13375B793774600638C071803270A008C
:10328000014E110AC14659A0832D0A00098A110A6C
:1032900003C50D006303051C014422870504B387A1
:1032A0008D0083C70700F5FB130D27000DE6637B38
:1032B000941A6A8413050002B53BA2870504E3EB68
:1032C00097FE014463F4A41703C50D00050D6A942D
:1032D000130D140011C5850DB13B03C50D0065FD2F
:1032E000E37F94F213050002EFF0DFD4EA87050DC7
:1032F000E3EA97FE2DB79377460063950710A14642
:1033000093074A0003270A00014E3E8A930780076D
:103310001D436314F500130370020145A54821A065
:10332000630154132285B375D7023A8893F7F50FDA
:103330003357D70263F5B8009A9793F7F70F130442
:103340001500B385890093870703A38FF5FEE37902
:10335000D8FC630C0E009307040233842700930704
:10336000D0022300F4FE13042500937D1600920D75
:10337000098A938D0D02130D140071EE637B940086
:103380006E85EFF03FCBEA87050DE39BF4FE138DCE
:1033900014004E940345F4FF7D14EFF0BFC9E39B86
:1033A00089FE13041D00E37C9DE613050002EFF087
:1033B0007FC8A2870504E39AF4FE95B5930705FD3F
:1033C00093F7F70FA54681442547E3E9F6DE939787
:1033D0002400A69786070509AA970345F9FF938459
:1033E00007FD930705FD93F7F70FE372F7FEF9B3B7
:1033F0000345290005460D096DB30345290009461B
:103400000D0945B303270A00014E110AA146FDBD6F
:10341000C14693074A00FDB5894693074A00DDB5CA
:1034200093054004E383B6E2A946E9BD03C50D0058
:103430003384A441050D6A94130D1400E31D05E8BF
:1034400045B57D4539B7136606013307E0403E8A2E
:10345000414EA94665BD228D2DBF054D01EAE39A77
:1034600004E475BB6A84130D3700B5B501448DBD06
:103470003971130341022ED29A8506CE32D436D644
:103480003AD83EDA42DC46DE1AC6EFF0DFCBF24035
:1034900021618280944137470800930707408A06DC
:1034A000898294C16300F510B7570800938707809D
:1034B0006306F500630FE50C0545828037130500B0
:1034C000930E03C2130EC3C1130383C10147854F7B
:1034D0000D4F9142CDCA931317003398EF00B317E5
:1034E0007F0033F6060193C7F7FF51CA411122C688
:1034F000C04103260300937834007D8EB398780092
:10350000336616012320C3006308540619E0232400
:10351000050103260E0083A8C50003A885007D8E43
:10352000B3987800336616012320CE0083A80E00DE
:1035300033167800B3F71701D18F23A0FE000507DB
:10354000B3D7E640B9C3931317003398EF00B3170E
:103550007F0033F6060193C7F7FF75D2C0410326FB
:103560000300937834007D8EB3987800336616019B
:103570002320C300E31C54F82326050159BF050787
:10358000B3D7E640A9FB01458280324401454101A1
:10359000828037130500930E83C0130E43C01303BC
:1035A00003C02DB737130500930E43C1130E03C19B
:1035B0001303C3C021BF8547AA86630BF50689475D
:1035C000630FF500054591C28280B7060600DC4A0C
:1035D0007D771307F73FF98FDCCA01458280930599
:1035E000004037A70700130707123706050011A090
:1035F00021C71C5E7D17F58FE5DFB7060600DC4AA4
:103600007D771307F73FF98FCD8FDCCA411102C6D2
:10361000B246930730061307300663C8D700B24797
:1036200085073EC6B247E35CF7FE01454101828053
:1036300085659385058075B70D4582809147630741
:10364000F50663EBA7048547630EF5048947631D00
:10365000F504A146014537A70700130707123706EF
:10366000050011A039C71C5E7D17F58FE5DF8A05BF
:10367000C98D41114CD202C6B246930730061307DA
:10368000300663C8D700B24785073EC6B247E35C41
:10369000F7FE014541018280A1476317F500894685
:1036A000094555BF914645BF0545828085460D4574
:1036B0005DB748D20D4582808547AA86630EF50620
:1036C0008947630FF500054591C28280B706060061
:1036D0009C4A7D771307F73FF98F9CCA014582808A
:1036E00085659385058037A70700130707123706FE
:1036F000050011A029C71C5E7D17F58FE5DF370790
:1037000006001C4BFD769386F63FF58FCD8F1CCBC4
:1037100085471CCF411102C6B246930730061307F6
:10372000300663C8D700B24785073EC6B247E35CA0
:10373000F7FE014541018280930500406DB70D45BC
:10374000828031C585476304F500054582800546C2
:1037500037A7070013070712B706050011A015CBFE
:103760009C5E7D17F18FE5DF4111C8D602C6B246D7
:10377000930730061307300663C8D700B2478507A2
:103780003EC6B247E35CF7FE01454101828009462F
:10379000C1B70D45828001114AC837090600832749
:1037A000490106CE22CC26CA4EC652C456C2F19B4F
:1037B000232AF90083270901AA84C845F19B2328FD
:1037C000F90083C735012E848A07232AF90083C7AD
:1037D00045018A072328F900F93B0C44AA8A0345CE
:1037E0004400A93D03470401B70705002A8A084C95
:1037F00098C303471401D8C30347240198C76D3DFC
:10380000AA89484C3D3F834704002A8793F6170056
:1038100099E68326490193E62600232AD90093F6E8
:10382000270099E637060600544A93E6160054CA64
:1038300093F6470099E637060600144A93E62600F9
:1038400014CAA18B99E7B70606009C4A93E71700B4
:103850009CCAF240624423A0540123A2440123A441
:103860003401D8C44249B249224A924A2685D244F8
:10387000056182801841011122CC06CE26CA4AC8B1
:1038800002C402C6B73708002A84630EF700B737B0
:10389000080093870740630FF706F2406244D24462
:1038A00042490561828013070010B70705008A842A
:1038B000D8CF1D498547A685374508003EC24AC076
:1038C000EFF05FBD8347E40035476388E70E63652B
:1038D000F70C638E270F2D47639BE70037450800E1
:1038E000A167A685130505403EC0EFF0BFBA5C4056
:1038F00021473AC005476393E7003EC4A685374594
:103900000800EFF03FB91840B73708009387074029
:10391000E315F7F813070020B70705003709004043
:10392000D8CF8A8493077900374508003EC0A68522
:103930008547130505403EC202C4EFF0BFB583477B
:10394000E40035476384E70A6363F7061D47638B2A
:10395000E7082D476395E700130909044AC0374576
:103960000800A68513050540EFF0DFB2B707004059
:103970005840A1073EC085476313F7003AC4374556
:103980000800A68513050540EFF0DFB0F240624461
:10399000D2444249056182803947E39AE7F4C1473E
:1039A000A685374508003EC0EFF0DFAE89B739473E
:1039B000E397E7FA41094AC05DB7374508009167C8
:1039C000A685130505403EC0EFF0DFAC0DB73755B7
:1039D000080093070004A685130505803EC0EFF09C
:1039E0007FAB31B7130909084AC095BF1309090213
:1039F0004AC0B5B763020510011122CC06CE2A8455
:103A0000953D1C405440D84B799BD8CBD84B13677D
:103A10008700D8CBD84B13674700D8CBD8433AC4DC
:103A20002247D84B799BD8CB23080400D84B799BED
:103A3000D8CBD84B13678700D8CBD84B1367470038
:103A4000D8CBD8433AC63247D1CE05470348940075
:103A50006398E6089318E800034784000345A40030
:103A60008345B4000346C4000E070A05498F860546
:103A700026064D8F518F336717010546558F630812
:103A8000C8068346E400AA06558F98C3984FB70628
:103A900001FFFD16758F98CF984FC1662146558F4F
:103AA00098CF984FC1769386F60F758F98CF984F21
:103AB000054598CF984F137707F098CF984F98CF38
:103AC0000347D400636AE60098D7232E040023221C
:103AD0000402232A04000145F24062440561828009
:103AE00081468DBFA304040081480148B5B79166A3
:103AF000938606C0558F51BF054582801441230728
:103B0000B50071779C421307F73FAA05F98FCD8F57
:103B10009CC282801441BD472307F5009C42116777
:103B2000130707C0D98F9CC2828003280500230891
:103B3000050010D10CCD54D154CD85452324B802B5
:103B4000032648014111AA87058A19E2232AB800F1
:103B500001468548054385EEC85331C98326480090
:103B600083264800C18A99CE83250802945385484C
:103B70002380B6008C53D45303A807008505FD1697
:103B80008CD3D4D36304C702D44F0506F1D6832562
:103B90004800918981C56382680481488326480072
:103BA000C18AEDD2D453E9F2E310C7FE0D45832755
:103BB00008001167F98F81EF83274801F99B232AB9
:103BC000F8008327480193E7C700232AF8008327DA
:103BD00048003EC6B247410182808C4FFD1603C5A6
:103BE00005008505232EA8008CCFD4CF7DB7B34721
:103BF000B5008D8BB308C500B1E78D4763F4C704EA
:103C0000937735002A87B9EB13F6C8FFB306E64071
:103C10009307000263C8D706AE86BA876371C702EE
:103C200003A806009107910623AE07FFE3EAC7FE4B
:103C30009307F6FF998FF19B91073E97BE956366B8
:103C4000170182802A87637E150383C70500050755
:103C50008505A30FF7FEE39AE8FE828083C6050080
:103C6000050793773700A30FD7FE8505D1DF83C6FD
:103C70000500050793773700A30FD7FE8505F9FFE9
:103C800061B78280411122C61304000283A305009C
:103C900083A2450083AF850003AFC50083AE050155
:103CA00003AE450103A3850103A8C5019451130781
:103CB0004702B307E640232E77FC232057FE23223A
:103CC000F7FF2324E7FF2326D7FF2328C7FF232A54
:103CD00067FE232C07FF232ED7FE93854502E3477B
:103CE000F4FAAE86BA876371C70203A8060091078B
:103CF000910623AE07FFE3EAC7FE9307F6FF998F0D
:103D0000F19B91073E97BE956365170132444101CF
:103D1000828083C7050005078505A30FF7FEE387AB
:103D2000E8FE83C7050005078505A30FF7FEE392AC
:103D3000E8FEE9BF130101BC232A91422328214355
:103D400023206143232C8141232E1142232C8142C5
:103D5000232631432324414323225143232E7141FF
:103D6000232A91412328A1412326B1418547368B3F
:103D70002A892E8CB28463F1D72E0146854C854664
:103D8000FD5B09A8B38C77413E868546B307D60014
:103D900063F76703338774013697B385F40083C5EF
:103DA000050003470700E3EFE5FC6386E514B28BEB
:103DB00085460506B307D600854CE3ED67FD8145D2
:103DC000054805467D55054709A83308A740BA852B
:103DD00005463387C50063776703B387C400B3869E
:103DE000E400AA9783C6060083C70700E3EFD7FC69
:103DF0006387D7102E85054685053387C50005489E
:103E0000E36D67FD0505850B63647501C28CAA8BA4
:103E10008A871307014023A067019107E39DE7FE0E
:103E200063050B021306FBFFB3059B00268726964E
:103E300083470700B306E64005078A0793870740D4
:103E40008A9723A0D7C0E395E5FE5E86B3859401EB
:103E50002685C126631F0510856993890980054A57
:103E6000814D0144B3066C41B3693B01130DFBFF67
:103E7000330A7A41B30A9B4163E88602330689001C
:103E8000B307A60183C707008A07938707408A976D
:103E900083A707C0ADCB63850D0063F39701D68779
:103EA0003E94814DE3FC86FC33058901CE853123A8
:103EB0002A9CB3066C41E3F386FC01458320C14391
:103EC0000324814383244143032901438329C142BD
:103ED000032A8142832A4142032B0142832BC141A1
:103EE000032C8141832C4141032D0141832DC1408D
:103EF000130101448280638A9615850641BD6303E0
:103F0000C8140506F9B56E8763F37D015E8763709B
:103F1000A703B307E4003388E400CA970345080009
:103F200083C707006311F5040507E364A7FF138740
:103F3000FBFF63E67D0139AA6381ED022A87B3079F
:103F4000E400B385E400CA9783C5050083C7070072
:103F50001305F7FFE382F5FE0507850D636AB70FCA
:103F60006694D68D11BFE374A7FD52943A94814DA7
:103F700021B7330A7B4163657A0D0564130404801D
:103F80008549050A814AB3066C4133648B00930C62
:103F9000FBFFB38979417D5D63E256033305590127
:103FA000B307950183C707008A07938707408A975D
:103FB00083A707C095CBBE9AE3F256FF330589016C
:103FC000A285E52E2A9CB3066C41E3E856EF330543
:103FD0005901B307950183C707008A0793870740F4
:103FE0008A9783A707C0E1FB5E8763E69B0125A054
:103FF000050763729703B3075701B385E400CA97B7
:1040000003C6050083C70700E304F6FE6375970146
:10401000CE9ABA9A51B79387FBFF6395A70179BDF2
:10402000E38EA7E93387FA003386F4004A97034604
:10403000060003470700FD17E304E6FED29AA9BF76
:104040005E8A25BFC295054669B3369685463DBB57
:104050003285ADB55E8711B7854C814B55BB1D715F
:10406000A2CCA6CA86CECAC8CEC6D2C4AE8483C5E8
:1040700005002A84DDCD03C61400630D061203C7B4
:10408000240069C303C534006301051483C74400D9
:10409000F9CB2685C9242A89936505202285312EEE
:1040A000636A250F9307E00F63E82715B3092541DD
:1040B00013060004930519000A85A299EFC08F89A1
:1040C000630609021376F90F2687B3059900269631
:1040D00083470700B306E640050793F7F703938786
:1040E00007048A972380D7FCE394E5FE7D14B30789
:1040F000240183C7070093F7F703938707048A9780
:1041000083C707FC3E9463F6890079A0529463E567
:104110008908B307240183C7070022854A8693F7DD
:10412000F703938707048A97A68503CA07FCD5205F
:1041300071FDF64022856644D6444649B649264A72
:104140002561828003470500C205D18D814739C3AF
:10415000C207A286D98F050403470400E399F5FE40
:104160001384F6FFF9B7939785014206834604004E
:10417000D18FC98F2207D98F91CE014719A06383B0
:10418000E704228622070504558F83460400E5FADA
:10419000638AE702014471BF338529018347050023
:1041A000F5DB856593850580092CAA99E3F089F4F0
:1041B000014441B76644F640D6444649B649264ACA
:1041C00025614DA01304D6FFADB783460400939735
:1041D00085014206D18F2207D98FCDDE014711A07C
:1041E000D5DA558F22862207050483460400E31999
:1041F000F7FE1304E6FF35BFAA8522856644F64024
:10420000B649264ACA8626864649D64425616FF0B5
:104210007FB28D4763F3C702B367B5008D8B8D46C0
:1042200089CB9306F6FF29A871161105910563F64F
:10423000C60018419C41E309F7FE9306F6FF0DC244
:104240008506AE9619A0638DD5008347050003C788
:10425000050005058505E388E7FE3385E740828094
:104260000145828093F6F50F93773500C1CE91CB4F
:1042700083470500D1C76386D708050593773500C6
:10428000E5FB93F5F50F93978500AE9718411393CF
:1042900007013363F3003708FFFE3346E3001308DA
:1042A000F8EFB3070701B30506011347F7FF1346FD
:1042B000F6FFF98FB788808033F7C500D98F9388D0
:1042C0000808B3F7170185E7584111053346670021
:1042D000B3070701B30506011347F7FF1346F6FFBF
:1042E000F98F33F7C500D98FB3F71701F1DF834793
:1042F000050099C76380F606834715000505FDFB99
:104300000145828081CB83470500E5DF0505937772
:104310003500F5FB18413706FFFE1306F6EF93470D
:10432000F7FFB78680803297F98F93860608F58F5E
:1043300091EB58411105B307C7001347F7FFF98FF9
:10434000F58FE5DB83470500CDDF834715000505C5
:10435000EDFF82808280937735002A879DEFB786B4
:104360007F7F9386F6F7FD5510431107B377D6008C
:10437000B697D18FD58FE389B7FE8346C7FFB307C2
:10438000A7408DCA8346D7FF9DC20345E7FF33355B
:10439000A0003E9579158280F9D283470700050772
:1043A00093763700F5FB098F1305F7FF828013859D
:1043B000D7FF82801385C7FF8280B306B500AA8726
:1043C00089E529A885076388F60003C707007DFBF8
:1043D0003385A74082803385A64082800145828054
:1043E0007A0C0080560C0080A00B00802C0C008002
:1043F000A00B0080A00B0080020C0080A00B0080AE
:10440000A00B0080A00B0080A00B0080A00B008000
:10441000A00B0080A00B0080A00B0080A00B0080F0
:10442000A00B0080A00B0080A00B0080A00B0080E0
:10443000A00B0080A00B0080A00B0080A00B0080D0
:10444000A00B0080A00B0080A00B0080A00B0080C0
:10445000A00B0080A00B0080A00B0080A00B0080B0
:10446000A00B0080A00B0080A00B0080A00B0080A0
:10447000A00B0080A00B0080A00B0080A00B008090
:10448000A00B0080A00B0080A00B0080A00B008080
:10449000A00B0080A00B0080A00B0080A00B008070
:1044A000A00B0080A00B0080A00B0080DA0B008026
:1044B000A00B0080D20B0080AA0B0080440F00806C
:1044C000F00E0080140F0080BA0E0080DA0E00801B
:1044D000CC2A0080D22A0080E82A00805A2B008053
:1044E000142B0080382B0080602B00807E2B0080F6
:1044F000A82B0080E62B00809C2B0080A22B008044
:104500009C2A0080AA2A0080822A0080BA2A008081
:10451000842D00808A2D0080902D0080AE2D00809B
:10452000242D00805A2D0080563200806A3200808F
:10453000323200801C3200801C3200801C3200802D
:104540001C3200801C3200801C3200801C32008033
:104550001C3200801C3200801C320080F632008049
:104560001C3200801C3200801C32008088320080A7
:104570001C320080323200801C3200801C320080ED
:1045800074320080434845434B5F49505F434F4E70
:10459000464C494354000000434F4E464C49435457
:1045A0002049502066726F6D20444843500A000035
:1045B0004448435000000000537461746963000074
:1045C0000A3D3D3D202573204E455420434F4E4625
:1045D000203A202573203D3D3D0D0A004D41433AD0
:1045E0002025643A25643A25643A25643A25643ADC
:1045F00025640D0A000000005349503A2025642E1E
:1046000025642E25642E25640D0A00004741523A88
:104610002025642E25642E25642E25640D0A0000B5
:104620005355423A2025642E25642E25642E256498
:104630000D0A0000444E533A2025642E25642E2591
:10464000642E25640D0A00003D3D3D3D3D3D3D3D50
:104650003D3D3D3D3D3D3D3D3D3D3D3D3D3D3D3D8A
:104660003D3D3D0D0A00000044484350204C45416B
:104670005345442054494D45203A20256C6420532D
:1046800065632E0D0A00000057495A4348495020DF
:10469000496E697469616C697A6564206661696CE8
:1046A0002E0A0000556E6B6E6F776E2050485920B1
:1046B0004C696E6B207374617475732E0A00000070
:1046C0003E3E2044484350202564204661696C6585
:1046D000640D0A0002020202020202020202020247
:1046E00002020202000000004869204D494B3332AB
:1046F00000000000486920557365722C20686F77B0
:104700002061726520796F75000000004772616E4C
:10471000697400004772616E697420573535303016
:10472000000000005350495F496E69745F45727222
:104730006F720A000D0A57616974696E6720666FAF
:104740007220616E2069702061737369676E6D6598
:104750006E74200D0A4966206E6F20616464726574
:1047600073732069732061737369676E65642C20AD
:1047700061207374617469632069702077696C6C5F
:104780002062652075736564200D0A576169742E77
:104790002E2E2E2E2E200D0A000000005374617262
:1047A000742E2E2E200000000000000000000000EB
:1047B0003C02008068020080FC01008057495A6E6C
:1047C000657400000F000000FFFFFFFF00C0000045
:1047D0000008DC00ABCEC0A801F5FFFF0000C0A8B8
:1047E0000001C0A8000100000200000001025735CE
:1047F0003530300000000000402600805426008044
:1048000056260080582600804226008048260080D8
:104810000000000000000000000000000000000098
:040000058000000077
:00000001FF
