:0200000480007A
:100000003741000213010100B70100029381010092
:10001000B76500809385058837660080130606ABB8
:10002000B70600029386060039A083A2050023A02C
:10003000560091059106E3EAC5FEB70500029385D7
:100040000523370600021306062421A023A005007D
:100050009105E3EDC5FEB7000080E7804007B700DB
:100060000080E7804007B7200080E78040DA730017
:100070005010F5BF8280000000000000000000006A
:100080000000000000000000000000000000000070
:100090000000000000000000000000000000000060
:1000A0000000000000000000000000000000000050
:1000B0000000000000000000000000000000000040
:1000C0006F004000197106C20AC40EC612C816CAD3
:1000D0001ACC1ECE22D026D22AD42ED632D836DA48
:1000E0003ADC3EDEC2C0C6C2CAC4CEC6D2C8D6CA78
:1000F000DACCDECEE2D0E6D2EAD4EED6F2D8F6DA28
:10010000FADCFEDE970000009380E00482909240CB
:100110002241B2414242D2426243F24302549254DB
:100120002255B2554256D2566257F2570648964863
:100130002649B649464AD64A664BF64B065C965C5B
:10014000265DB65D465ED65E665FF65F096173004A
:10015000203001A02A8309CA83830500230073008D
:100160007D16050385056DFA82802A8311C623005A
:10017000B3007D16050365FE8280370710007D17EA
:100180000111B377B70093D84601758F22CC26CAE8
:1001900013D4450193D4F501939537009357D501B6
:1001A0001374F47FCD8F93F8F87F9315370006CE44
:1001B0001357D6014AC84EC6FD824D8F0E050E0656
:1001C000B30514416398D4266352B012639E0806A7
:1001D000B366C700638906589386F5FFB9EE2A9681
:1001E000B336A6003E97B307D700370780007D8F50
:1001F00032856313072205441377750001CF137707
:10020000F50091466308D70013074500B336A700F1
:10021000B6973A85B7058000FD8D638F05540504B8
:100220001307F07F6304E408370780FF7D17F98F19
:100230000D819395D701C98DD5A91308F07F6399D6
:1002400005071304F07F4DBF9306F07FE306D4FA51
:100250009306800363C2B606B7068000558FAE864C
:10026000FD4563CED504130800023308D840B358C7
:10027000D600B315070133180601B3E5150133386D
:10028000000133E60501B356D7003295BE963336EA
:10029000C500B387C600370780007D8F31DF0504B6
:1002A0001307F07F631BE4161304F07F814791A2CC
:1002B00093058003E3D6D5FA81460546F9B79385C1
:1002C00006FE93080002B355B70001486388160183
:1002D000130800043308D840331807013368C800F6
:1002E0003338000133E60501814645B7DDC9B385E2
:1002F000884005E0B3E6A700638506469386F5FFD0
:10030000E38F06EC1308F07F639F0505BA873285FB
:100310000DBF9306F07FE38BD8FE9306800363C87E
:10032000B604B7068000D58FAE86FD4563C4D504FC
:10033000130800023308D840B39507013353D500A2
:1003400033180501B3E5650033380001B3E5050155
:10035000B3D6D7002E96BA96B335B6003285B3879A
:10036000B60046840DBF93058003E3D0D5FC8146DB
:100370008545CDB7938506FE13030002B3D5B700BC
:10038000014863886600130800043308D840339896
:1003900007013368A80033380001B3E50501814641
:1003A00055BF9306140093F5E67FB1E5B3E6A700C9
:1003B00005E8638C063AB366C700E38F06E22A9627
:1003C000B336A6003E97B307D700370780007D8F6E
:1003D0003285E30307E2370780FF7D17F98F21BDE0
:1003E00095D6598EE30F06E481441304F07FB707D6
:1003F000080081452DAE9305F07FE387B6EA2A9683
:100400003335A6003E972A971315F7010582518DC3
:10041000935717003684CDB30944370780FF7D1703
:10042000F98F135715000589498F1395F701598DD9
:100430008583D9B3635DB00C639F0802B366C700C0
:10044000638306329386F5FF81EE3306C540B336EB
:10045000C5003387E7403285B307D7400544B5A0D0
:100460001308F07FE38F05DD9305800363D1D50288
:100470008146054691A09306F07FE30FD4D69306FC
:100480008003E3C7B6FEB7068000558FAE86FD45F4
:1004900063C8D504130800023308D840B358D60007
:1004A000B315070133180601B3E515013338000110
:1004B00033E60501B356D7003306C5403337C500D0
:1004C000B386D7403285B387E64037078000B3F65E
:1004D000E700E38306D27D17B3F9E7002A8979AAFA
:1004E000938506FE93080002B355B7000148638860
:1004F0001601130800043308D84033180701336885
:10050000C8003338000133E60501814675B7F9C5E7
:100510003388884015E8B3E5A700638B052493056D
:10052000F8FF91E93305A6401D8F3336A600B307C7
:10053000C740B68425B71303F07F63136806BA87F4
:1005400032851304F07F55A89305F07FE389B8FE48
:100550009305800363CA0505B7058000CD8FC2856A
:100560007D486346B804130300023303B340335E8F
:10057000B50033986700331365003368C80133331F
:10058000600033656800B3D5B7003305A640B305F6
:10059000B7403336A600B387C5404684B68435B726
:1005A00013088003E35EB8FA81450545F9BF138857
:1005B00005FE130E000233D8070101436388C5010D
:1005C000130300043303B340339367003363A30082
:1005D0003333600033656800814545BF93051400DF
:1005E00093F5E57FADE533E8A700B365C70029E4DF
:1005F00063170800F1CDBA873285B684F5BEE38D66
:1006000005BEB308C540B33515013388E74033084C
:10061000B840B7058000B375B80089C93305A64056
:100620001D8F3336A600B307C740C1BFB3E508012D
:10063000C5C1C2874685C9B663180800638E051414
:10064000BA873285B684F5BEE38D05BE71BBB305AE
:10065000C5403338B500B389E740B389094137084D
:10066000800033F809012E89630008063309A6408B
:100670001D8F33362601B309C740B684638C090445
:100680004E85EF10C06A930785FF930600029D8E8A
:100690003397F900B356D900D98EB319F90063CB5B
:1006A000870A818F8507130700021D8F3395E600A7
:1006B00033D6F9003397E900518D3337E000598D77
:1006C000B3D7F60001440DBEB3E53501C5F90144C9
:1006D0008147C9A04A85EF108065930785017D4752
:1006E000E355F7FA6115B316A90063CA870233858B
:1006F000874093071500E358F7FA05151306000223
:1007000033D7A60001456387C700130500041D8D7C
:100710003395A6003335A000598D814765B71D8CF0
:10072000B70780FFFD17F58F9395D7018D8352048E
:100730003707F07FB207B183798C5D8CFE04B36715
:100740009400F2406244D2444249B2492E85BE85AB
:10075000056182801D8CB70780FFFD17F58F4E85E0
:1007600061BCBA8732852E8441BCBA87328569B4B0
:10077000BA873285428451B51397D7010D8193060C
:10078000F07F498F8D83631FD4005D8FB70708000A
:10079000E30C07B0814461BF81441304F07FB707C5
:1007A000080071B7BA8561B779715EC6B28B13D68E
:1007B000450122D44AD04ECE5AC81394C50006D65D
:1007C00026D252CC56CA1376F67F2A8B36893180D0
:1007D00093D9F50141C29307F07F6307F60C935656
:1007E000D5010E04C18EB707800033EAF6009314DA
:1007F0003500930A16C0014B935749011314C900E1
:1008000093F7F77F31801359F901F1C31307F07F94
:100810006389E7100E0413D7DB01418F3704800092
:10082000598C139F3B00938617C0814593172B006B
:10083000CD8F3386DA40FD17B94633C7290163E30C
:10084000F612975600009386A6A78A07B6979C4390
:10085000B6978287336AA40063020A0605C8228518
:10086000EF10E04C930755FFF546130785FF9D8E6B
:100870003314E400B356DB0033EA86003314EB0094
:100880001306D0C0B30AA640A284B5B7EF10204A21
:100890002A8A93075A01714713050502E356F7FCAC
:1008A000611A331A4B01E9BF336AA400630C0A00D2
:1008B000AA84228A930AF07F0D4B3DBF8144814A6E
:1008C000054B1DBF8144930AF07F094B35B7336F49
:1008D000740163010F061DC42285EF104045130704
:1008E00055FFF547930685FF998F3314D400B3D78E
:1008F000FB00C18F3394DB009306D0C0228F898E1A
:100900003E8425B75E85EF108042AA871387570182
:10091000F14613050502E3D6E6FCE117B397FB00A9
:10092000E1BF336F7401630B0F005E8F9306F07F9E
:100930008D45EDBD014481468545CDBD01449306FD
:10094000F07F8945E5B54E875284268F8947630637
:10095000FB368D47630CFB3485476310FB24014451
:10096000814631AE6366440163148A2A63E2E42B54
:100970009316FA0193D714001393F401135A1A0033
:10098000B3E4F600220493580401B35E1A039355AE
:100990008F01C18D139805011358080193D70401E5
:1009A00013158F00B3761A03330ED803C206D58F02
:1009B000F68663FCC701AE979386FEFF63E7B70038
:1009C00063F5C7019386EEFFAE97B387C741B3DEE9
:1009D0001703C204C180B3F71703330ED803C2074D
:1009E000DD8CF68763FCC401AE949387FEFF63E75A
:1009F000B40063F5C4019387EEFFAE94C206C163F1
:100A0000B3EFF600B384C441138EF3FFB3F7CF0105
:100A100013DF0F01935E0501337EC501B302FE02B1
:100A20003304CF0393D60201B387FE02A297BE968A
:100A3000330FDF0363F386001E9F93D70601FA97F7
:100A4000416F7D1FB3F6E601C206B3F2E20196964E
:100A500063E7F4007E846392F4046370D304330F7D
:100A6000A300B3326F00B383B2009E941384FFFFE0
:100A70007A8363E69500639295026390020263E6CF
:100A8000F400639C9700637ADF002A9F7A83333FE8
:100A9000AF002E9F1384EFFFFA94B306D3409D8CD2
:100AA0003333D300B38464407D5F6388950EB3DF36
:100AB000140393D70601B3F414037E83330FF803B2
:100AC000C204C58F63FCE701AE971383FFFF63E7A2
:100AD000B70063F5E7011383EFFFAE97B387E741F4
:100AE00033DF1703C206C182B3F717033308E803E5
:100AF000C207D58FFA8663FC0701AE979306FFFF06
:100B000063E7B70063F507019306EFFFAE97420373
:100B10003363D30093160301C18293580301338FCB
:100B2000C603B3870741338EC803B3881E03B38E51
:100B3000DE0293560F01F29EF69663F4C6014168F9
:100B4000C29813D806014698C168FD18B3F616017D
:100B5000C206337F1F01FA9663E607011A8F639C72
:100B6000070385CEAE97130FF3FFBE8863E1B7028C
:100B700063E6070163910703637DD500130FE3FF6D
:100B800013131500B338A300AE98BE981A8563946A
:100B900008016384A600136F1F009307F63F635F8D
:100BA000F00693767F0081CE9376FF0091456388AF
:100BB000B60093064F00B3B5E6012E94368FB70604
:100BC0000001E18E99C6B70700FFFD177D8C9307E2
:100BD00006409306E07F63C2F60E9316D401135FBE
:100BE0003F00B3E6E6010D8032043180D207B250F7
:100BF000C18F22547E0733E6E70092540259F2492E
:100C0000624AD24A424BB24B3685B28545618280F8
:100C10007D16014385BB4A872E8B0DBB854589CB4D
:100C20009D8D93068003E3CCB6D2FD4663CBB6041C
:100C30001306E641B357BF00331FCF00333FE00137
:100C40003316C400336FCF00B3E7E7013354B40069
:100C500093F6770081CE93F6F70011466388C600BD
:100C60009386470033B6F6003294B687B706800005
:100C7000E18EA9EA9316D4018D83DD8E0D80814724
:100C8000A5B78556B387F64013050002B357F400A5
:100C900081466386A5001306E643B316C400B3E697
:100CA000E601B336D000D58F01445DB737040800A4
:100CB00081469307F07F014705BF014481469307B2
:100CC000F07F1DB701448146854739BF13D84501E0
:100CD000370710007D1713D346011378F87F130EE2
:100CE000F07FB377B700AA88758FFD811373F37F08
:100CF000FD8205456305C801631EC3018280631C34
:100D00000303D98FD18FB3E7170195E7958D33355D
:100D1000B0008280054563106802639EE700639C13
:100D2000C8006389D50063180800B3E7170133359D
:100D3000F00082800145828093D7460113D345019C
:100D4000370710007D172A882A8E1373F37F13F557
:100D5000F77F9307F07FB378B700B28E758FFD8170
:100D6000FD826313F302B3E8080163970808630682
:100D700065000545C9C17D558280518F795525EFA4
:100D8000E399D5FE014582806315F502518F7955AF
:100D90003DE363080300E39ED5FC7D55A9CD2E8578
:100DA0008280B3E80801E39808FE7D55A9C6368520
:100DB00082806303030255DDE39DD5FAE34B65FAB8
:100DC000E34DA3FCE36717FBE399E8FCE3E3CEFB09
:100DD00001456372DE03D1B733E8080101C5E306BC
:100DE00008FC55BF598E11C6E30108FCE38CD5FC05
:100DF00049B7E31008F882807955828093D746017D
:100E000013D34501370710007D172A882A8E1373E4
:100E1000F37F13F5F77F9307F07FB378B700B28EB7
:100E2000758FFD81FD826313F302B3E808016397B8
:100E30000808630665000545C9C17D558280518F4C
:100E4000094525EFE399D5FE014582806315F5023A
:100E5000518F09453DE363080300E39ED5FC7D55B2
:100E6000A9CD2E858280B3E80801E39808FE7D5560
:100E7000A9C6368582806303030255DDE39DD5FA5A
:100E8000E34B65FAE34DA3FCE36717FBE399E8FC4A
:100E9000E3E3CEFB01456372DE03D1B733E808011B
:100EA00001C5E30608FC55BF598E11C6E30108FCD5
:100EB000E38CD5FC49B7E31008F8828009458280AD
:100EC000797156CA93DA450122D426D24ECE52CC3D
:100ED0005AC89394C50006D64AD05EC693FAFA7FE4
:100EE0002A84328BB689B18013DAF50163860A242D
:100EF0009307F07F638CFA288E049357D501C58F32
:100F0000B7048000DD8C13193500938A1AC0814B19
:100F100013D749011394C9001377F77F318093D910
:100F2000F901630707289307F07F630CF72C0E0481
:100F30009357DB01C18F370480005D8C930617C087
:100F400093173B00014513972B00B69A498FA9468A
:100F500033463A0193851A0063C1E630894663C37C
:100F6000E62C7D17854663FEE62C4168930EF8FF5C
:100F70009356090193D807013379D90133FFD7017B
:100F8000B307E9033383E60313D507013387280347
:100F90001A973A95338E160363736500429E135772
:100FA00005013375D501B3F7D70113580401B37E9A
:100FB000D40142053E95B30FD903B387D603330955
:100FC0002803338306033E9993D60F01CA9663F430
:100FD000F600C1673E93C16393D706019382F3FF86
:100FE0003E93B3F75600B3FF5F0013D90401B3F289
:100FF0005400C207FE97338428033E97B30F5F0265
:10100000B388580293D60F01330FE903FA98C696B6
:1010100063F3E6011E94B3835E0213DF0601C1642D
:10102000229F1384F4FFE18EC206B3FF8F00B69FA8
:10103000B30ED90393D60301B3082803330858022B
:10104000769836986373D801A698B3768800B3F380
:101050008300C20672979E963693B337F7009A972D
:10106000B336D30033B3670013580801B3E6660004
:10107000C2963308F7013E9F3337E8007A9733343E
:10108000FF00333FE7013364E401369446949357FD
:10109000770126045D8C93179800C98FB337F00051
:1010A000135878012607B3E70701D98F37070001E6
:1010B000618F630F071A13D71700858B5D8F931706
:1010C000F401D98F05809386F53F6355D01A13F745
:1010D000770001CF13F7F70011456308A7001387C6
:1010E00047003335F7002A94BA8737070001618F2C
:1010F00019C7370700FF7D17798C938605401307C2
:10110000E07F6348D7201317D4018D835D8F0D8056
:1011100032043180D206B250C18E22547E06B3E72B
:10112000C60092540259F249624AD24A424BB24B2B
:101130003A85BE854561828033E9A40063010906D2
:1011400085C82685EF00B03E130755FFF547930687
:1011500085FF998FB394D400B357F400C58FB314AF
:10116000D400930AD0C02689B38AAA40BE8445B36E
:10117000EF00F03BAA8713875701F14613050502DC
:10118000E3D6E6FCE117B317F400E1BF33E9A400AE
:10119000630B09002A89930AF07F8D4B95BB81442C
:1011A000814A854BB5B38144930AF07F894B8DB357
:1011B000B3676401B9CF1DC42285EF005037930691
:1011C00055FF7547930785FF158F3314F400335788
:1011D000EB00418F3314FB009306D0C0A287898EA9
:1011E0003A848DB35A85EF009034AA8793865701CD
:1011F000714713050502E356D7FCE1173317FB00CF
:10120000E1BFB367640191CBDA879306F07F0D45A8
:101210001DBB0144814605453DB301449306F07F63
:10122000094515B38546B396E60013F706530DEF4F
:1012300013F806246315080C93F68608E38706D294
:101240004E8609476307E50C0D476300E50C05472B
:10125000E31BE5E601440147ADA8BD466307D70A95
:10126000AD465286E30ED7FC2684CA875E85D1BF81
:10127000D68591BD054589CA158D13078003E34BBB
:10128000A7FC7D476349A7049385E54133D7A700B1
:10129000B397B700B337F000B315B400CD8FD98F33
:1012A0003354A40013F7770001CF13F7F7009146EA
:1012B0006308D70013874700B336F7003694BA8720
:1012C00037078000618F39EB1317D4018D835D8F51
:1012D0000D80814635BD0557158F13080002335721
:1012E000E4008146630605019385E543B316B40027
:1012F000DD8EB336D000B367D700014465B737043D
:1013000008009306F07F014621B537040800014725
:10131000CDBF014401479306F07FDDBB0144014787
:101320008546FDB3370810007D180111B378B80069
:1013300013D745019357D50122CC26CA1374F77FE2
:1013400093D4F50113973800B375D80013D846012C
:10135000D98F8E051357D60106CE4AC84EC61378CC
:10136000F87F9308F07F0E05FD824D8F0E06631007
:101370001807B368C70093051480638C0800368390
:101380006391D436638D051E6313045C1304F07FF0
:1013900059AA13C31600639E64346382051E7DD46C
:1013A000814701451304F07FB7068000FD8E6385F9
:1013B000065A05041307F07F630DE40C370780FF1E
:1013C0007D17F98F0D819396D701C98EA9A313C3F9
:1013D0001600B3050441639D6422635CB00E631A7A
:1013E0000804B366C700638706569386F5FF8DEE43
:1013F0002A96B336A6003E97B307D700370780007A
:101400007D8F32856318071E05441377750049DF09
:101410001377F5009146E309D7F813074500B33673
:10142000A700B6973A8549B7639715071304F07F6D
:10143000E9BFE30C14FD9306800363C2B606B7064A
:101440008000558FAE86FD4563CED504130800029B
:101450003308D840B358D600B31507013318060136
:10146000B3E515013338000133E60501B356D70063
:101470003295BE963336C500B387C6003707800065
:101480007D8F41D705041307F07F6316E41613041C
:10149000F07F81472DAA93058003E3D6D5FA8146D4
:1014A0000546F9B7938506FE93080002B355B700C9
:1014B000014863881601130800043308D840331824
:1014C00007013368C8003338000133E6050181465F
:1014D00045B7D5C5B306884031C49305800363C6BC
:1014E000D506B7058000CD8FFD4563C3D5069308AB
:1014F0000002B388D840B39517013353D500B31811
:101500001501B3E56500B3381001B3E51501B3D695
:10151000D7002E96BA96B335B6003285B387B6009B
:101520004284A9BF3684B3E6A70089CA9306F4FFB4
:10153000E38006EC9305F07F6315B400BA8732852B
:10154000E9B593058003E3D1D5FA81468545D1B746
:10155000938506FE13030002B3D5B7008148638864
:10156000660093080004B388D840B3981701B3E825
:10157000A800B3381001B3E51501814659BF9306A1
:10158000140093F5E67FB1E5B3E6A7001DE4DDD6D0
:10159000B366C700E38B06E62A96B336A6003E97ED
:1015A000B307D700370780007D8F3285E30F07E44C
:1015B000370780FF7D17F98F81BD638A0638598E02
:1015C000E30606E681441304F07FB707080081466E
:1015D000A1A69305F07FE38CB6EA2A963335A600E0
:1015E0003E972A971315F7010582518D93571700DF
:1015F000368421BD0944370780FF7D17F98F1357C3
:1016000015000589498F1395F701598D8583F5BB21
:101610006359B00E631D0802B366C700638C0632BF
:101620009386F5FF81EE3306C540B336C500338798
:10163000E7403285B307D740054495A0E38815DF1E
:101640009305800363DFD5008146054681A0E30E44
:1016500014DB93068003E3C9B6FEB7068000558FFE
:10166000AE86FD4563C8D504130800023308D84090
:10167000B358D600B315070133180601B3E51501B9
:101680003338000133E60501B356D7003306C540B1
:101690003337C500B386D7403285B387E640370776
:1016A0008000B3F6E700E38206D67D17B3F9E700C2
:1016B0002A8965AA938506FE93080002B355B700F0
:1016C000014863881601130800043308D840331812
:1016D00007013368C8003338000133E6050181464D
:1016E00075B7FDC521C4BA8732851304F07FB6846F
:1016F00029BBF9CD21C0814701451304F07F9A84AD
:1017000065B1F9C5B306884039E09A843684B3E6FA
:10171000A700E38506E29306F4FF99EE3305A640A1
:101720001D8F3336A600B307C74039B7B6841304FC
:10173000F07FF1BF9A84E5BF9305F07FE300B4E04A
:101740009305800363DDD5008146854535A8930563
:10175000800363CDD506B7058000CD8F9A84FD4503
:1017600063CFD50293080002B388D840B395170120
:101770003353D500B3181501B3E56500B338100134
:10178000B3E51501B3D6D700B305B640B306D740CD
:101790003336B6002E85B387C640428409B7938599
:1017A00006FE13030002B3D5B700814863886600C4
:1017B00093080004B388D840B3981701B3E8A80091
:1017C000B3381001B3E5150181467DBF9A84ADBFE2
:1017D0009306140093F6E67FBDE2B366C700B3E557
:1017E000A70021E499E563890618BA8732859A84AF
:1017F00029B9E38C06C03308C540B3360501B3856B
:10180000E740958DB7068000ED8E89CA3305A64066
:101810001D8F3336A600B307C740D1BFB366B800EB
:10182000638C0614AE874285CDB699E563880614AD
:10183000BA8732859A84DDBEE38A06BE61B3B306F9
:10184000C540B335D500B389E740B389B940B70582
:101850008000B3F5B9003689B1CD3309A6401D8F9C
:1018600033362601B309C7409A84638B09044E8539
:101870007D29930785FF930600029D8E3397F9001B
:10188000B356D900D98EB319F90063CB870A818F7B
:101890008507130700021D8F3395E60033D6F90044
:1018A0003397E900518D3337E000598DB3D7F600F7
:1018B0000144A1BEB3E63601CDFA814701445DA8DB
:1018C0004A85B521930785017D47E356F7FA6115EF
:1018D000B316A90063CA87023385874093071500B2
:1018E000E359F7FA05151306000233D7A6000145A0
:1018F0006387C700130500041D8D3395A60033359B
:10190000A000598D81476DB71D8CB70780FFFD176B
:10191000F58F9396D7018D83131744013706F07F17
:10192000B207F2406244718FB183FE04D98F33E76E
:1019300097004249D244B2493685BA850561828012
:101940001D8CB70780FFFD17F58F4E857DBCBA87CC
:101950003285E9BC2E8455BC1397D7010D8113063F
:10196000F07F498F8D836311C4025D8FB707080034
:10197000E30F07B081444DB78147EDBF81441304A5
:10198000F07FB707080049BFBA8679B7B7071000DC
:10199000FD1733F7B700D181F58F93F5F57FD1822D
:1019A0001308F07F93F6F67F63950501498F05458F
:1019B00009EB1307F07F01456395E600D18F3335BE
:1019C000F000828013D74501B70610009387F6FF19
:1019D0001377F77F1306E03FED8FFD816355E60433
:1019E0001306D0416358E600370500801345F5FF24
:1019F0002E958280D58F93063043998E7D46634D18
:101A0000D6001307D7BEB397E7003355D5005D8DD9
:101A100081CD3305A0408280930630413387E64074
:101A200033D5E700F5B701458280411106C622C4CF
:101A300026C221CD9357F54133C4A7001D8C935482
:101A4000F5012285ED241307E041A947098F63C8FA
:101A5000A702AD47898F5505B357F4003314A4008E
:101A60002685B207B18352077E055D8FB240B3670A
:101A7000A700228522449244BE85410182805515EB
:101A8000B317A40026850144E9BF01478147E5BF9C
:101A9000411122C406C62A841DCD512C1307E041F2
:101AA000A947098F63C4A702AD47898F5505B3576E
:101AB000F4003314A400B2402285B2072244520736
:101AC000B183B366F700B685410182805515B3171F
:101AD000A4000144CDB781470147F1BF4C451C45E7
:101AE0001441584101113EC43ECC93970501C18376
:101AF00036C03AC236C83ACA9396150018082EC6A0
:101B00003ECEC582FD8193084100BA873A88D0470E
:101B10008847F1170E067581498E90CBE39917FF20
:101B200042452166938716000E0579162AC8F18F63
:101B3000638A0718F17793870740BE969307E07F83
:101B400063CED71C6357D0086246F24752471358FA
:101B5000C6019207B3E707013ECA93174700C98F32
:101B600071831206B337F000518FD98F524713F6A5
:101B7000770001CE13F6F70011456308A60013861F
:101B800047003335F6002A97B28737068000798EF2
:101B900063040616370580FF7D1585061308F07F60
:101BA000798D01460147638806018D831316D5019F
:101BB0005D8E13573500B707F07FD2063207FD8ED2
:101BC0003183FE05D98EB3E7B6003285BE85056147
:101BD00082809307C0FC63CEF610F247B70E080070
:101BE000BA88B3EEFE009307D003B386D74013D66E
:101BF000564076CEFD8A0145814703A308000505BE
:101C00009108B3E76700E31AA6FE0D45118D9318FE
:101C1000260099EE330317010323030085062320D2
:101C200067001107E358D5FE11473306C74081A06E
:101C3000138308020A93032303FF130E0002330EDB
:101C4000DE403313C3014697B3E76700B308104182
:101C5000014F6348AF0411470A053306C740130715
:101C600005023305270033D7DE002328E5FE1147A0
:101C7000118F0A06B306C8000A0721466368C70029
:101C800023A0060023A206006117A1061146636483
:101C9000C70023A006004247B337F0008146D98F22
:101CA000F1B503230700832F4700B3021701335315
:101CB000D300B39FCF013363F30123A06200050F6C
:101CC000110741BFB1CED2476247F2463366F700F3
:101CD000558E498E29CA131647009206F1837183E7
:101CE000558FD18FB7064000558FE19B9306F07F4B
:101CF000BDBD8146954701478D831316D7015D8E83
:101D00009307F07F0D83E398F6EA598E0147E304C9
:101D100006EA370708000146814571BD9306F07F4A
:101D20000147014649BD01479306F07F69B5C16788
:101D30006376F5029337051093C717008E071307D4
:101D400000021D8F3355F500973700009387075B1E
:101D5000AA9703C507003305A74082803707000113
:101D6000C147E36EE5FCE147D9BF397106DE02C821
:101D700002CA02CC02CE02D002D202D402D623087A
:101D8000A1008947230AF1003ECE130700F8A30102
:101D9000E1022302E1023ED40C080A854D26F250EE
:101DA00021618280011106CEB7070080938707006A
:101DB000739057302945553FB70705003D67110718
:101DC000D8CF2147D8CBD8C7B74708001305002084
:101DD00088C71307004098C7371605000327C6C0F9
:101DE000B705FDFFFD156D8FC1654D8F2326E6C03C
:101DF0000327C6C0B705F4FFFD156D8FB7050400B6
:101E00004D8F2326E6C09306001023A6D74023A4B7
:101E1000A740B72508000567130757D023A6E5801C
:101E2000354723A0E5807D5723AEE5801147D8C70D
:101E3000032706C0136707032320E6C0B756080030
:101E40001167130737F2D8DE414798C798C3375553
:101E500000801305853FEF00F06CB7570800054779
:101E6000F8C3B7570800BC47EDDFB7570800EC4789
:101E70003755008013054540EF005058374708009C
:101E80001C4B93C707011CCB02C63247B7470F0054
:101E90009387F723E3C3E7FCB24785073EC6F5B750
:101EA000328501470DA0B727080093870780DC4FD4
:101EB00093F70708EDDBAE9683C60600B727080048
:101EC00023A4D7820507BA86E36FA7FC82807D55DD
:101ED000828001A08967DCC101458280054582803E
:101EE0007D15133515008280B7070002594723A8D6
:101EF000E7227D5582800145828001458280AA8744
:101F00003707000203254705B7060002938606241B
:101F10003717000213070724638DE6023307F50025
:101F2000B706000223AAE604B71600029386062429
:101F30006378D7003E97B707000223AAE7048280A0
:101F400037070002B717000293870724232AF704F4
:101F500082800145828085476301F50289476302DB
:101F6000F50219C105458280B7060600DC4A7D7777
:101F70001307F73FF98FDCCA828085669386068057
:101F800019A0930600400147B70705009C5FE98F41
:101F900091EB0507B7A707009387F711E3F6E7FE74
:101FA0000D4582804111370606005C4A7D77130794
:101FB000F73FF98FD58F5CCA02C621A0B2478507CB
:101FC0003EC6324793073006E3DAE7FE014541019A
:101FD000828091476308F50463EEA7028547630694
:101FE000F50489476316F502A14601450147B70785
:101FF00005009C5FF58F85EF0507B7A7070093875E
:10200000F711E3F6E7FEB7070500C8D30D45828058
:1020100005458280A1476315F50089460945F9B752
:102020000545828085460D45D1B79146C1B741111E
:102030008A05C98DB7070500CCD302C621A0B247D7
:1020400085073EC6324793073006E3DAE7FE0145CF
:102050004101828085476301F50289476301F502EA
:1020600019C105458280B70606009C4A7D77130793
:10207000F73FF98F9CCA82801306004021A00566B5
:10208000130606800147B70705009C5FE98F91EBB7
:102090000507B7A707009387F711E3F6E7FE0D459D
:1020A00082804111370706001C4BFD769386F63F70
:1020B000F58FD18F1CCB85471CCF02C621A0B2471C
:1020C00085073EC6324793073006E3DAE7FE01454F
:1020D0004101828011C585476306F5000545828070
:1020E000894611A0AA860147B70705009C5FF58FB6
:1020F00091EB0507B7A707009387F711E3F6E7FE13
:102100000D4582804111B7070500C8D702C6324786
:102110009307300663C6E700B24785073EC6C5BFD2
:10212000014541018280B707050088C38280B70757
:102130000500C8C38280B707050088C782804111A7
:1021400006C622C426C2AA842E8423200500232288
:1021500005002324050023260500B7070600D84BF9
:10216000719BD8CB984B719B98CB03C735010A075D
:10217000D8CB03C745010A0798CBC845E93B88C0BF
:102180000C4403454400B135C8C003450401613F18
:1021900003451401693F03452401713F084C5D3D2F
:1021A00088C4484C053FC8C483470400858B99E721
:1021B000370706005C4B93E727005CCB834704009E
:1021C000898B99E7370706005C4B93E717005CCBD8
:1021D00083470400918B99E7370706001C4B93E770
:1021E00027001CCB83470400A18B99E73707060023
:1021F0001C4B93E717001CCB2685B2402244924427
:1022000041018280397122DC4AD84ED652D456D24E
:102210005AD006DE26DA5ECEBA89AE8A3289368494
:10222000428B468A014763580600370700803349CE
:10223000C7001307D0022380E700937BFAFD9307C2
:1022400060048D466388FB009307500489466393BE
:10225000FB000504DA879308C10013088100228778
:10226000D6854A86EF00905D93077006AA846315B1
:10227000FA0493F9190063810902B38984000146C5
:1022800081465685CA85EFE07FA411E14EC613074B
:102290000003B24763E13707B2470647F250625482
:1022A000858F1CC34259B259225A925A025BF24B93
:1022B0002685D2542161828093077004E30BFAFAD9
:1022C00093076004B3098500E39BFBFA034705000D
:1022D00093070003631DF700014681465685CA85B2
:1022E000EFE0DF9E09C58547818F2320FB00832710
:1022F0000B00BE9969B79386170036C62380E700A6
:1023000049BF2300C5009307B00263D60500B3059B
:10231000B0409307D002A300F500A54763D4B706E9
:1023200041111307F1003A88294693083006B3E7B4
:10233000C502BA867D1793870703A38FF6FEAE8783
:10234000B3C5C502E3C5F8FE930725009388E6FFF1
:1023500093850503A30FB7FE3E864687636D07018D
:1023600001476365180113071101158FBA9733856B
:10237000A740410182808345070005070506A30F9A
:10238000B6FEE9BF930700032301F500938505031B
:1023900093074500A301B5003385A74082801971DA
:1023A00086DEA2DCCAD82E843A89D2D4D6D2DAD03C
:1023B000DECEE2CCE6CA328AB68AA6DACED6EAC841
:1023C000EEC62ACEEF103051832C05006685EF0053
:1023D0003016832B040002DC034B840113F70B102F
:1023E000832709002A8C71CB138747002320E9003B
:1023F0009C43081098433AD0D8433AD298473AD4ED
:10240000DC473ED6EFF08FEDAA8D2E8D17E7FF81CA
:10241000130747BF032907008329470093171D00AF
:1024200093D417002324B4052326A4054A86CE8618
:102430006E85A685EFF08FD541ED4A86CE866E85F6
:10244000A685EFE0BF9B6355A008014681466E85D7
:10245000EA85EFE0BF9A635605009307D002A30117
:10246000F40493077004173900001309E9FA63F6BE
:10247000670117390000130969FA8D4793FBBBFF09
:102480001CC823207401814972455687D286701872
:10249000A285CD26FD5B631075197D55F6506654F7
:1024A000D6544659B659265A965A065BF64B664C90
:1024B000D64C464DB64D096182809D07E19B13873E
:1024C000870083AD070003AD47002320E9003DBF2F
:1024D0006E86EA866E85EA85EFF04FCB05C56356BA
:1024E0000D009307D002A301F40493077004173979
:1024F00000001309E9F2E3F267F917390000130944
:1025000069F2A5BF5840FD57631AF70499475CC0AC
:1025100013E70B4018C03C183EC002C2544072453D
:1025200093073103EE85DA88130841036A86D939A7
:1025300093077006D2552A89631BFB02F55763C7C0
:10254000F5085C4063C4B708E25763CFF50A1C4046
:102550000CC8858BDDC79387150051A89377FB0DB9
:1025600093067004E396D7FA45F785474DB793076E
:102570007004631DFB00F55763C7F5005C40130B47
:102580007006E3D3B7FC130B500429A09307500641
:1025900063E16705FD155A86130504052EDA9533A8
:1025A00062578546AA89B307A7001CC863C5E60021
:1025B0001840058B19C385071CC883473103E38581
:1025C00007EC9307D002A301F4047DBD130B500662
:1025D000D1B793076006E319FBF65C40635BB0007C
:1025E0000CC881E71840058B09CF8507AE971CC83A
:1025F00009A889E718408546058B19C393862700EB
:1026000014C82CCC814955BF05476344B000094725
:102610000D8FBA97E9BF1C4013F7074015E3144824
:1026200072454A86D285829AE30975E71C40898BF8
:10263000639D0722F2574844E352F5E63E85B9BD53
:1026400013075006637C671928446C440146814691
:10265000EFE0CFE731E972458546173600001306F3
:10266000A6DCD285829AE30A75E36259D25763C524
:1026700027011C40858BDDDB7245E2866686D285AC
:10268000829AFD57E30BF5E081497D19130BA401F4
:10269000FD5BE3DD29F9724585465A86D285829A2B
:1026A000E30D75DF8509F5B7D2576347F00672452C
:1026B000854617360000130626D7D285829AE30E88
:1026C00075DD625BD257B367FB0081E71C40858BE9
:1026D000B1DF7245E2866686D285829AFD57E30EA7
:1026E000F5DA8149930BA4017D5CD257B307F04022
:1026F00063CBF900DA864A867245D285829AFD5705
:10270000E316F5F259BB724585465E86D285829AFC
:10271000E30585D98509D1BF625B832984056353AD
:102720003B01DA8963473007814D130DA401FD5445
:10273000832B8405CE8763D309008147B387FB4091
:1027400063C2FD06D25763C867071C40858BA5E7A7
:10275000D259B3077B41B3093B4163D33701BE89EB
:10276000634430070149930BA4017D5CD2574E8727
:10277000B307FB4063D309000147998FE358F9EA97
:10278000724585465E86D285829AE30885D1050921
:10279000F1BF7245CE864A86D285829AFD57E315EF
:1027A000F5F8E5B9724585466A86D285829AE306D0
:1027B00095CE850DB5BF7245E2866686D285829A32
:1027C000FD57E317F5F8D1B97245CE863306790186
:1027D000D285829AFD57E317F5F8C1B1625B0547D0
:1027E00085464A8663446701858B8DCB7245D285C9
:1027F000FD5B829AE30375CB7245E2866686D285DD
:10280000829AE30C75C928446C44014681467D1BBD
:10281000EFE0CFCB05C9DA86130619007245D285E1
:10282000829A631D750195B9724585465E86D2858B
:10283000829AE30485C70509E34869FFCE8613063B
:1028400004055DBD0149930BA4017D5CF5B772459C
:1028500085464E86D285829AE30165C505095C44AA
:102860007257998FE345F9FEF1B301499309940139
:102870007D5BF5B7797156CA9C49BA8A984522D4CE
:102880004AD04ECE52CC06D626D25AC85EC6AA89A7
:102890002E843289368A63D3E700BA872320F90071
:1028A0000347340401C785072320F9001C4093F730
:1028B000070291C78327090089072320F9000440F4
:1028C000998891E8130B9401FD5B5C440327090090
:1028D000998F63CCF40483473404B336F0001C4072
:1028E00093F70702A5EB13063404D2854E85829A2E
:1028F000FD576303F5041C4011478144998B63998C
:10290000E7004444832709009D8C63D3040081447D
:102910001C4418486354F700998FBE940149690418
:102920007D5B63982405014509A885465A86D285B2
:102930004E85829A631E75017D55B2502254925481
:102940000259F249624AD24A424BB24B45618280F7
:102950008504A5BF3307D40013060003A301C704F1
:102960000347540493871600A2978906A381E704BE
:102970009DBF85462286D2854E85829AE30E65FBF1
:10298000050945B7797122D44AD04ECE52CC06D62D
:1029900026D256CA5AC803C88501930780072A89D8
:1029A0002E84B289368A63E2070393072006938652
:1029B000350463E10703630A081C93078005173693
:1029C00000001306A6A66307F81493042404230149
:1029D000040515A89307D8F993F7F70F5546E36652
:1029E000F6FE173600001306E6A68A07B2979C4348
:1029F000B29782871C4393842504938647009C43A7
:102A000014C32381F50485475DA290411C431375CF
:102A100006089385470039C19C430CC3584063DCCA
:102A200007129305D002A301B40418C4635007042D
:102A3000B307F040173600001306469F2948B684B6
:102A400033F70703FD143297034707002380E400A0
:102A50003E87B3D70703E37507FFB1A89C431375FF
:102A600006040CC345DDC207C1874DBF6D9A10C077
:102A7000C1B78C41104313F505081C42110611E53E
:102A800093F5050499C1C207C18310C31307F0066B
:102A90001736000013068699631DE80A2148A30132
:102AA0000404584018C4E34C07F80C40ED990CC0DE
:102AB000D9F7B68449F7A147631EF8001C40858BFF
:102AC00091CB58401C4863C7E70093070003A38FCE
:102AD000F4FEFD14858E14C85287CE867000A28540
:102AE0004A85493BFD5A6318550D7D55B250225415
:102AF00092540259F249624AD24A424B456182805D
:102B00009C4193E707029CC1130880071736000019
:102B100013060693A30204050C40084313F80508A6
:102B20001C4111056318080013F80504630408002C
:102B3000C207C18308C313F7150001C793E5050257
:102B40000CC099C34148A1BF18401377F7FD18C0C6
:102B5000D5BF2948A9B7173600001306268D294886
:102B600089B790411C43CC49137806081385470068
:102B70006306080008C39C438CC301A808C31376EE
:102B800006049C4375DA2390B70023280400B6841A
:102B9000A1B71C43D04181459386470014C38443A9
:102BA0002685EF10E06419C1058D48C05C401CC843
:102BB000A301040415B714482686CE854A85029AD7
:102BC000E30555F31C40898B8DE7B2474844E35F2A
:102BD000F5F03E8521BF85465686CE854A85029A08
:102BE000E30565F185045C443247998FE3C5F4FE43
:102BF000E9BF8144930A94017D5BF5B75D7122D4EE
:102C000006D62A842EDA32DC36DEBAC0BEC2C2C490
:102C1000C6C617D5FF810325654419C51C4D89E734
:102C20002AC6EF10203432450C455418228636CE81
:102C3000EF206006B250225461618280011126CAE1
:102C400006CE22CC4AC84EC652C4AA8419E11C45FD
:102C500002901C4D2E89A1E3EF10C0309C4C8044A3
:102C60008DCF973700009387A792631CF402C04072
:102C70008357C400A18B99C31C48D1EBA28526853C
:102C8000612251C57D55F2406244D2444249B24965
:102C9000224A056182800045E9B72685EF10802C25
:102CA000C9B7973700009387A78C6314F40080445A
:102CB000C1B7973700009387A789E31BF4FAC04494
:102CC00045BF1CC4050963C907021C4013871700D0
:102CD00018C02380B7001C4483450900FD17F5F197
:102CE0001CC463D907022286A94526859928FD5769
:102CF000E30AF5F8294541BF184C63C4E700E396A1
:102D000045FD228626853528E31735FDA5BFFD59EB
:102D1000294AD1B71C401387170018C029472380C0
:102D2000E700C9BFAA8517D5FF810325253339B729
:102D3000AA8703C7070085076DFF3385A7407D1568
:102D40008280011122CC26CA4AC806CE4EC6AA8469
:102D50002E89328409C51C4D99E3EF10A0209737C6
:102D600000009387E7826318F402C0401C4C1CC427
:102D70008357C400A18B99C31C4895EFA285268573
:102D8000612015C97D59F2406244D244B2494A8556
:102D9000424905618280972700009387677D63140D
:102DA000F4008044E1B7972700009387677AE31F18
:102DB000F4FAC04465BF1C4808409379F90F1379B1
:102DC000F90F1D8D5C486347F500A2852685EF103D
:102DD00060074DF91C440505FD171CC41C401387F2
:102DE000170018C0238037015C486389A700835708
:102DF000C400858BC9DBA947E317F9F8A2852685AE
:102E0000EF10400449D1BDBF411122C426C24AC0BF
:102E100006C697D4FF8183A464242A892E8491C492
:102E20009C4C81E72685EF10E013972700009387DD
:102E300027766314F402C0408317C40013F7870099
:102E400035EB13F7070115EB25472320E90093E73E
:102E500007042316F4007D5569A89727000093877F
:102E600027716314F4008044C1BF97270000938743
:102E7000276EE313F4FCC044C1B7918B95C74C583F
:102E800091C9930744046385F5004A85EF105042C9
:102E9000232A04028357C4002322040093F7B7FDBA
:102EA0002316F4001C481CC08357C40093E7870016
:102EB0002316F4001C4889EF8357C4001307002031
:102EC00093F707286386E700A2854A85EF1000275D
:102ED0008317C40013F717001DC3584823240400A8
:102EE0003307E04018CC1848014501E713F70708FD
:102EF00039FFB2402244924402494101828013F7D3
:102F00002700814611E3544814C4F1BF011122CCBB
:102F10001C49804906CE26CA4AC84EC652C456C26B
:102F200063CC87107D1413162400938A4501338ADD
:102F3000CA009309450183270A004E961842850767
:102F40002A89B354F7026364F70641684E83D68832
:102F5000014E814E7D1803A70800910811033375B7
:102F60000701418333059502330797027295935702
:102F70000501337505013E978327C3FF135E0701E3
:102F800033770701B3F60701898EF696C183998FCF
:102F900013D70641BA9793DE0741B3F60601C2077D
:102FA000DD8E232ED3FEE3781AFB1C42BDC74A8573
:102FB000EF103005634605044166CE85D68601488C
:102FC0007D1688429C419106B378C50033F7C7004F
:102FD0003307174142974181C183898F13550741B8
:102FE000AA9713D80741718FC2075D8F98C19105C9
:102FF000E379DAFC93172400CE97984305CB850438
:103000002685F2406244D2444249B249224A924A59
:10301000056182801C4289E77D147116E3ECC9FECC
:103020002328890069B7984309E77D14F117E3EC79
:10303000F9FE23288900E1B70145E1B775713ED655
:103040005C5122C526C34AC1CEDED6DADAD806C71D
:10305000D2DCDED6E2D4E6D2EAD0EECE2AC03ACA3C
:1030600046CEAE84B289368442892E8BB28A85EFF1
:103070004145EF1000178247C8D311ED9726000095
:103080009386C64301469305A00E1725000013053D
:103090006544EF10F07B2322050023240500232044
:1030A0000500232605008247DC538C4391CDD8438D
:1030B00002458547B397E7009CC5D8C1EF10A01F14
:1030C0008247DC5323A0070063D7090685472320E6
:1030D000F9009397190093DA1700B707F07F33F7D9
:1030E000FA00631DF70432578967B20A9387F770B5
:1030F00093DACA001CC3B3EA9A00E38B0A3EF24794
:10310000972B0000938B4B3B99C797270000938721
:10311000D73A72471CC3BA402A449A440A49F6591E
:10312000665AD65A465B265C965C065DF64D5E8511
:10313000B65B496182802320090045B7014681467C
:103140002685D685A68B26D256D0EFD03FB80DE186
:10315000325785471CC3F24799C77247972700002B
:103160009387972C1CC3972B0000938BEB2B65B791
:103170000245B800F4005686A685EF10500213D918
:103180004A012AC21379F97FA649630009128257BE
:103190003707F03F130919C0B207B183D98F02DA9C
:1031A00017D7FF81130787E6104354435E85BE851A
:1031B000EFE04F9797D7FF819387C7E59043D443BC
:1031C000EFD01FD097D7FF81938747E59043D44333
:1031D000EFC0BFFAAA8B4A85AE84EFE01F8597D770
:1031E000FF81938727E49043D443EFD07FCD2A8695
:1031F000AE865E85A685EFC05FF82A8CAE8BEFE0C9
:103200006FFCAA84014681466285DE85EFD01FBF30
:10321000635B05002685EFE05F816286DE86EFD086
:10322000FFAA11C1FD140547D9473AD463E39702B9
:10323000139734009727000093874741BA9790432C
:10324000D44312558255EFD07FBB63530500FD1464
:1032500002D4B3892941138AF9FF814C63560A00CD
:10326000854CB38C3C41014A63C20408269A26CCA3
:1032700002C8A54763E48710954763D08708711497
:1032800011476301E40A6305F40E89470149630F9E
:10329000F40C0D4402C6D247A6973EC4138C170007
:1032A000E287634C8009854749A8364993070002A5
:1032B0004E991307294363D7E70293070004998FB8
:1032C00013072941B397FA0033D7E40033E5E70049
:1032D000EFE00FFCB70710FE0547AA8BAE977D19EC
:1032E0003ADA7DBD998F3395F400DDB7B30790408E
:1032F000B38C9C403EC802CCADBF11476305E406C9
:10330000630CF40689476302F4068D4702C605493B
:10331000E303F4F885473EC6FD573EC47D5CC947CC
:1033200002CA21A8014985473EC6D247634BF00433
:10333000854705473EC4054C3ACA02478145545368
:1033400011471306470163F2C7040245CCC2EF00E0
:10335000D06BAA8B15ED972600009386261E01469A
:103360009305A01A1DB305497DBF054902C675BF67
:10337000014985473EC605B70549E5BF05490144F2
:1033800051BFD2473EC43E8C4DBF8505060755BF91
:103390008247DC5388C3B94763EC870F630A090E81
:1033A0006354900813F7F4000E07972700009387E3
:1033B000E729BA9793D9444083AD070003AD47008E
:1033C00093F70901094985C397270000938787254B
:1033D0009053D4531255825593F9F9000D49EFD00B
:1033E000AFBC2A8BAE8A972700009387A723639BE5
:1033F00009006E86EA865A85D685EFD0EFBA2A8B09
:10340000AE8A8DA013F7190001CF9043D4436E8587
:10341000EA853ED8EFD0DFAAC2570509AA8D2E8DC6
:1034200093D91940A107E1B709498DCCB309904060
:1034300013F7F9000E079727000093872721BA9703
:103440009043D4431255825593D94940172D00001B
:10345000130D4D1DEFD0DFA62A8BAE8A81476395F1
:10346000091AD1FFA2576387072897D7FF8193874F
:10347000E7BB9043D4435A85D685EFD03F98635B32
:103480000526630C0C26A247634FF018125B825A84
:10349000B64763C5070039476353974C3247631EED
:1034A0000750C249E68D0149638E0D00635C4001FF
:1034B000EE876353BA01D287B38CFC40B38DFD40D5
:1034C000330AFA40C247B9C3B247638F0758124D57
:1034D000638809020245CA854E86EF10C015AA8589
:1034E00012462A890245EF00707D2A8D92450245D9
:1034F000EF00705CC2476AC2B38737413EC899C7C4
:103500004246EA850245EF1000132AC2024585456E
:10351000EF007077E247AA89638B0754AA850245BA
:103520003E86014DEF1020118547AA8963C48700AC
:1035300063040B5483A709018D078A07CE97C843FC
:10354000EF00F068930700023385A7406ACC5295DC
:103550007D89630A055493070002898F11476350E0
:10356000F754F147898FBE9CBE9D3E9A63589001E7
:10357000924502456686EF10E0182AC26358400162
:103580000245CE855286EF10E017AA89A2576385BF
:1035900007521245CE85EF10C026635F0550924555
:1035A000024581462946EF00F056B2472AC2138DE4
:1035B000F4FF638C074E0245CA8581462946EF0019
:1035C0007055A2472A896345F000894763CD874E2D
:1035D0006358B0010245CA856E86EF10A0122A8991
:1035E000E2474A8563830756832549000245EF0079
:1035F000D041AA84631D055297260000938606F4E5
:1036000001469305A02E51B413F7190009CB0326E8
:103610000D0083264D000509EFD09F8A854793D979
:103620001940210D2DBD97D7FF819387A7A0904307
:10363000D4435A85D685EFD0BF88A24D138DF4FFB1
:103640002A8BAE8A0509D6874A85BE893ED85ADCC0
:10365000EFE0AFBD5A86CE865ADE4EDCEFD05F86F5
:1036600097D6FF819386869D9042D442DA8AEFC036
:10367000DFB0B708C0FC2A88338BB80063920D080E
:1036800097D6FF819386069C9042D4422AD8CE8555
:103690005685EFD03FC94258DA86AA8942862E89DC
:1036A000EFD08FE96340A0304258B7070080B3C71E
:1036B00067014286BE864E85CA85EFD02FF4E35758
:1036C00005DC81490149D247DE8D13CDF7FF8144E6
:1036D0000245CE85EF00303E6300091A99C4638627
:1036E00024010245A685EF00103D0245CA85EF0082
:1036F000903C59A2268DE28DB9B7268D814DA1B798
:103700001387FDFF0E0797270000938727F4BA97CA
:103710008843CC43B387BB013ED8B247DDCF97D7B0
:10372000FF819387A7922A86AE868843CC4342DCEA
:10373000DE8DEFD06F87E258DA864686EFD09FBEE7
:103740002A8B2E89CE855685EFE0CFA72ADCEFE0C5
:10375000CFAD2A86AE865685CE85EFD0BFBC6257E8
:10376000850DAA8A13070703AE892A86AE86A38F22
:10377000EDFE5A85CA85EFD02FDC634FA00E97D798
:10378000FF819387A78A8843CC435686CE86EFD0A5
:103790007FB92A86AE865A85CA85EFD0EFD96344B1
:1037A000A024C2576383FD2097D7FF819387878822
:1037B0009043D4435A85CA85EFD08FF097D7FF81C5
:1037C000938747879043D4432A8B2E895685CE858D
:1037D000EFD00FEFAA8AAE89B5B7DA864286EFD06E
:1037E0002FEEC2572ADC2E8B3EDADE8DCE85568533
:1037F000EFE04F9D2ADEEFE04FA32A86AE86568586
:10380000CE85EFD03FB27257C257850D130707031D
:10381000A38FEDFEAA892E896392FD0697DAFF81B8
:10382000938ACA8203A60A0083A64A006255DA85F3
:10383000EFC0BF942A86AE864E85CA85EFD0CFCF23
:103840006343A01A625603A50A0083A54A00DA86DC
:10385000EFD05FAD2A86AE864E85CA85EFD00FDAEF
:103860006359050213070003D25D83C6FDFF9387EA
:10387000FDFF3EDAE38AE6FEEA84D1A097C7FF8126
:103880009387477B9043D443EFD08FE3AA8AAE89D6
:10389000B1BFB647125B825AE3C507C0B947E3C25E
:1038A00097C01397340097270000938727DABA97B9
:1038B00003A9070083A94700D24763D40700630226
:1038C0000C0C5A84568D138B1B005E9C97CCFF8189
:1038D000938C4C764A86CE862285EA85EFC0DFEC53
:1038E000EFE04F8EAA8AEFE04F944A86CE86EFD063
:1038F0002FDDAE862A86EA852285EFD0BFA2938689
:103900000A03A30FDBFEDA8D63156C112A86AE86DF
:10391000EFC0BF862A8C2E8B2A86AE864A85CE853E
:10392000EFD0CFCD6340050C6286DA864A85CE851E
:10393000EFD0CFB909E593FA1A0063950A0A9245C8
:1039400002458504EF003017B25723800D0084C371
:10395000F247638207FC23A0B7016FF0CFFB1397F8
:10396000340097270000938767CEBA9703A9070012
:1039700083A94700D247E3D607F4E34480F5E31276
:103980000CD497C7FF819387E76B9043D4434A8554
:10399000CE85EFD0EFD25A86D686EFD0EFB9E3527C
:1039A00005D2268D814901493DAAB647125B825A4C
:1039B00063C507003947E35497FA0547634B870609
:1039C00052579387374309E7264793076003998F38
:1039D000C249E68D02458545BE9C3E9AEF00B02A5D
:1039E0002A89D9B4268D6E8793069003BA8D034633
:1039F000F7FF7D176319D600E39AEBFE93060003E9
:103A0000050D2380DB008346070085062300D700D1
:103A1000A5B503A60C0083A64C00050BEFD04FCA3A
:103A2000014681462A842E8DEFD04FAAE31405EA81
:103A300039B7C2479309FCFF63C93701B3893741DE
:103A400063400C02E68DE28771B7C24762474EC8F9
:103A5000B387F940BA973ECCE68DE28781499DBF96
:103A6000B38D8C418147BDB74246924561BC054547
:103A7000E34F85ACE31D0BAC9397CA00014D91EB6E
:103A8000B707F07FB3FAFA0063850A00850C050AD0
:103A9000054DE247E39007AA6ACC05454DBCE38794
:103AA000E7ACF107C9B48147EDBFA247634AF00410
:103AB000894763CA8700A9A0634F8003894763DCF5
:103AC000870262C4268DA247E39F07BE0245CE85CA
:103AD00081461546EF001004AA89AA851245EF0019
:103AE0005052E352A0BE13071003938D1B00238096
:103AF000EB00050DE9BEB24762C4268DE39A07AC20
:103B000081441245CE85EFF06FC0B3879B00930CC4
:103B1000050323809701A247850463D4F4189245D6
:103B2000024581462946EF00E07E2AC2D9BF03261E
:103B300009019305C900310509060A06EFC08FE1A6
:103B400002450546A685EF00F03BA247CA84938A4A
:103B50001B00DE973EC493771B002A893EC61245A0
:103B6000CE85138AFAFFEFF06FBA2A8C930C050307
:103B70001245A685EF00F048AA8D02454A86CE85FB
:103B8000EF00904B5045AA8515CA0245EF00A07280
:103B900063D40D06924502450546EF00B036CE854A
:103BA0002AC2EF0010466346A00031E193F71C00E3
:103BB0009DCF930790036397FC0291A82ACA1245F0
:103BC000EF0030442AC8D2450245EF00C06E42469D
:103BD0002DE201ECB24791EB130690036389CC020E
:103BE0006357B001930C1C0319A063D10D06930D0C
:103BF0001A0023009A01E9BCB367B40189E7137B7B
:103C00001B00E3090BF893079003639AFC069307E4
:103C10009003130C1A002300FA0093069003E28D20
:103C200003C7FDFF7D1C630DD70A05072300EC00C9
:103C300045B463C80D00B367B40199E793771B00DF
:103C400081E7E349C0F465B7E34FC0FAA247A38F09
:103C50009AFF568C638E5705924502458146294648
:103C6000EF00406B2AC2814602452946A685639F24
:103C70002401EF00206AAA842A89850ACDB513871A
:103C80001C00930D1A002300EA0099B4EF0080682D
:103C9000AA840245CA8581462946EF00A0672A8981
:103CA000E9BFA247054C6353F0003E8C5E9C814403
:103CB000924502450546EF00F024CE852AC2EF006A
:103CC0005034E34CA0F401E513F71C0039F7130757
:103CD0000003E28D8346FCFF7D1CE38CE6FECDBA3B
:103CE000E39F8BF313071003050D2380EB00CDB288
:103CF0007247971B0000938B6B7B9717000093878D
:103D0000677B631807C06FF00FC18397C50001116F
:103D100022CC26CA06CE4AC84EC613F78700AA840C
:103D20002E8471E7D8416345E000B8416359E0084B
:103D3000585451C7B18303A90400858B23A0040004
:103D40000C50A1CF70488357C400918B99C75C4039
:103D50001D8E5C5899C33C401D8E5C540C508146AE
:103D600026858297FD57630EF5041C4805672322BC
:103D700004001CC08357C400F98F91C368C84C5815
:103D800023A024018DCD930744046385F500268587
:103D9000EF001052232A04021DA001468546268505
:103DA0000297FD572A86E310F5FA9C40C9DF754754
:103DB0006385E70059476395E70623A02401014581
:103DC000BDA098408317C40001CFF5466305D70016
:103DD000D9466319D7041C48232204001CC045B7E8
:103DE0001848B1832322040018C0858B79B783A9B2
:103DF0000501E38609FC03A905008D8B23A035018D
:103E000033093941014791E3D84918C4E35920FBEC
:103E10001C540C50CA864E86268582976340A002A9
:103E20008317C40093E707042316F4007D55F2407E
:103E30006244D2444249B24905618280AA99330959
:103E4000A940E9B79C49B9CF011122CC06CE2A84FA
:103E500011C51C4D81E72EC63122B24597170000CF
:103E600093870773639BF5004C408397C50095C704
:103E700022856244F240056149BD9717000093878F
:103E8000276F6394F5000C44CDB797170000938714
:103E9000276CE39CF5FC4C44C9BFF24062440145E9
:103EA0000561828001458280411122C406C62A84B0
:103EB0002316B5002317C500232005002322050083
:103EC000232405002322050623280500232A0500B4
:103ED000232C0500214681451305C505EFC0EFA839
:103EE00097170000938727085CD0971700009387E7
:103EF000870A1CD4971700009387C70E5CD49717C6
:103F0000000093878711B24000D01CD822444101A1
:103F1000828097050000938525F389AA411126C266
:103F2000930780069384F5FFB384F4024AC02E8978
:103F300022C406C693854407EF00B0412A8401CD10
:103F40002320050023222501310508C41386840699
:103F50008145EFC08FA1B24022852244924402499C
:103F6000410182801C4DBDE3411122C406C6970762
:103F70000000938747FA1CD5232405042326050453
:103F80002328050497C7FF8183A7C70C2A846314DD
:103F9000F50085471CCD22851D2848C022850528AF
:103FA00008C422852D2048C4484001469145ED3D76
:103FB00008440546A545CD3D48440946C945ED356B
:103FC0008547B2401CCC224441018280828041114D
:103FD00026C297C4FF8183A4E4079C4C4AC006C64E
:103FE00022C42A8999E32685B53F938484048044BA
:103FF000DC40FD1763D607009C40B9CF8440C5BFA5
:104000000317C40039E7C17785072322040623205C
:10401000040023220400232404005CC42328040099
:10402000232A0400232C0400214681451305C405DE
:10403000EFC0AF93232A0402232C04022324040498
:1040400023260404B24022852244924402494101BD
:1040500082801304840671BF91454A85C13588C0AA
:104060002A8449FDB1472320F900E9BF797122D4A0
:104070004AD04ECE52CC5AC85EC606D626D256CAB2
:104080002A892E8A130485048149054BFD5B04446B
:10409000832A4400FD1A63D00A0200406DF8B25032
:1040A000225492540259624AD24A424BB24B4E8534
:1040B000F2494561828083D7C400637BFB0083970C
:1040C000E40063877701A6854A85029AB3E9A900CF
:1040D00093848406C1B717C5FF811305650D8280DF
:1040E0005971A2D42E848395E500A6D2CAD086D673
:1040F000B284368963D305028357C40093F7070857
:1041000095EB13070040B65026542320F90098C0C1
:10411000065996540145656182803000EF00907C1D
:10412000E34C05FC3247BD67F98F7977BA9793B7AF
:104130001700C1BF814713070004F1B783D7C5003B
:10414000797122D406D626D24AD04ECE898B2E84BF
:1041500091CF930774041CC01CC885475CC8B2503B
:10416000225492540259F249456182807400300011
:10417000AA84BD37A2492A892685CE85EF00701D05
:1041800001ED8317C40013F7072071FBF19B93E740
:1041900027002316F40075BF970700009387A7D761
:1041A0009CD48357C40008C008C893E707082316A7
:1041B000F400B247232A340191CF8315E400268509
:1041C000EF00707501C98357C400F19B93E7170096
:1041D0002316F4008357C40033E527012316A400F7
:1041E000BDBFAA8517C5FF81032545E76F0070167F
:1041F00093F5F50F2A966314C50001458280834725
:104200000500E38DB7FE0505FDB75C51411122C4E1
:1042100026C206C64AC02A84AE8495EB4145D137F2
:1042200048D011ED97160000938646290146930564
:104230006006171500001305A537EF0070612322F3
:10424000050023240500232005002326050003295B
:1042500044028327C9009DC75C5013972400DC47A4
:10426000BA97884331E1054933199900130659007B
:104270000A0685452285EF00700005C144C123244C
:1042800025012DA01306100291452285EF00007F25
:104290005C502326A900DC47E1F30145B2402244EB
:1042A0009244024941018280184198C323280500A5
:1042B00023260500E5B75C51411122C426C206C67B
:1042C000AA842E8495EB4145293FC8D011ED97165D
:1042D00000009386A61E01469305A008171500004E
:1042E0001305052DEF00D0562322050023240500D9
:1042F000232005002326050009C8DC505840DC4770
:104300000A07BA97984318C080C3B2402244924427
:1043100041018280011122CC4AC84EC603A9050181
:104320002E84B68993864501C16526CA06CEAA8425
:1043300052C40145FD159C42050533F7B70033070C
:10434000C702C183B387C7024E97135807016D8F09
:10435000C29793D90701C207BA979CC29106E34C52
:1043600025FD638D09041C446341F9044C402685F6
:104370008505613D2A8A11ED971600009386061C7B
:1043800001469305500B1715000013056522EF0039
:10439000304C10489305C400310509060A06EFB0F9
:1043A0007FDBA2852685013F5284930749008A0757
:1043B000A29723A23701050923282401F240228570
:1043C0006244D2444249B249224A05618280AA87A6
:1043D0004167014563F4E700C20741453707000123
:1043E00063F4E7002105A2073707001063F4E70034
:1043F000110592073707004063E6E70063CF070027
:10440000050582808A0763D4070009058280F98F39
:1044100099C30D0582801305000282801C412A8702
:1044200093F6770085C293F617000145A1EE93F647
:10443000270089C685831CC30545828089831CC3E8
:104440000945828093960701C182014599E2C183A3
:10445000414593F6F70F99E22105A18393F6F70002
:1044600099E21105918393F6370099E20905898352
:1044700093F6170081E68583050599C31CC38280E6
:10448000130500028280411122C42E84854506C690
:10449000AD3B11ED971600009386460A0146930541
:1044A0000014171500001305A510EF00703AB24074
:1044B00040C92244054718C94101828098491C4AD5
:1044C000011122CC4AC806CE26CA4EC652C42E8935
:1044D00032846344F7002E843289032A040183293D
:1044E00009011C444C40B3043A0163D3970085058D
:1044F000293B11ED9716000093864604014693056B
:10450000D015171500001305A50AEF0070349306A7
:104510004501139824003698B68763EA070513030C
:10452000440113162A0093054901939829001A960D
:1045300093075401AE98114E6368F6003304864029
:104540002D147198130E4400C16EFD1E63E5150312
:10455000635690008327C8FF7118E1CFF240624490
:1045600004C94249D244B249224A0561828023A04B
:10457000070091075DB703AF0500337FDF016309D3
:104580000F04B6829A8F014483A70F0083A3020011
:10459000910F33F7D7013307E703C18333F9D30111
:1045A00093D303019102B387E7034A9722979E971B
:1045B000935307019E9713D407013377D701C2079E
:1045C000D98F23AEF2FEE3E1CFFCB387C60180C3EF
:1045D00083D32500638C03049C421A8FB68F8142DB
:1045E00003270F0003D42F00B3F7D7013377D70188
:1045F00033077702110F910F229716979312070135
:10460000B3E7F20023AEFFFE8357EFFF83A20F0054
:104610004183B3877702B3F2D2019697BA9793D2C8
:104620000701E36FCFFA3387C6011CC391059106DA
:1046300031BFFD1431BF011126CA4AC84EC606CE8D
:1046400022CC52C4937736002A89B284AE8981CFB6
:10465000FD1717170000130727FC8A07BA97904326
:1046600081464D39AA898984C9C4832749029DEBB3
:104670004145853E2322A90211ED9716000093863D
:10468000E6E301469305E01A17150000130545F20D
:10469000EF00101C23220500232405002320050021
:1046A00023260500032A490203248A0011E8930502
:1046B00010274A85C93B2324AA002A842320050009
:1046C00093F7140091CBCE8522864A85C53B2A8A72
:1046D000CE854A85CD36D289858481CC084001E9D2
:1046E0002286A2854A85D93B08C0232005002A845A
:1046F000C1BFF2406244D2444249224A4E85B24987
:1047000005618280011126CAAE845AC003AB040140
:104710004AC8CC41135956409C444A9B22CC4EC6B1
:1047200056C206CE52C42A84B289930A1B0063C4BF
:1047300057032285EFF07FAD2A8A0DE1971600001E
:104740009386C6DF01469305901D171500001305DB
:1047500025E6EF00F00F85058607D1BF93064501DA
:104760003687814763C32709635309000149984885
:104770000A09938744010A0713F6F901CA963E977E
:1047800035CA93080002B388C840368881458843FB
:1047900011083315C500C98D232EB8FE8C4391072F
:1047A000B3D51501E3E5E7FE93875401114663672E
:1047B000F700058F2D17719B13064700B2968CC228
:1047C00099C1930A2B00FD1A23285A012285A68538
:1047D000EFF07FAEF2406244D2444249B249924A7D
:1047E000024B5285224A05618280232007008507FB
:1047F00011078DBF9043910790C29106E3ECE7FE4D
:10480000D9B714499849AA873385E6406395E602EB
:104810000A07D107D105B386E700BA95F116F1155D
:10482000904298416307E60005456376E6007D55B2
:104830008280E3E5D7FE8280011126CAAE844AC891
:10484000B2852A89268522CC06CE4EC63284553FB3
:1048500015ED81454A85EFF05F9B11ED971600003D
:104860009386C6CD01469305202317150000130536
:1048700025D4EF00E07D85471CC9232A0500F240BE
:104880006244D2444249B2490561828081496356FB
:104890000500A6878549A2843E84CC404A85EFF076
:1048A000DF9609E997160000938646C901469305ED
:1048B000002465BF03A80401184893884401131617
:1048C0002800930744010A07C16E23263501469646
:1048D000BA9793054501514E0143FD1EB306C4012D
:1048E0003387C40103AF06001843B37FDF01B376FB
:1048F000D701B386F6419A96135F0F01418313D314
:1049000006413307E7411A9713530741B3F6D6011F
:104910004207330FC501D98E110E2320DF00330764
:104920008E00E36DF7FA93065401114763E7D70051
:10493000818FAD17F19B13874700B386E500BA98C6
:10494000416EB68EC6857D1E63E4C5029387D8FF8F
:1049500001476367F6000D06330616411377C6FF5D
:10496000B387E600F11798430DCB2328050101BF5B
:1049700098411A8F9105B377C7019A97C18713534E
:1049800007019A977A9713D307413377C701C20774
:104990005D8F23A0EE00910E45BF7D18E1B77971C0
:1049A00022D42E84854526D24AD04ECE06D652CC6D
:1049B000B284B6893A89EFF05F8509ED9716000059
:1049C0009386C6B701469305A0301715000013055E
:1049D00025BEBD2D370710009307F7FFE58FD18067
:1049E00093F4F47F2A8A91C0D98F3EC635C028003F
:1049F00022C4EFF0BFA23247A24621C993070002AA
:104A0000898FB317F700D58F3357A700232AFA00F1
:104A10003AC63244232C8A0033348000050423280C
:104A20008A00A9C09384D4BCAA9423A0990013043B
:104A30005003098C23208900B25022549254025909
:104A4000F2495285624A45618280232ADA00D1B751
:104A50006800EFF0BF9CB247130505020544232A06
:104A6000FA0075BF9307E5BC23A0F9009317240053
:104A7000D297884B1604EFF09F9565BF33B7C502F8
:104A8000011106CE22CC3386C50209CB314718C1AD
:104A90000144F2402285624405618280B28532C6BB
:104AA0004D282A8475D532468145EFB00FECD5B735
:104AB000C5C183A7C5FF011122CC06CE1384C5FF53
:104AC00063D307003E942AC6F52517B7FF81130765
:104AD000E7761C43324581EB2322040000C3624485
:104AE000F2400561C9AD637DF4001040B306C40017
:104AF0006396D7009443DC43B29614C05CC0F9BF00
:104B00003E87DC4399C3E37DF4FE14433306D700AC
:104B1000631F86001040B29614C33306D700E3909B
:104B2000C7FC9043DC43B29614C35CC34DBF6375AE
:104B3000C400B1471CC165B71040B306C4006396FA
:104B4000D7009443DC43B29614C05CC040C341BF5D
:104B50008280011126CA93843500F1984AC806CE96
:104B600022CC4EC6A104B1472A8963F4F404B144AF
:104B700063E3B4044A853D2D97B6FF819386066CA6
:104B800098423A8421E417B4FF811304E46A1C407C
:104B900089E781454A85712E08C0A6854A85512E30
:104BA000FD5963183507B1472320F9004A852125AF
:104BB00031A0E3DF04FAB1472320F9000145F240B8
:104BC0006244D2444249B249056182801C40858FCB
:104BD00063CE07022D466376F6001CC03E9404C0E7
:104BE00029A05C40631287029CC24A85E923130511
:104BF000B4009307440061993307F540E301F5FCE5
:104C00003A94898F1CC065BF5CC3C5B722874040FA
:104C100095BF130435007198E30385FCB305A440E8
:104C20004A85012EE31D35FBBDBF1C46FD171CC682
:104C300063DA0700184E63C5E700A9476394F500DF
:104C40006FE02F901C422E851387170018C2238017
:104C5000B7008280011122CC26CA4AC84EC652C46F
:104C600006CE2A89AE893284B304D6007D5A6314F5
:104C70009400014509A8834504004E864A8575378E
:104C80000504E31645FFF2406244D2444249B2496A
:104C9000224A05618280357122CD26CB4AC94EC792
:104CA00006CF52C556C35AC1DEDEE2DCE6DAAA8977
:104CB000AE843289368409C51C4D99E3EFF08FAA82
:104CC000971700009387C78C639CF40C83A449005A
:104CD00083D7C400A18BFDC79C48EDC79307000292
:104CE000A304F1029307000302D22305F10222C6B6
:104CF000930B5002971A0000938ACAA1054C294BC6
:104D00004A848347040099C36391770FB30C24410D
:104D1000630D2401E6864A86A6854E85253FFD570C
:104D20006306F51E9257E6973ED283470400638FD1
:104D3000071CFD571309140002C802CE3ECA02CC5C
:104D4000A309010482D48345090015465685EFF076
:104D50002FCAC2471304190059E913F7070109C7FD
:104D600013070002A309E10413F7870009C713071B
:104D7000B002A309E104834609001307A00263807F
:104D8000E608F2474A848146254603470400930516
:104D90001400130707FD637AE60AB5CA3ECE85A85C
:104DA000970700009387C77C6395F40083A489006C
:104DB00005B7970700009387A779E39BF4F083A4D6
:104DC000C90039B7A6854E85EFE00F8401D97D551E
:104DD000FA406A44DA444A49BA492A4A9A4A0A4B8A
:104DE000F65B665CD65C0D618280050419BF3305F5
:104DF00055413315AC00C98F3EC82289A9B7324747
:104E000093064700184336C6634A07023ACE034763
:104E100004009307E002631EF7040347140093079E
:104E2000A002631AF702B2470904138747009C43A4
:104E30003AC663D30700FD573ECA25A83307E040B2
:104E400093E727003ACE3EC8D9B7B38767032E84CD
:104E50008546BA971DBF050402CA8146814725468B
:104E60000347040093051400130707FD6378E60663
:104E7000E1F6834504000D46171500001305058A69
:104E8000EFF00FB711CD97170000938727891D8D7D
:104E9000C247130700043317A700D98F05043EC883
:104EA000834504001946171500001305658713098B
:104EB00014002304B102EFF0AFB32DC197D7FFFF69
:104EC0009387274E95E74247B2471377071009CFDC
:104ED00091073EC69257D2973ED21DB5B38767035E
:104EE0002E848546BA97ADBF9D07E19BA107D5B734
:104EF000780097060000938626D626860C084E85F5
:104F0000EFD0EFC9FD572A8AE316F5FC83D7C4001A
:104F100093F70704E39D07EA12555DBD78009706F5
:104F20000000938666D326860C084E85EFD09FA599
:104F3000D1BF411122C42A842E8597B7FF8123ABAC
:104F4000072E06C6EFC0BFFBFD576318F50097B7E5
:104F5000FF8183A7272E91C31CC0B2402244410188
:104F60008280411122C42E848395E50006C6A924BF
:104F7000634905007C48AA977CC8B240224441019D
:104F800082808357C4007D777D17F98F2316F40044
:104F9000EDB783D7C500011122CC26CA4AC84EC638
:104FA00006CE93F70710AA842E843289B68991C75A
:104FB0008395E5008946014679228357C4007D77B1
:104FC0007D17F98F8315E4002316F4006244F24044
:104FD000CE864A86B24942492685D24405613DA81B
:104FE000411122C42E848395E50006C6A92A7D5767
:104FF0008357C400631BE5007D777D17F98F231667
:10500000F400B2402244410182800567D98F231603
:10501000F40068C8FDB78395E50085A8411122C456
:105020002A842E85B285368697B7FF8123A4072070
:1050300006C6EFC0FFE6FD576318F50097B7FF817E
:1050400083A7471F91C31CC0B24022444101828004
:10505000411197B7FF8183A76700328806C6AA88E7
:105060002E87C8473686970700009387E76B63173C
:105070000800970700009387E7393E88C6869705A2
:1050800000009385656B15285122411122C42A84A2
:105090002E8597B7FF8123AF071806C6EFC03FE301
:1050A000FD576318F50097B7FF8183A7A71891C331
:1050B0001CC0B240224441018280397132D436D6BC
:1050C0002E863410AA8517B5FF81032525F906CE53
:1050D0003AD83EDA42DC46DE36C6EFF0DFBBF240BD
:1050E00021618280411122C42A842E85B28597B71E
:1050F000FF8123A1071406C6EFC0DFDDFD5763184B
:10510000F50097B7FF8183A7E71291C31CC0B24097
:10511000224441018280411122C42A842E8597B7FE
:10512000FF8123A9071006C6EFC09FDBFD57631858
:10513000F50097B7FF8183A7E70F91C31CC0B2406A
:10514000224441018280411122C42A842E85B285E5
:10515000368697B7FF8123AF070C06C6EFC0BFD9CD
:10516000FD576318F50097B7FF8183A7A70C91C37C
:105170001CC0B24022444101828085E141116C0093
:10518000014511CA795581CA834706009CC1034570
:1051900006003335A00041018280014519CA7955C6
:1051A00089CA834706009CC1034506003335A00029
:1051B0008280828082808280411122C42A842E854E
:1051C000B285368697B7FF8123A6070606C6EFC0CD
:1051D000DFD2FD576318F50097B7FF8183A78705D6
:1051E00091C31CC0B24022444101828091CD9307FB
:1051F000F00F63F7C7009307A0081CC17D5582809C
:105200002380C500054582800145828041111945F2
:1052100006C6A5200545EFC0DFCB011122CC06CE86
:10522000FD472A8463F9B700D9471CC17D55F24078
:105230006244056182807C412E8691C713972500C8
:10524000BA97984319EB228532C6BD20AA852285DC
:1052500062443246F24005613DA08546630DD700A9
:10526000FD566316D700D9471CC10545C9B723A011
:1052700007002E85029701455DBFAA8517B5FF81FE
:105280000325C5DD59BF411122C42A842E85B2856C
:1052900097B7FF8123A007FA06C6EFC0FFC4FD57EA
:1052A0006318F50097B7FF8183A7C7F891C31CC0A7
:1052B000B2402244410182806FC05FC2FEB9FFFF4D
:1052C000A2B6FFFF5AB9FFFFA2B6FFFFF0B9FFFF7A
:1052D000A2B6FFFF5AB9FFFFFEB9FFFFFEB9FFFFFD
:1052E000F0B9FFFF5AB9FFFF8AB6FFFF8AB6FFFF8A
:1052F0008AB6FFFFF0B9FFFF0001020203030303B8
:105300000404040404040404050505050505050555
:105310000505050505050505060606060606060635
:10532000060606060606060606060606060606061D
:105330000606060606060606070707070707070705
:1053400007070707070707070707070707070707ED
:1053500007070707070707070707070707070707DD
:1053600007070707070707070707070707070707CD
:1053700007070707070707070808080808080808B5
:10538000080808080808080808080808080808089D
:10539000080808080808080808080808080808088D
:1053A000080808080808080808080808080808087D
:1053B000080808080808080808080808080808086D
:1053C000080808080808080808080808080808085D
:1053D000080808080808080808080808080808084D
:1053E000080808080808080808080808080808083D
:1053F00008080808080808080D0A53746172740D3B
:10540000000000004144435F32203D2025640D0A26
:1054100000000000494E4600696E66004E414E0095
:105420006E616E0030000000303132333435363773
:1054300038394142434445460000000030313233A0
:1054400034353637383961626364656600000000C0
:10545000A4D5FFFFBAD5FFFF7AD5FFFF7AD5FFFFAE
:105460007AD5FFFF7AD5FFFFBAD5FFFF7AD5FFFFC8
:105470007AD5FFFF7AD5FFFF7AD5FFFF12D7FFFF5E
:1054800022D6FFFFB0D6FFFF7AD5FFFF7AD5FFFF08
:1054900042D7FFFF7AD5FFFF22D6FFFF7AD5FFFF65
:1054A0007AD5FFFFB8D6FFFF496E66696E697479D9
:1054B000000000004E614E005245454E54206D6183
:1054C0006C6C6F632073756363656564656400006D
:1054D0002F686F6D652F6769746C61622D72756ED0
:1054E0006E65722F2E636F6E616E322F702F742F68
:1054F00072697363763133303332323762643633F4
:1055000036342F622F65787465726E616C5F736FCD
:1055100075726365732F6E65776C69622F6E657740
:105520006C69622F6C6962632F7374646C69622F9B
:1055300064746F612E63000042616C6C6F63207352
:105540007563636565646564000000000000000029
:10555000000000000000000000000000000000004B
:10556000000000000000000000000000000000003B
:10557000000000000000000000000000000000002B
:10558000000000000000000000000000000000001B
:10559000000000000000000000000000000000000B
:1055A0000000000000000000000000002F686F6D88
:1055B000652F6769746C61622D72756E6E65722FEE
:1055C0002E636F6E616E322F702F742F726973634A
:1055D00076313330333232376264363336342F62C9
:1055E0002F65787465726E616C5F736F7572636539
:1055F000732F6E65776C69622F6E65776C69622FA9
:105600006C6962632F7374646C69622F6D7072656C
:10561000632E630005000000190000007D000000FB
:105620000080E03779C34143176E05B5B5B893469E
:10563000F5F93FE9034F384D321D30F94877825A6A
:105640003CBF737FDD4F1575000000000000F03F88
:10565000000000000000244000000000000059404D
:105660000000000000408F40000000000088C340A0
:1056700000000000006AF8400000000080842E4115
:1056800000000000D01263410000000084D7974161
:105690000000000065CDCD41000000205FA0024267
:1056A000000000E876483742000000A2941A6D42DC
:1056B000000040E59C30A2420000901EC4BCD642CF
:1056C00000003426F56B0C430080E03779C341437A
:1056D00000A0D8855734764300C84E676DC1AB43F0
:1056E000003D9160E458E143408CB5781DAF15440E
:1056F00050EFE2D6E41A4B4492D54D06CFF08044E9
:10570000F64AE1C7022DB544B49DD9794378EA44FD
:10571000232D302B20000000686C4C006566674527
:10572000464700002C2066756E6374696F6E3A20E0
:1057300000000000617373657274696F6E2022252A
:105740007322206661696C65643A2066696C652025
:10575000222573222C206C696E6520256425732513
:10576000730A000043000000504F534958000000E6
:105770002E0000000020202020202020202028288B
:105780002828282020202020202020202020202001
:105790002020202020881010101010101010101041
:1057A0001010101010040404040404040404041071
:1057B00010101010101041414141414101010101FF
:1057C00001010101010101010101010101010101C9
:1057D00010101010101042424242424202020202D5
:1057E0000202020202020202020202020202020299
:1057F0001010101020000000000000000000000049
:105800000000000000000000000000000000000098
:105810000000000000000000000000000000000088
:105820000000000000000000000000000000000078
:105830000000000000000000000000000000000068
:105840000000000000000000000000000000000058
:105850000000000000000000000000000000000048
:105860000000000000000000000000000000000038
:105870000000000000000000000000000000000028
:10588000FFFFFFFFFFFFEF7F000000000000F83F79
:1058900061436F63A787D23FB3C8608B288AC63F36
:1058A000FB799F501344D33F000000000000F03FFD
:1058B00000000000000024400000000000001C4028
:1058C0000000000000001440000000000000E03F65
:1058D0005C000002400200025C00000200000000C8
:1058E0008C5500806C5500804C55008000000000F5
:1058F00000000000000000000000000000000000A8
:105900000000000000000000000000000000000097
:105910000000000000000000000000000000000087
:105920000000000000000000000000000000000077
:105930000000000000000000000000004300000024
:105940000000000000000000000000000000000057
:105950000000000000000000000000004300000004
:105960000000000000000000000000000000000037
:1059700000000000000000000000000043000000E4
:105980000000000000000000000000000000000017
:1059900000000000000000000000000043000000C4
:1059A00000000000000000000000000000000000F7
:1059B00000000000000000000000000043000000A4
:1059C00000000000000000000000000000000000D7
:1059D0000000000000000000000000004300000084
:1059E00000000000000000000000000000000000B7
:1059F0000000000000000000000000004300000064
:105A00000000000000000000000000000000000096
:105A1000000000000000000000000000EC510080C9
:105A20007A51008000000000745700807057008099
:105A300010540080105400801054008010540080D6
:105A400010540080105400801054008010540080C6
:105A500010540080FFFFFFFFFFFFFFFFFFFFFFFF6E
:105A6000FFFF0000010041534349490000000000CE
:105A70000000000000000000000000000000000026
:105A800000000000000041534349490000000000AD
:105A90000000000000000000000000000000000006
:105AA00000000000000000000000000000000000F6
:040000058000000077
:00000001FF
