:020000040200F8
:100000003741000213010100B72100029381014032
:10001000B7150002938505D937160002130606D9D5
:10002000B72600029386064039A083A2050023A0CC
:10003000560091059106E3EAC5FEB72500029385B7
:100040000540372600021306064221A023A0050022
:100050009105E3EDC5FEB7000002E7804007B70059
:100060000002E7804007B7000002E780801B7300B2
:100070005010F5BF8280000000000000000000006A
:100080000000000000000000000000000000000070
:100090000000000000000000000000000000000060
:1000A0000000000000000000000000000000000050
:1000B0000000000000000000000000000000000040
:1000C0006F004000197106C20AC40EC612C816CAD3
:1000D0001ACC1ECE22D026D22AD42ED632D836DA48
:1000E0003ADC3EDEC2C0C6C2CAC4CEC6D2C8D6CA78
:1000F000DACCDECEE2D0E6D2EAD4EED6F2D8F6DA28
:10010000FADCFEDE970000009380000582909240AA
:100110002241B2414242D2426243F24302549254DB
:100120002255B2554256D2566257F2570648964863
:100130002649B649464AD64A664BF64B065C965C5B
:10014000265DB65D465ED65E665FF65F096173004A
:10015000203001A0B7070500938707409C53918B7F
:10016000B9CBB727080093870780DC4F93F70704C4
:1001700081CFB72708001307000423AEE780B72715
:10018000000205472380E740B727080093870780D0
:10019000DC4F93F7070299CBB7270800130700023B
:1001A00023AEE78003A7478223A4E782B7070500B1
:1001B000114723ACE7408280011106CEB707000249
:1001C0009387070073905730370705009D679107A5
:1001D0005CCF9307B0085CCB5C4793E787005CC7B4
:1001E000B7470800930500208CC79306004094C7CA
:1001F0008CC394C3B716050003A6C6C03705FDFF20
:100200007D15698E4165498E23A6C6C003A6C6C06A
:100210003705F4FF7D15698E37050400498E23A646
:10022000C6C09306001023A6D74023A4B7403726A4
:100230000800930606808567938557D02326B680ED
:100240009305D0062320B6807D56D0CE9146232438
:10025000D7407367043093870780F3A7473037157B
:100260000002130545D68523B727000283C7074040
:10027000E5DFB747080013070020D8C302C632479E
:1002800089679387F77063DCE700B74708001307B7
:10029000002098C3B727000223800740F1B7B24778
:1002A00085073EC6E9BF411106C622C4AA85372488
:1002B000080013050480352A13050480112AB24072
:1002C000224441018280011106CE22CC2A8402C040
:1002D00002C202C402C6B717080093870740630C26
:1002E000F500B7270800938707806305F402F24002
:1002F000624405618280B70705000947D8CF93079C
:1003000000063EC085473EC28A8537450800EF009B
:10031000007AC1BFB70705001147D8CFB707004023
:10032000938707303EC085473EC202C48A85374561
:10033000080013050540EF00807755BF011106CE78
:1003400022CC26CA4AC84EC652C4AA842E893284F8
:10035000368ABA898D3FBD4763FB270523A0040079
:1003600023A62401FD57DCCC23A2440123A434019D
:10037000936714009CC005A0014511A005451377A3
:10038000840009CB19C537072000F98F99EF014583
:1003900011A0014511EDDC4C1377440065D33707FC
:1003A00040007D8F71DB0545D9BF0545E5B70145A7
:1003B000F2406244D2444249B249224A05618280F5
:1003C0005C4D93F7070499E30145828005458280DF
:1003D000411106C622C42A842285DD3775DDB2406C
:1003E000224441018280484D137505083335A00031
:1003F00082800CD58280411106C622C426C24AC022
:100400002A8419A81389250083D505002285D537AC
:1004100022857D3F2686CA859304F6FF65F6B240A5
:1004200022449244024941018280484D13750502DD
:10043000133515008280411106C6C53F13451500CE
:100440001375F50FB24041018280411106C622C4E6
:100450002A842285D93F75FDB24022444101828021
:100460004851420541818280411106C622C426C2FC
:100470004AC0AA842E8409A82685C13F2685CD3787
:100480002300A4004A8605041309F6FF75F6B2405E
:1004900022449244024941018280411106C622C48D
:1004A0002A8411A05C50228549376DDDB240224478
:1004B00041018280411106C622C4AA853714080072
:1004C000130504403D37130504401937B240224458
:1004D00041018280411106C622C426C2372400028F
:1004E0008324C4402326A4402E85753B23269440B4
:1004F000B2402244924441018280411106C622C486
:100500002A8419A0050445330345040065FDB24063
:100510002244410182805D7186C6A2C4A6C2CAC0BF
:100520004EDE52DC56DA5AD82A8A2EC6E1AAA53BFC
:10053000228AC9AA13073A00034514000549CDAA27
:1005400013073A00034514000949DDA2B3093041FD
:100550000949DDAA93972900CE978607AA97938920
:1005600007FD034507000507930705FD93F7F70F00
:10057000A546E3F1F6FE3A8AE1AA8149F5B72A8653
:100580009307E6FB93F6F70F5947636BD7089397EA
:10059000260037170002130787D0BA979C4382873B
:1005A000B247138747003AC683AA0700014411A047
:1005B0000504B3878A0083C70700FDFB29A0130544
:1005C0000002D53126849377290091E79304140023
:1005D000E36734FF268456850D3729A013050002F2
:1005E000D931268493041400E36A34FF21AAB24768
:1005F000138747003AC603C50700753121A2A946F3
:100600009377490085C7B247138747003AC6984396
:1006100093074004630BF6020146A5A0C146CDB77F
:100620005931CDA08946E9BFA146D9BF93074004FF
:100630006308F600B247138747003AC69843E9BFFC
:10064000B247138747003AC69843E35707FC33077E
:10065000E04013690901C9B713087002C29793F704
:10066000F70F1304160093870703930406033388D8
:1006700024002300F8FE63E4D502FD4763E187020E
:100680002286B377D702BA853357D7022548E37A53
:10069000F8FC13088007E30105FD1D48C1B79377F7
:1006A000090199CB93070403338427009307D002F1
:1006B0002300F4FE130426009377190089C7130B57
:1006C0000003A28439A0130B0002E5BF5A85E13E66
:1006D000D6849377290091E7938A1400E3E834FFE6
:1006E000D6847D14930704038A9703C507FE653EED
:1006F0006DF829A0130500027D36A284138414002E
:10070000E3EA34FF13041A0003450A002DC99307D6
:100710005002E31EF5E013072A0003450400930787
:100720000003E309F5E09307D002E30BF5E001498C
:100730009307A002E313F5E4B2479386470036C659
:1007400083A90700E3C409E0130A17000345070063
:100750009307C0066306F5009307C0046317F5000E
:100760001369490003450A00050A11C993070006E9
:10077000E3F7A7E0130605FE1376F60F11B5B640B2
:10078000264496440649F259625AD25A425B616144
:100790008280411106C622C426C22E84B7270002D9
:1007A00083A4C74023A6A74019A00504ED3C034538
:1007B000040065FDB727000223A69740B2402244FB
:1007C000924441018280397106CE2ED232D436D67F
:1007D0003AD83EDA42DC46DE4C102EC62D3BF240C3
:1007E00021618280397106CE22CC2A832E8532D4B3
:1007F00036D63AD83EDA42DC46DE372400022324DD
:1008000064402C102EC6013B8327844023800700C0
:1008100023240440F240624421618280397106CE73
:1008200022CC26CA2A832E8532D436D63AD83EDA4E
:1008300042DC46DE372400028324C4402326644081
:100840002C102EC6C93923269440F2406244D2446B
:1008500021618280411106C622C426C24AC0AA84F0
:100860003284368937150002130505D7A93F894719
:100870006306F9069147630EF9068547630BF90293
:1008800029451534B24022449244024941018280F4
:10089000B387240183C5070037150002130585D7E8
:1008A0001D370509E34689FE13050002ED3A0149AB
:1008B00029A00149C5BFC53A0509E35389FCB3879F
:1008C000240103C50700930705FE93F7F70F1307ED
:1008D000E005E372F7FE1305E002F1BF83D50400E3
:1008E000890437150002130505D8F13D7D147DF408
:1008F00041BF8C40910437150002130585D8E135BE
:100900007D1465F8B5BFB727000283A74740A5CB84
:10091000011106CE22CC26CA4AC84EC62A89AE8408
:100920000144B727000283A747408297AA8721C1C5
:1009300035476308E50221476301E5027D47E3523D
:10094000F7FE9387F4FFE35EF4FC930914004A94E6
:100950002300A400893A4E84E9B76DD07D14A132FA
:10096000C9B72299230009002945353A85473E85B4
:10097000F2406244D2444249B249056182808147D3
:100980003E858280411106C622C426C2AE87372426
:100990000002832444402322A440B2853E85A5372B
:1009A00023229440B240224492444101828023A0F9
:1009B000050019A0050718C11841834707009306D1
:1009C0000002E389D7FE9306D0026381D7028148F3
:1009D000130700036383E702138707FD1377F70FFD
:1009E000A54663E2E60C29468146A5A893071700B1
:1009F0001CC1834717008548E1BF184193071700C2
:100A00001CC18347170093062006638DD700930609
:100A100080076390D702930727001CC183472700F4
:100A20004146D9B7930727001CC1834727000946D1
:100A300065BF130700026374F706138707FD13777A
:100A4000F70FA54663EFE604214679BF637FC7042D
:100A5000B306D602BA961C411387170018C183C784
:100A60001700130700026375F7021307000663758A
:100A7000F700811793F7F70F138707FD1377F70F29
:100A80004148E375E8FC938797FC13F7F70F7DBFA8
:100A900063840800B306D04094C1054582800545B3
:100AA00082800145828001458280014582809C418F
:100AB000370700407D17F98F9CC1B747080093871F
:100AC0000740630AF508B757080093870780630D4E
:100AD000F508B74708006303F50A05458280114809
:100AE0006309060714C583260E00FD8ED045331614
:100AF0001601D18E2320DE0083A60E00F58F9445CB
:100B0000B3961601D58F23A0FE0005079C41B3D6EE
:100B1000E740B5CE8546B396E600F58FFDD70326B0
:100B20000300931817008D47B397170193C7F7FF7A
:100B30007D8E03A8450013783800331818013366FA
:100B400006012320C300D0411148E30A06F941FE03
:100B500079B754C549BF37130500930E43C1130E2F
:100B600003C11303C3C009A837130500930E03C2C2
:100B7000130EC3C1130383C1014749BF37130500D7
:100B8000930E83C0130E43C0130303C0F5B7014592
:100B90008280B7070040FD17FD8D1C4133F5F5003D
:100BA00011C10545828019E24CC182800CC182804E
:100BB0001C49BD8D0CC98280135645009D4763CDED
:100BC000C70A131826003D47331707019346F7FF5E
:100BD000B727000283A80741B3F6160123A8D74020
:100BE00033150501798D03A70741598D23A8A74027
:100BF00003A70741B757080023A2E7C093F71500E2
:100C0000A1C705473317C700B757080023AEE7C091
:100C100093F72500B1C305473317C700B75708003E
:100C200023AAE7C09189A9C105473317C700B75761
:100C3000080023A2E7C205473317C700B7570800CB
:100C400023A6E7C00145828005473317C700B75781
:100C5000080023A0E7C26DBF05473317C700B75789
:100C6000080023ACE7C07DBF05473317C700B7575F
:100C7000080023A4E7C2C1B70545828011819D47C2
:100C800063C2A7048546B396A600B757080023A8F9
:100C9000D7C00A053D473317A7001347F7FF37268C
:100CA0000002832506416D8F2328E6400327064175
:100CB00023A2E7C023ACD7C023A0D7C223A4D7C2A6
:100CC000014582800545828013574500B7570800CB
:100CD00003A587C08547B397E7007D8D3335A00016
:100CE00082801181B757080083A707C005473317D3
:100CF000A700F98F33D5A7008280B75708001307E4
:100D0000F00F23A6E7C2828024060002EE0500024F
:100D1000FE05000220060002200600022006000256
:100D20002006000220060002200600022006000223
:100D3000200600022006000220060002280600020B
:100D4000200600022006000220060002A005000284
:100D500020060002FE050002200600022006000216
:100D60001C06000273746172742E2E2E00000000A7
:100D70002530386C58200000202530325800000003
:100D80002025303458000000202530384C58000011
:0400000502000000F5
:00000001FF
