:020000040200F8
:100000003741000213010100B72100029381014032
:10001000B7150002938505B937160002130606B915
:10002000B72600029386064039A083A2050023A0CC
:10003000560091059106E3EAC5FEB72500029385B7
:100040000540372600021306064121A023A0050023
:100050009105E3EDC5FEB7000002E7804007B70059
:100060000002E7804007B7000002E780E01E73004F
:100070005010F5BF8280000000000000000000006A
:100080000000000000000000000000000000000070
:100090000000000000000000000000000000000060
:1000A0000000000000000000000000000000000050
:1000B0000000000000000000000000000000000040
:1000C0006F004000197106C20AC40EC612C816CAD3
:1000D0001ACC1ECE22D026D22AD42ED632D836DA48
:1000E0003ADC3EDEC2C0C6C2CAC4CEC6D2C8D6CA78
:1000F000DACCDECEE2D0E6D2EAD4EED6F2D8F6DA28
:10010000FADCFEDE970000009380E00882909240C7
:100110002241B2414242D2426243F24302549254DB
:100120002255B2554256D2566257F2570648964863
:100130002649B649464AD64A664BF64B065C965C5B
:10014000265DB65D465ED65E665FF65F096173004A
:10015000203001A0397106DE02C802CA02CC02CEEC
:1001600002D002D202D402D62308A1008947230A72
:10017000F1003ECE130700F8A301E1022302E102E1
:100180003ED40C080A85EF00D003F2502161828032
:1001900001A0B7070500938707409C5393F7070218
:1001A0008DCBB727000205472380E740374708007B
:1001B0001C4B93F707C01CCBB75708001307000868
:1001C00023A6E7C2B70705001307000223ACE740E8
:1001D0008280B7070500938707409C5337070004C8
:1001E000F98F89C7B707050023ACE740828001116A
:1001F00006CEB70700029387070073905730294552
:10020000913FB70705005D6713070704D8CF1307B1
:10021000B01AD8CBD84713678702D8C7374708002A
:100220009306002014C79306004014C7A166232636
:10023000D74037570800B70600302322D7C09306AF
:100240000008232AD7C02320D7C22326D7C01307EC
:10025000000223A4E740F367043085679387078093
:10026000F3A747300DA8A24785073EC42247B7979A
:1002700004009387F73DE3D8E7FE374708001C4B9F
:1002800093C707401CCB02C63247B7970400938739
:10029000F73D63DAE700374708001C4B93C7072098
:1002A0001CCB02C4E1B7B24785073EC6F1BF41117E
:1002B00006C622C4AA853724080013050480252A0F
:1002C00013050480012AB2402244410182800111B9
:1002D00006CE22CC2A8402C002C202C402C6B717CC
:1002E000080093870740630CF500B7270800938741
:1002F00007806304F402F240624405618280B7071C
:1003000005000947D8CF930700063EC085473EC287
:100310008A8537450800C922C9BFB70705001147BC
:10032000D8CFB7070040938707303EC085473EC20D
:1003300002C48A853745080013050540712A65BF48
:10034000011106CE22CC26CA4AC84EC652C4AA847F
:100350002E893284368ABA899D3FBD4763FB2705C3
:1003600023A0040023A62401FD57DCCC23A24401D2
:1003700023A43401936714009CC005A0014511A07B
:1003800005451377840009CB19C537072000F98F7D
:1003900099EF014511A0014511EDDC4C13774400A4
:1003A00065D3370740007D8F71DB0545D9BF054513
:1003B000E5B70145F2406244D2444249B249224A7B
:1003C000056182805C4D93F7070499E301458280C3
:1003D00005458280411106C622C42A842285DD3764
:1003E00075DDB240224441018280484D13750508F5
:1003F0003335A00082800CD58280411106C622C40C
:1004000026C24AC02A8419A81389250083D505006D
:100410002285D53722857D3F2686CA859304F6FF3F
:1004200065F6B24022449244024941018280484D1F
:1004300013750502133515008280411106C6C53FAC
:10044000134515001375F50FB2404101828041112B
:1004500006C622C42A842285D93F75FDB2402244B3
:10046000410182804851420541818280411106C686
:1004700022C426C24AC0AA842E8409A82685C13F68
:100480002685CD372300A4004A8605041309F6FF0C
:1004900075F6B240224492440249410182804111E2
:1004A00006C622C42A8411A05C50228549376DDD1E
:1004B000B240224441018280411106C622C4AA856D
:1004C00037140800130504403D371305044019375D
:1004D000B2402244410182809C41370700407D1791
:1004E000F98F9CC1B747080093870740630AF50856
:1004F000B757080093870780630DF508B7470800D2
:100500006303F50A0545828011486309060714C58F
:1005100083260E00FD8ED04533161601D18E232082
:10052000DE0083A60E00F58F9445B3961601D58F95
:1005300023A0FE0005079C41B3D6E740B5CE854613
:10054000B396E600F58FFDD7032603009318170036
:100550008D47B397170193C7F7FF7D8E03A845001A
:100560001378380033181801336606012320C300BE
:10057000D0411148E30A06F941FE79B754C549BF95
:1005800037130500930E43C1130E03C11303C3C0F9
:1005900009A837130500930E03C2130EC3C113033A
:1005A00083C1014749BF37130500930E83C0130E63
:1005B00043C0130303C0F5B701458280B70700406D
:1005C000FD17FD8D1C4133F5F50011C105458280F5
:1005D00019E24CC182800CC182801C49BD8D0CC9BE
:1005E0008280135645009D4763CDC70A1318260025
:1005F0003D47331707019346F7FFB727000283A84B
:100600004740B3F6160123A2D74033150501798D73
:1006100003A74740598D23A2A74003A74740B757D8
:10062000080023A2E7C093F71500A1C705473317B9
:10063000C700B757080023AEE7C093F72500B1C342
:1006400005473317C700B757080023AAE7C09189A9
:10065000A9C105473317C700B757080023A2E7C24F
:1006600005473317C700B757080023A6E7C0014561
:10067000828005473317C700B757080023A0E7C299
:100680006DBF05473317C700B757080023ACE7C055
:100690007DBF05473317C700B757080023A4E7C23B
:1006A000C1B70545828011819D4763C2A704854675
:1006B000B396A600B757080023A8D7C00A053D4740
:1006C0003317A7001347F7FF37260002832546405C
:1006D0006D8F2322E6400327464023A2E7C023ACC8
:1006E000D7C023A0D7C223A4D7C201458280054525
:1006F000828013574500B757080003A587C0854778
:10070000B397E7007D8D3335A00082801181B75704
:10071000080083A707C005473317A700F98F33D513
:10072000A7008280B75708001307F00F23A6E7C27F
:10073000828091476301F50463EFA7008547630654
:10074000F50289476318F500370706005C4BF99BF3
:100750005CCB82808280A1476318F50037070600D2
:100760001C4BF99B1CCB82808280370706005C4BB8
:10077000F59B5CCB8280370706001C4BF59B1CCB9E
:10078000828091476304F50463E0A702854763080C
:10079000F50289476319F500370706005C4B93E7BC
:1007A00017005CCB82808280A1476319F500370770
:1007B00006001C4B93E717001CCB82808280370712
:1007C00006005C4B93E727005CCB8280370706006E
:1007D0001C4B93E727001CCB828085476301F50201
:1007E00089476302F50219C105458280B7060600F4
:1007F000DC4A7D771307F73FF98FDCCA8280856674
:100800009386068019A0930600400147B7070500AC
:100810009C5FE98F91EB0507B7A707009387F71156
:10082000E3F6E7FE0D4582804111370606005C4A7B
:100830007D771307F73FF98FD58F5CCA02C621A0D9
:10084000B24785073EC6324793073006E3DAE7FE34
:1008500001454101828091476308F50463EEA702D8
:1008600085476306F50489476316F502A1460145ED
:100870000147B70705009C5FF58F85EF0507B7A710
:1008800007009387F711E3F6E7FEB7070500C8D323
:100890000D45828005458280A1476315F500894694
:1008A0000945F9B70545828085460D45D1B7914682
:1008B000C1B741118A05C98DB7070500CCD302C65F
:1008C00021A0B24785073EC6324793073006E3DAD8
:1008D000E7FE01454101828085476301F5028947B2
:1008E0006301F50219C105458280B70606009C4ADE
:1008F0007D771307F73FF98F9CCA8280130600406B
:1009000021A00566130606800147B70705009C5F16
:10091000E98F91EB0507B7A707009387F711E3F677
:10092000E7FE0D4582804111370706001C4BFD761E
:100930009386F63FF58FD18F1CCB85471CCF02C61F
:1009400021A0B24785073EC6324793073006E3DA57
:10095000E7FE01454101828011C585476306F50028
:1009600005458280894611A0AA860147B707050080
:100970009C5FF58F91EB0507B7A707009387F711E9
:10098000E3F6E7FE0D4582804111B7070500C8D7A1
:1009900002C632479307300663C6E700B2478507B1
:1009A0003EC6C5BF014541018280B707050088C327
:1009B0008280B7070500C8C38280B707050088C7D3
:1009C0008280411106C622C426C2AA842E84232016
:1009D0000500232205002324050023260500B70770
:1009E0000600D84B719BD8CB984B719B98CB03C713
:1009F00035010A07D8CB03C745010A0798CBC8457C
:100A0000E93B88C00C4403454400B135C8C00345E8
:100A10000401613F03451401693F03452401713F0F
:100A2000084C5D3D88C4484C053FC8C4834704005A
:100A3000858B99E7370706005C4B93E727005CCB73
:100A400083470400898B99E7370706005C4B93E7DF
:100A500017005CCB83470400918B99E737070600AA
:100A60001C4B93E727001CCB83470400A18B99E71D
:100A7000370706001C4B93E717001CCB2685B240B6
:100A8000224492444101828018411347F7FFB7077F
:100A9000050098CB1841D8C758411347F7FF98CFA6
:100AA0005841D8CB18451347F7FF98D31845D8CFEE
:100AB0008280B70700C0E98F370700409306F7FF31
:100AC000758D638EE700370700806380E70291C36E
:100AD0008280370705005C47C98F5CC78280370773
:100AE00005005C4BC98F5CCB8280370705005C4FEB
:100AF000C98F5CCFF1BFB70700C0E98F370700404F
:100B00009306F7FF758D638EE700370700806380DB
:100B1000E70291C38280370705001C4BC98F1CCBAD
:100B20008280370705001C4FC98F1CCF8280370792
:100B300005001C53C98F1CD3F1BFB7070500DC5358
:100B40008D8B09476384E702636BF70085C7054710
:100B50006397E7023755E8011305058082800D474A
:100B60006391E7022165130505D082802165130595
:100B700005D082803755E801130505808280014544
:100B8000828001458280000000000000000000001B
:0400000502000000F5
:00000001FF
