:0200000480007A
:100000003741000213010100B70100029381010092
:10001000B7150080938505DE37160080130606DECF
:10002000B70600029386060039A083A2050023A02C
:10003000560091059106E3EAC5FEB70500029385D7
:100040000500370600021306060221A023A00500C2
:100050009105E3EDC5FEB7000080E7804007B700DB
:100060000080E7804007B7000080E780C02573006C
:100070005010F5BF8280000000000000000000006A
:100080000000000000000000000000000000000070
:100090000000000000000000000000000000000060
:1000A0000000000000000000000000000000000050
:1000B0000000000000000000000000000000000040
:1000C0006F004000197106C20AC40EC612C816CAD3
:1000D0001ACC1ECE22D026D22AD42ED632D836DA48
:1000E0003ADC3EDEC2C0C6C2CAC4CEC6D2C8D6CA78
:1000F000DACCDECEE2D0E6D2EAD4EED6F2D8F6DA28
:10010000FADCFEDE9700000093802012829092407D
:100110002241B2414242D2426243F24302549254DB
:100120002255B2554256D2566257F2570648964863
:100130002649B649464AD64A664BF64B065C965C5B
:10014000265DB65D465ED65E665FF65F096173004A
:10015000203001A0797106D622D426D24AD0B70722
:10016000050013070010D8CB02CE02CC02C402C691
:1001700002C802CA37040002B70706009387074087
:100180002326F4001305C400EF00C07E1549230E9A
:100190002101AD47A30EF10093070003230FF100E7
:1001A000A30F01006C081305C400EF00B000D54494
:1001B000230C9100E547A30CF100A947230DF100A2
:1001C000E147A30DF1002C081305C400EF00500413
:1001D00089472304F100D147A304F100F94723051F
:1001E000F100A305210123069100CD47A306F100EC
:1001F0009D472307F100D947A307F100B70700F097
:100200003EC8B70700783ECA2C001305C400EF00B3
:1002100090131305C400EF000078B250225492549A
:10022000025945618280B7070500938707409C53B8
:1002300093F707029DC3374708001C4B93C707205D
:100240001CCBB75708001307000823A6E7C2B7075F
:1002500005001307000223ACE7408280011106CE9F
:1002600022CC26CA4AC8B70700809387070073903C
:10027000573037040500DD675CCC9307B0085CC8D5
:100280005C4493E787005CC401478146214685644E
:10029000938554D037250800130505809D24B74762
:1002A00008001307002098C71307004098C721676C
:1002B00023A6E740B75708003707003023A2E7C05E
:1002C0001307000823AAE7C023A0E7C223A6E7C0BC
:1002D000930700022324F440F367043093840480DE
:1002E000F3A44430371500801305C5D4B12B9D35D8
:1002F000370500021305C500EF007015B7070002AF
:1003000023A4A7008DA037150080130545D72D2BFA
:10031000B707000293874700370700020327C7008B
:1003200018433D8B83C6370003C6270083C51700DB
:10033000371500801305C5DB012B370500021305B7
:10034000C500EF00F00663110510374708001C4B8D
:1003500093C707401CCB02C63247B7970400938768
:10036000F73D63D3E710370500021305C500EF0022
:10037000100EB707000223A2A7009387470003C708
:100380003700B70700029387870083C73700E3066B
:10039000F7FAB7040002B707000223A4A700370941
:1003A00000021305C900EF005001370400022320AA
:1003B000A4008345040037150080130585D5692105
:1003C00013040400834634000346240083451400CC
:1003D00037150080130585D685291305C900EF0060
:1003E000100723A2A40083C744001D47E362F7F26D
:1003F0008A0737170080130707CDBA979C43828777
:10040000371500801305C5D7812119B7371500802E
:10041000130585D81529EDBD37150080130545D97D
:100420002521FDB537150080130505DA3129CDB535
:1004300037150080130585DA0129D9BD37150080ED
:10044000130545DB1121E9B5371500801305C5DC1F
:10045000E52E370400021305C400EF00A070130559
:10046000C400EF004073D5B5B24785073EC6EDB571
:10047000411106C622C4AA8537240800130504804A
:10048000352213050480012AB240224441018280B2
:10049000011106CE22CC2A8402C002C202C402C6C6
:1004A000B717080093870740630CF500B7270800CB
:1004B000938707806304F402F240624405618280FE
:1004C000B70705000947D8CF930700063EC0854708
:1004D0003EC28A85374508007926C9BFB70705009F
:1004E0001147D8CFB7070040938707303EC08547F4
:1004F0003EC202C48A853745080013050540A5267B
:1005000065BF011106CE22CC26CA4AC84EC652C4C7
:10051000AA842E893284368ABA899D3FBD4763FBFF
:10052000270523A0040023A62401FD57DCCC23A229
:10053000440123A43401936714009CC005A0014525
:1005400011A005451377840009CB19C53707200092
:10055000F98F99EF014511A0014511EDDC4C13779E
:10056000440065D3370740007D8F71DB0545D9BF57
:100570000545E5B70145F2406244D2444249B249DB
:10058000224A056182805C4D93F7070499E3014597
:10059000828005458280411106C622C42A842285B4
:1005A000DD3775DDB2402244410182800CD5828066
:1005B000411106C622C42A8419A00504553D0345ED
:1005C000040065FDB2402244410182805D7186C60F
:1005D000A2C4A6C2CAC04EDE52DC56DA5AD82A8A53
:1005E0002EC6E1AA7135228AC9AA13073A0003452B
:1005F00014000549CDAA13073A0003451400094920
:10060000DDA2B30930410949DDAA93972900CE97AD
:100610008607AA97938907FD0345070005079307F7
:1006200005FD93F7F70FA546E3F1F6FE3A8AE1AA36
:100630008149F5B72A869307E6FB93F6F70F5947EA
:10064000636BD7089397260037170080130707CFEF
:10065000BA979C438287B247138747003AC683AA5A
:100660000700014411A00504B3878A0083C707006F
:10067000FDFB29A013050002E53B268493772900A2
:1006800091E793041400E36734FF268456850D3701
:1006900029A013050002E93B268493041400E36AB1
:1006A00034FF21AAB247138747003AC603C50700A3
:1006B000C13321A2A9469377490085C7B247138762
:1006C00047003AC6984393074004630BF60201467D
:1006D000A5A0C146CDB7693BCDA08946E9BFA146DB
:1006E000D9BF930740046308F600B2471387470059
:1006F0003AC69843E9BFB247138747003AC69843C2
:10070000E35707FC3307E04013690901C9B7130831
:100710007002C29793F7F70F13041600938707032D
:1007200093040603338824002300F8FE63E4D50213
:10073000FD4763E187022286B377D702BA85335734
:10074000D7022548E37AF8FC13088007E30105FD8A
:100750001D48C1B79377090199CB930704033384EC
:1007600027009307D0022300F4FE1304260093779A
:10077000190089C7130B0003A28439A0130B0002D0
:10078000E5BF5A85F531D6849377290091E7938A9E
:100790001400E3E834FFD6847D14930704038A979A
:1007A00003C507FEF1316DF829A013050002C93118
:1007B000A28413841400E3EA34FF13041A000345EF
:1007C0000A002DC993075002E31EF5E013072A0023
:1007D0000345040093070003E309F5E09307D00203
:1007E000E30BF5E001499307A002E313F5E4B247F8
:1007F0009386470036C683A90700E3C409E0130ABD
:100800001700034507009307C0066306F50093072A
:10081000C0046317F5001369490003450A00050A7F
:1008200011C993070006E3F7A7E0130605FE137648
:10083000F60F11B5B640264496440649F259625A5D
:10084000D25A425B61618280397106CE2ED232D497
:1008500036D63AD83EDA42DC46DE4C102EC6BD33E0
:10086000F240216182809C41370700407D17F98F5B
:100870009CC1B747080093870740630AF508B7573C
:10088000080093870780630DF508B74708006303E6
:10089000F50A0545828011486309060714C58326B9
:1008A0000E00FD8ED04533161601D18E2320DE00BA
:1008B00083A60E00F58F9445B3961601D58F23A01D
:1008C000FE0005079C41B3D6E740B5CE8546B396FA
:1008D000E600F58FFDD703260300931817008D4718
:1008E000B397170193C7F7FF7D8E03A845001378D0
:1008F000380033181801336606012320C300D041A5
:100900001148E30A06F941FE79B754C549BF3713C8
:100910000500930E43C1130E03C11303C3C009A8FE
:1009200037130500930E03C2130EC3C1130383C113
:10093000014749BF37130500930E83C0130E43C010
:10094000130303C0F5B70145828001478967938788
:10095000F77063EAE7001C419C4BB7060010F58F67
:1009600089CB0507E5B71C419C4B37070010F98F71
:10097000FDFB8280411106C6B707060003A70741A9
:10098000B706008093C6F6FF758F23A8E740753F32
:10099000B24041018280411106C6B707060003A795
:1009A0000741B7060080558F23A8E740793FB24042
:1009B00041018280411106C683C7050003C71500A7
:1009C0002948335307033376070303C72500B35879
:1009D0000703B376070303C73500B355070333771F
:1009E0000703E20713186301B3E707014A06D18F33
:1009F0001396F800D18FAE06D58F93968500D58FCC
:100A00001207D98F18411CC38937B2404101828037
:100A1000411106C683C605002947B3D7E60233F85D
:100A2000E60283C6350033DEE60233F6E60283C60D
:100A3000250033D3E602B3F6E60283C51500B3D82A
:100A4000E502B3F5E502DE0713173801D98F131756
:100A5000FE00D98F1317B600D98F1317A300D98FB3
:100A60009A06D58F13974800D98FCD8F18415CC354
:100A7000E93DB24041018280411106C683C70500AD
:100A800003C715002948335E07033376070303C7FE
:100A9000250033530703B376070303C73500B35864
:100AA000070333770703E20713186E01B3E7070163
:100AB0004A06D18F1316F300D18FAE06D58F9396C9
:100AC0008800D58F1207D98F984514415D8F98C63D
:100AD000AD3DB24041018280411106C683C645004A
:100AE0002947B3D7E60233F8E60283C67500B3DEC2
:100AF000E60233F6E60283C6650033DEE602B3F6AD
:100B0000E60283C8550033D3E802B3F8E802DE07F3
:100B100013173801D98F1397FE00D98F1317B6001A
:100B2000D98F1317AE00D98F9A06D58F13174300AC
:100B3000D98FB3E71701D84514415D8FD8C6313539
:100B4000B24041018280411106C622C426C22A84D5
:100B5000AE841D37A68522854137B2402244924497
:100B600041018280411106C622C42A8414419C4658
:100B7000370700107D17F98F9CC6C13B1440DC4637
:100B8000370700887D17F98FDCC622857D3BB24090
:100B9000224441018280411106C614419C4A370714
:100BA00000C07D17F98F9CCA4D33B240410182804D
:100BB0001C41884B79810589828041111C41DC43AD
:100BC00002C493D57701BD8993D8370193F8F80013
:100BD00013D6F7003D8A13D8B7001378F80093D6E0
:100BE000A700858A13D567003D8913D747000D8B71
:100BF000BD8B139325009A958605C6952304B100F5
:100C0000931526002E9606064296A305C10013965C
:100C10002600B2968606AA962305D10093162700D1
:100C200036970607BA97A304F100A2473EC683474A
:100C3000C1008346D100A2060347E1004207D58FD9
:100C40000345F1006205D98F5D8D4101828041111C
:100C500018411C43E1839D8B2304F1001C43D9837D
:100C60008D8B1443C982BD8A13962700B2978607DD
:100C7000B697A304F1001C43BD839D8B1443AD8242
:100C8000BD8A13962700B2978607B6972305F10011
:100C90001C43A1839D8B184311833D8B93962700A2
:100CA000B6978607BA97A305F100A2473EC68347C9
:100CB000C1008346D100A2060347E1004207D58F59
:100CC0000345F1006205D98F5D8D410182800000EE
:100CD0001003008006030080000400800C040080E4
:100CE0001804008024040080300400803C0400804C
:100CF000DA060080A4060080B4060080D6060080D4
:100D0000D6060080D6060080D6060080D606008073
:100D1000D6060080D6060080D6060080D606008063
:100D2000D6060080DE060080D6060080D60600804B
:100D3000D606008056060080D6060080B4060080E5
:100D4000D6060080D6060080D206008054657374F3
:100D5000205254430D0A00000A25642063656E7416
:100D6000757279200000000025642E25642E25640C
:100D7000200000004D6F6E6461790A0054554553A0
:100D80004441590A000000005745444E4553444130
:100D9000590A000054485552534441590A00000072
:100DA0004672696461790A0053415455524441596D
:100DB0000A00000053554E4441590A000D25643A7B
:100DC00025643A25642E25640A0D00000A416C61F1
:100DD000726D210A00000000000000000000000009
:040000058000000077
:00000001FF
