:0200000480007A
:100000003741000213010100B70100029381010092
:10001000B71500809385058F371600801306068F6D
:10002000B70600029386060039A083A2050023A02C
:10003000560091059106E3EAC5FEB70500029385D7
:100040000500370600021306061121A023A00500B3
:100050009105E3EDC5FEB7000080E7804007B700DB
:100060000080E7804007B7000080E7802031730000
:100070005010F5BF8280000000000000000000006A
:100080000000000000000000000000000000000070
:100090000000000000000000000000000000000060
:1000A0000000000000000000000000000000000050
:1000B0000000000000000000000000000000000040
:1000C0006F004000197106C20AC40EC612C816CAD3
:1000D0001ACC1ECE22D026D22AD42ED632D836DA48
:1000E0003ADC3EDEC2C0C6C2CAC4CEC6D2C8D6CA78
:1000F000DACCDECEE2D0E6D2EAD4EED6F2D8F6DA28
:10010000FADCFEDE970000009380800D8290924022
:100110002241B2414242D2426243F24302549254DB
:100120002255B2554256D2566257F2570648964863
:100130002649B649464AD64A664BF64B065C965C5B
:10014000265DB65D465ED65E665FF65F096173004A
:10015000203001A0B70700809387070073905730C5
:10016000B70705005D671107D8CF1307B008D8CBD4
:10017000D84713678700D8C7F3670430856793872C
:100180000780F3A747308280B74708001307002095
:1001900098C71307004098C7216723A6E740B757C1
:1001A00008003707003023A2E7C003A747C1136741
:1001B000070823AAE7C003A707C21367070823A0FD
:1001C000E7C203A7C7C01367070823A6E7C0B7079E
:1001D00005001307000223A4E7408280B70705004B
:1001E000938707409C53918BEDC3411106C622C4EF
:1001F000B727080093870780DC4FC18BCDE7B7276F
:10020000080093870780DC4F93F70702B1C3B72735
:1002100008001307000223AEE780B7460800984A9B
:100220001347072098CA83A6478237070002032690
:100230000700C206C1820606B7070002938747007F
:10024000B2972390D7008327070085072320F70064
:10025000B7070500114723ACE740B70705009387B0
:1002600007409C5393F707029DCBB757080093872D
:1002700007C09C4793F7070889CF374708001C4BF6
:1002800093C707201CCBB75708001307000823A605
:10029000E7C2B70705001307000223ACE740B240EE
:1002A0002244410182803725080013050580C1479B
:1002B0005CCD3704000203260400B70500029385D5
:1002C0004500C52A232004001DBFB70705009387FA
:1002D00007409C5393F7070285CFB75708009387D1
:1002E00007C09C4793F7070889CF374708001C4B86
:1002F00093C707201CCBB75708001307000823A695
:10030000E7C2B70705001307000223ACE74082806D
:100310008280011106CE22CC353D0147814613066D
:10032000D0038565938555D03724080013050480D4
:10033000D128FD57232EF480B7070500114723A4C9
:10034000E7409935371500801305C58D0D293747CE
:1003500008001C4B93C707401CCB02C63247B79717
:1003600004009387F73DE3C4E7FEB24785073EC626
:10037000F5B7411106C622C4AA8537240800130523
:100380000480352213050480012AB2402244410131
:100390008280011106CE22CC2A8402C002C202C48D
:1003A00002C6B717080093870740630CF500B7270C
:1003B0000800938707806304F402F24062440561F9
:1003C0008280B70705000947D8CF930700063EC0D3
:1003D00085473EC28A8537450800C926C9BFB70789
:1003E00005001147D8CFB7070040938707303EC0BC
:1003F00085473EC202C48A8537450800130505407B
:10040000712E65BF011106CE22CC26CA4AC84EC63F
:1004100052C4AA842E893284368ABA899D3FBD4748
:1004200063FB270523A0040023A62401FD57DCCC91
:1004300023A2440123A43401936714009CC005A0A7
:10044000014511A005451377840009CB19C537076D
:100450002000F98F99EF014511A0014511EDDC4C09
:100460001377440065D3370740007D8F71DB054566
:10047000D9BF0545E5B70145F2406244D24442493F
:10048000B249224A056182805C4D93F7070499E3E3
:100490000145828005458280411106C622C42A8416
:1004A0002285DD3775DDB2402244410182800CD5C2
:1004B0008280411106C622C426C24AC02A8419A8D5
:1004C0001389250083D505002285D5372285E93794
:1004D0002686CA859304F6FF65F6B240224492440C
:1004E000024941018280411106C622C42A8419A012
:1004F000050441350345040065FDB2402244410135
:1005000082805D7186C6A2C4A6C2CAC04EDE52DC1D
:1005100056DA5AD82A8A2EC6E1AAA13D228AC9AA49
:1005200013073A00034514000549CDAA13073A0002
:10053000034514000949DDA2B30930410949DDAA88
:1005400093972900CE978607AA97938907FD0345BD
:1005500007000507930705FD93F7F70FA546E3F19D
:10056000F6FE3A8AE1AA8149F5B72A869307E6FBA7
:1005700093F6F70F5947636BD70893972600371701
:10058000008013070788BA979C438287B247138776
:1005900047003AC683AA0700014411A00504B387A7
:1005A0008A0083C70700FDFB29A013050002D13391
:1005B00026849377290091E793041400E36734FFBE
:1005C000268456850D3729A0130500025D33268445
:1005D00093041400E36A34FF21AAB247138747004B
:1005E0003AC603C50700713321A2A9469377490093
:1005F00085C7B247138747003AC69843930740041C
:10060000630BF6020146A5A0C146CDB79D33CDA030
:100610008946E9BFA146D9BF930740046308F600A5
:10062000B247138747003AC69843E9BFB2471387DA
:1006300047003AC69843E35707FC3307E040136985
:100640000901C9B713087002C29793F7F70F130493
:1006500016009387070393040603338824002300BE
:10066000F8FE63E4D502FD4763E187022286B37793
:10067000D702BA853357D7022548E37AF8FC130826
:100680008007E30105FD1D48C1B79377090199CBA8
:1006900093070403338427009307D0022300F4FE5A
:1006A000130426009377190089C7130B0003A28453
:1006B00039A0130B0002E5BF5A856539D6849377BC
:1006C000290091E7938A1400E3E834FFD6847D146F
:1006D000930704038A9703C507FE61396DF829A0C3
:1006E000130500027931A28413841400E3EA34FF75
:1006F00013041A0003450A002DC993075002E31E94
:10070000F5E013072A000345040093070003E309FB
:10071000F5E09307D002E30BF5E001499307A0024F
:10072000E313F5E4B2479386470036C683A9070072
:10073000E3C409E0130A1700034507009307C00646
:100740006306F5009307C0046317F50013694900B9
:1007500003450A00050A11C993070006E3F7A7E05D
:10076000130605FE1376F60F11B5B64026449644DF
:100770000649F259625AD25A425B616182803971EC
:1007800006CE2ED232D436D63AD83EDA42DC46DE17
:100790004C102EC6BD33F240216182809C41370748
:1007A00000407D17F98F9CC1B74708009387074029
:1007B000630AF508B757080093870780630DF508AB
:1007C000B74708006303F50A0545828011486309AD
:1007D000060714C583260E00FD8ED045331616017C
:1007E000D18E2320DE0083A60E00F58F9445B396AC
:1007F0001601D58F23A0FE0005079C41B3D6E74024
:10080000B5CE8546B396E600F58FFDD703260300E7
:10081000931817008D47B397170193C7F7FF7D8E85
:1008200003A8450013783800331818013366060111
:100830002320C300D0411148E30A06F941FE79B7ED
:1008400054C549BF37130500930E43C1130E03C1AE
:100850001303C3C009A837130500930E03C2130E78
:10086000C3C1130383C1014749BF37130500930E6A
:1008700083C0130E43C0130303C0F5B70145828044
:1008800010060080DA050080EA0500800C06008072
:100890000C0600800C0600800C0600800C06008010
:1008A0000C0600800C0600800C0600800C06008000
:1008B0000C060080140600800C0600800C060080E8
:1008C0000C0600808C0500800C060080EA05008084
:1008D0000C0600800C0600800806008053746172CC
:1008E000742E2E2E200D0A000000000000000000D3
:040000058000000077
:00000001FF
