:020000040100F9
:100000003741000213010100B70100029381010092
:10001000B7150001938505E837160001130606E8B9
:10002000B70600029386060039A083A2050023A02C
:10003000560091059106E3EAC5FEB70500029385D7
:100040000500370600021306060121A023A00500C3
:100050009105E3EDC5FEB7000001E7804007B7005A
:100060000001E7804007B7100001E780C0D37300AC
:100070005010F5BF8280000000000000000000006A
:100080000000000000000000000000000000000070
:100090000000000000000000000000000000000060
:1000A0000000000000000000000000000000000050
:1000B0000000000000000000000000000000000040
:1000C0006F004000197106C20AC40EC612C816CAD3
:1000D0001ACC1ECE22D026D22AD42ED632D836DA48
:1000E0003ADC3EDEC2C0C6C2CAC4CEC6D2C8D6CA78
:1000F000DACCDECEE2D0E6D2EAD4EED6F2D8F6DA28
:10010000FADCFEDE970000009380000582909240AA
:100110002241B2414242D2426243F24302549254DB
:100120002255B2554256D2566257F2570648964863
:100130002649B649464AD64A664BF64B065C965C5B
:10014000265DB65D465ED65E665FF65F096173004A
:10015000203001A0B707050083A70742918B8DC30C
:10016000B727080003A7C78103A7C7819387078024
:10017000137707021DEFB7070500114723ACE740CF
:10018000B707050003A707429387074013770702C5
:1001900005C3B7460800984A1347072098CA37573F
:1001A0000800930600082326D7C21307000298CF41
:1001B000828013070002D8CFB7460800984A134739
:1001C000072098CAD85398D77DB7411122C4372445
:1001D0000800AA851305048006C6252A1305048095
:1001E0002244B240410129AA0111B717080006CEE6
:1001F00002C402C693870740630BF500B7270800C7
:10020000938707806306F502F24005618280B70795
:1002100005000947D8CF930700063EC08A85854769
:10022000374508003EC2EF00F009F24005618280C8
:10023000B70705001147D8CFB707004093870730AD
:10024000374508003EC08A858547130505403EC2F4
:10025000EF005007F24005618280011122CC26CACE
:100260004AC84EC652C42A8406CE2E89B284368A23
:10027000BA899D3FBD47014563FA27032320040047
:1002800023262401FD575CCC2322440193E714006C
:10029000232434011CC093F74400A18885E3370769
:1002A000200095C85C4CF98FF5DF0545F2406244AB
:1002B000D2444249B249224A056182809DC4370630
:1002C0004000B70620005C4C33F7C700F58F65DFB0
:1002D000FDDB0545E1BF5C4CF2406244D24442493B
:1002E000B249224A054505618280370740005C4CCF
:1002F000F98FF5DF05455DBF484D1981058982807D
:100300005C4D93F70704EDDF8280484D1D81058920
:1003100082800CD582801307F6FF09CEFD5683D765
:10032000050089051CD55C4D93F70704EDDF7D17AB
:10033000E317D7FE8280484D1581134515000589C6
:100340008280484D1581058982805C4D93F70702B4
:10035000EDDF8280485142054181828009CE33879A
:10036000C5005C4D93F70702EDDF5C518505A38F57
:10037000F5FEE398E5FE828011A05C515C4D93F799
:100380000702E5FF8280B71708003717080023A48B
:10039000A7428327C74193F70704E5DF82801D71D9
:1003A000CAC886CEA2CCA6CACEC6D2C4D6C2DAC02D
:1003B0005EDE62DC66DA6AD86ED62A8903450500FD
:1003C00059C9B71C0001130B50022E8A13041900DF
:1003D000130C0003930BA002938C8CDF8A89930A81
:1003E00000026311650B03451900630B8525930714
:1003F000D002630CF5240909014663197521832491
:100400000A00110A63D50400B3049040094603456D
:10041000090005099377F50D1307C0046387E70208
:100420001DC993070006AA8663F6A700930605FE7A
:1004300093F6F60F9387E6FB93F7F70F5947636B35
:10044000F7028A07E6979C438287034509001366F3
:100450004600050979F5F6406644D6444649B64952
:10046000264A964A064BF25B625CD25C425DB25D04
:1004700025618280993B034509001304190061DD61
:10048000E30365F799332289FDB793754600032787
:100490000A0093074A00638D051C9305400463948A
:1004A000B600634A071E3E8A014EA9465DA89377AF
:1004B0004600638B071A03270A00014E110A89467A
:1004C0004DA003450A00110A093375B7937746001A
:1004D0006388071803270A00014E110AC14651A07C
:1004E000832D0A00098A110A03C50D00630F051A3E
:1004F000014422870504B3878D0083C70700F5FBFD
:10050000130D27000DE66377941A6A841305000221
:100510006D39A2870504E3EB97FE014463F0A4174D
:1005200003C50D00050D6A94130D140011C5850D4A
:10053000693903C50D0065FDE37F94F213050002E0
:100540006931EA87050DE3EB97FE35B793774600EF
:1005500063920710A14693074A0003270A00014E41
:100560003E8A930780071D436314F500130370024E
:100570000145A54821A0630E54112285B375D70209
:100580003A8893F7F50F3357D70263F5B8009A9777
:1005900093F7F70F13041500B385890093870703BA
:1005A000A38FF5FEE379D8FC630C0E0093070402D9
:1005B000338427009307D0022300F4FE13042500A0
:1005C000937D1600920D098A938D0D02130D140070
:1005D00079EA637A94006E85CD3EEA87050DE39C47
:1005E000F4FE138D14004E940345F4FF7D14F13E88
:1005F000E39C89FE13041D00E37F9DE613050002C2
:10060000E936A2870504E39BF4FEB5B5930705FD23
:1006100093F7F70FA54681442547E3EDF6DE939760
:100620002400A69786070509AA970345F9FF938436
:1006300007FD930705FD93F7F70FE372F7FED9BBAC
:100640000345290005460D094DBB03452900094610
:100650000D0965B303270A00014E110AA14611B71F
:10066000C14693074A00D5BD894693074A00F5B5B0
:1006700093054004E387B6E2A946C5B503C50D005E
:100680003384A441050D6A94130D1400E31105EAA7
:1006900065B57D4511BF136606013307E0403E8A0C
:1006A000414EA9467DBD228D3DBF054D01EAE39E29
:1006B00004E4D1B36A84130D370095BD0144ADBD88
:1006C000411122C43704000226C283248400AA8771
:1006D0002E8506C62324F400CD3CB240232494008A
:1006E0002244924441018280411122C406C62A84D8
:1006F0000345050011C50504C93C0345040065FD1B
:10070000B240224441018280411126C2B704000256
:100710004AC003A9840023A4A40003C5050006C69B
:1007200022C419C52E8405044D340345040065FD1B
:10073000B240224423A42401924402494101828010
:100740003971130341022ED29A8506CE32D436D6A1
:100750003AD83EDA42DC46DE1AC69131F2402161D7
:10076000828039712E8E22CC2C10370400022A830D
:10077000728506CE3EDA32D436D63AD842DC46DE30
:10078000232264002EC6213983274400232204003B
:1007900023800700F240624421618280397122CCBB
:1007A0003704000226CA2E8E832484002C102A834C
:1007B000728506CE32D436D63AD83EDA42DC46DEF0
:1007C000232464002EC6E13EF240232494006244B8
:1007D000D24421618280011122CC2A843715000184
:1007E000130505E626CA4AC806CE4EC6B284368927
:1007F000813F8947630AF9029147630DF9008547F4
:10080000630FF9026244F240D2444249B249294599
:10081000056165BA371900010C40FD14130589E71D
:100820001104393FF5F8F9BF371900018355040069
:10083000FD14130509E709042137EDF8E1B7635109
:100840009006A2942289B7190001834509001385F7
:1008500089E60509F535E39A24FF13050002B53250
:100860001309E005034704001305E002930707FEA0
:1008700093F7F70F6361F90205043A85B932E30390
:1008800094F8034704001305E002930707FE93F76B
:10089000F70FE373F9FE05040D3AE39584FC9DB769
:1008A000130500021D32B9BF011126CAB7040002A8
:1008B00083A7040006CE22CC4AC84EC652C456C2F4
:1008C0005AC0A1C3AA8A01443549214A7D4B938964
:1008D000F5FF39A06354AB00634E340183A70400D5
:1008E000829705C1630A2503E31645FF65D87D1489
:1008F000E938EDB733878A002300A7000504F130FB
:10090000F1BF0145F2406244D2444249B249224A11
:10091000924A024B05618280A29A294523800A00EF
:100920006D300545C5B7797126D2B704000252CCA7
:1009300006D603AA040022D44AD04ECE56CA5AC8BC
:100940005EC623A0A40021C1AE8A01443549A14955
:100950007D4B930BF6FF39A06354AB00634E7401DB
:1009600003A50400029505C1630D2503E31635FFB9
:1009700065D87D149938EDB733878A002300A70026
:100980000504A130F1BF0145B250225423A0440117
:1009900002599254F249624AD24A424BB24B4561E3
:1009A0008280B3858A0029452380050039380545B2
:1009B000E1BF144123A005001307000283C706000E
:1009C000639DE700138716001306000218C18347D2
:1009D0000700BA860507E38BC7FE1307D002814ED6
:1009E0006399E7001387160018C183C71600854E68
:1009F000BA86130700036381E706138707FD1377A1
:100A0000F70FA546294663E2E608814693080006EB
:100A1000414E13030002138707FD1377F70F138866
:100A200007FE63F6F8069377F80F138797FC1377A2
:100A3000F70F637CC704B306D6021C411388170066
:100A40002320050183C71700BA96E366F3FC63937E
:100A50000E0494C105458280938716001CC183C78C
:100A60001600130720066388E704130780076386D0
:100A7000E70213070002E37FF7FC138707FD1377F4
:100A8000F70FA5462146E3F2E6F801458280E372BE
:100A9000EEFA61BFB306D0406DBF938726001CC13C
:100AA00083C72600414613070002E360F7F681463C
:100AB000E3810EFAC5B7938726001CC183C72600C1
:100AC0000946D5B7944137470800930707408A067F
:100AD000898294C16300F510B75708009387078097
:100AE0006306F500630FE50C0545828037130500AA
:100AF000930E03C2130EC3C1130383C10147854F75
:100B00000D4F9142CDCA931317003398EF00B317DE
:100B10007F0033F6060193C7F7FF51CA411122C681
:100B2000C04103260300937834007D8EB39878008B
:100B3000336616012320C3006308540619E02324FA
:100B4000050103260E0083A8C50003A885007D8E3D
:100B5000B3987800336616012320CE0083A80E00D8
:100B600033167800B3F71701D18F23A0FE000507D5
:100B7000B3D7E640B9C3931317003398EF00B31708
:100B80007F0033F6060193C7F7FF75D2C0410326F5
:100B90000300937834007D8EB39878003366160195
:100BA0002320C300E31C54F82326050159BF050781
:100BB000B3D7E640A9FB014582803244014541019B
:100BC000828037130500930E83C0130E43C01303B6
:100BD00003C02DB737130500930E43C1130E03C195
:100BE0001303C3C021BF1C411395250009817D8DCE
:100BF0003335A000828019E24CC182800CC1828012
:100C00001C49BD8D0CC98280135745009D4763EF79
:100C1000E708B707000283A8C70013182700BD46DE
:100C2000B396060113C6F6FF3376160123A6C70056
:100C300003A6C70033150501758D518D23A6A700A6
:100C400083A6C700B757080013F6150023A2D7C024
:100C5000938607C08547B397E7000DE69CD213F74C
:100C600025000DC737570800232AF7C09189375749
:100C700008008DC52322F7C23757080001452326F7
:100C8000F7C08280DCCE13F7250069FF37570800D4
:100C9000232CF7C0918937570800E9FD2324F7C2B8
:100CA0003757080001452326F7C08280054582801A
:100CB00011819D4763E2A7048546B7570800B396A4
:100CC000A60023A8D7C0370600028325C6000A0560
:100CD0003D473317A7001347F7FF6D8F2326E60024
:100CE0000327C600014523A2E7C023ACD7C023A039
:100CF000D7C223A4D7C2828005458280B757080097
:100D000003A787C09357450005453315F500798D36
:100D10003335A0008280B757080003A707C01181B0
:100D20008547B397A700F98F33D5A7008280B757BF
:100D300008001307F00F23A6E7C282800111B7074E
:100D4000000106CE22CC93870700739057309D6731
:100D50003704050091075CCC9307B0085CC85C447D
:100D600093E787005CC4F36704308565938705804B
:100D7000F3A7473037250800814601473146938560
:100D800055D013050580EFF04FCDB7470800130786
:100D9000002098C71307004098C7216723A6E740A3
:100DA000B75708003707003023A2E7C01307000831
:100DB00023AAE7C023A0E7C223A6E7C03715000196
:100DC000930700022324F440130545E5953A37972D
:100DD0000400B74608001307F73D9C4A93C7074035
:100DE0009CCA02C6B247E34AF7FEB24785073EC631
:100DF000B247E35CF7FED5B7AE040001C2040001C0
:100E00008A040001740400017404000174040001E8
:100E100074040001740400017404000174040001EE
:100E20007404000174040001740400014C05000105
:100E3000740400017404000174040001E004000162
:100E4000740400018A0400017404000174040001A8
:100E5000CC04000153746172742E2E2E200D0A00F2
:100E60002530386C58200000202530325800000012
:100E70002025303458000000202530384C58000020
:0400000501000000F6
:00000001FF
