:0200000480007A
:100000003741000213010100B70100029381010092
:10001000B705008093850552370600801306065207
:10002000B70600029386060039A083A2050023A02C
:10003000560091059106E3EAC5FEB70500029385D7
:100040000500370600021306060021A023A00500C4
:100050009105E3EDC5FEB7000080E7804007B700DB
:100060000080E7804007B7000080E780401D7300F4
:100070005010F5BF8280000000000000000000006A
:100080000000000000000000000000000000000070
:100090000000000000000000000000000000000060
:1000A0000000000000000000000000000000000050
:1000B0000000000000000000000000000000000040
:1000C0006F004000197106C20AC40EC612C816CAD3
:1000D0001ACC1ECE22D026D22AD42ED632D836DA48
:1000E0003ADC3EDEC2C0C6C2CAC4CEC6D2C8D6CA78
:1000F000DACCDECEE2D0E6D2EAD4EED6F2D8F6DA28
:10010000FADCFEDE970000009380A0088290924007
:100110002241B2414242D2426243F24302549254DB
:100120002255B2554256D2566257F2570648964863
:100130002649B649464AD64A664BF64B065C965C5B
:10014000265DB65D465ED65E665FF65F096173004A
:10015000203001A0397106DE02C802CA02CC02CEEC
:1001600002D002D202D402D62308A1008947230A72
:10017000F1003ECE130700F8A301E1022302E102E1
:100180003ED40C080A85C12CF25021618280B70749
:100190000500938707409C5393F707029DCBB75701
:1001A0000800938707C09C4793F707089DC337470C
:1001B00008001C4B93C707401CCBB7570800130718
:1001C000000823A6E7C2B70705001307000223AC07
:1001D000E7408280011106CEB707008093870700B1
:1001E000739057302945BD37B70705005D67130782
:1001F0000704D8CF1307B01AD8CBD84713678702A4
:10020000D8C7374708009306002014C7930600405C
:1002100014C7A1662326D74037570800B706003019
:100220002322D7C093060008232AD7C02320D7C291
:100230002326D7C01307000223A4E740F367043046
:10024000856793870780F3A74730374708001C4B23
:1002500093C707201CCB02C63247B7970400938789
:10026000F73DE3C4E7FEB24785073EC6F5B78547CD
:100270006301F50289476302F50219C105458280D1
:10028000B7060600DC4A7D771307F73FF98FDCCA13
:10029000828085669386068019A0930600400147F8
:1002A000B70705009C5FE98F91EB0507B7A707002B
:1002B0009387F711E3F6E7FE0D458280411137067B
:1002C00006005C4A7D771307F73FF98FD58F5CCA2C
:1002D00002C621A0B24785073EC6324793073006C3
:1002E000E3DAE7FE01454101828091476308F504A6
:1002F00063EEA70285476306F50489476316F50296
:10030000A14601450147B70705009C5FF58F85EFC2
:100310000507B7A707009387F711E3F6E7FEB707CE
:100320000500C8D30D45828005458280A14763152D
:10033000F50089460945F9B70545828085460D4592
:10034000D1B79146C1B741118A05C98DB7070500DC
:10035000CCD302C621A0B24785073EC632479307D9
:100360003006E3DAE7FE01454101828085476301FB
:10037000F50289476301F50219C105458280B70678
:1003800006009C4A7D771307F73FF98F9CCA82804D
:100390001306004021A00566130606800147B70733
:1003A00005009C5FE98F91EB0507B7A707009387CE
:1003B000F711E3F6E7FE0D4582804111370706008D
:1003C0001C4BFD769386F63FF58FD18F1CCB85476E
:1003D0001CCF02C621A0B24785073EC6324793070D
:1003E0003006E3DAE7FE01454101828011C5854709
:1003F0006306F50005458280894611A0AA8601475B
:10040000B70705009C5FF58F91EB0507B7A70700BD
:100410009387F711E3F6E7FE0D4582804111B70798
:100420000500C8D702C632479307300663C6E70007
:10043000B24785073EC6C5BF014541018280B70767
:10044000050088C38280B7070500C8C38280B7074C
:10045000050088C78280411106C622C426C2AA842C
:100460002E842320050023220500232405002326B3
:100470000500B7070600D84B719BD8CB984B719BF2
:1004800098CB03C735010A07D8CB03C745010A0734
:1004900098CBC845E93B88C00C4403454400B135BE
:1004A000C8C003450401613F03451401693F03458A
:1004B0002401713F084C5D3D88C4484C053FC8C4C9
:1004C00083470400858B99E7370706005C4B93E769
:1004D00027005CCB83470400898B99E73707060028
:1004E0005C4B93E717005CCB83470400918B99E743
:1004F000370706001C4B93E727001CCB83470400FB
:10050000A18B99E7370706001C4B93E717001CCB1C
:100510002685B240224492444101828000000000BE
:040000058000000077
:00000001FF
