:0200000480007A
:100000003741000213010100B70100029381010092
:10001000B70500809385052C370600801306062C53
:10002000B70600029386060039A083A2050023A02C
:10003000560091059106E3EAC5FEB70500029385D7
:100040000500370600021306060121A023A00500C3
:100050009105E3EDC5FEB7000080E7804007B700DB
:100060000080E7804007B7000080E78040267300EB
:100070005010F5BF8280000000000000000000006A
:100080000000000000000000000000000000000070
:100090000000000000000000000000000000000060
:1000A0000000000000000000000000000000000050
:1000B0000000000000000000000000000000000040
:1000C0006F004000197106C20AC40EC612C816CAD3
:1000D0001ACC1ECE22D026D22AD42ED632D836DA48
:1000E0003ADC3EDEC2C0C6C2CAC4CEC6D2C8D6CA78
:1000F000DACCDECEE2D0E6D2EAD4EED6F2D8F6DA28
:10010000FADCFEDE970000009380C00F82909240E0
:100110002241B2414242D2426243F24302549254DB
:100120002255B2554256D2566257F2570648964863
:100130002649B649464AD64A664BF64B065C965C5B
:10014000265DB65D465ED65E665FF65F096173004A
:10015000203001A0B70700809387070073905730C5
:10016000B70705001D671107D8CF1307B008D8CB14
:10017000D84713678700D8C7F3670430856793872C
:100180000780F3A747308280B74708001306002096
:1001900090C71307004098C790C398C3371705004E
:1001A0008326C7C0B705FDFFFD15ED8EC165CD8E59
:1001B0002326D7C08326C7C0B705F4FFFD15ED8EF3
:1001C000B7050400CD8E2326D7C01307001023A641
:1001D000E74023A4C7408280B7260800856793873D
:1001E00057D023A6F6809307D00623A0F680FD57AC
:1001F00023AEF680B7070500114723A4E7408280AD
:10020000B7070500938707409C53918BB9CBB7275D
:10021000080093870780DC4F93F7070481CFB72747
:1002200008001307000423AEE780B7070002054764
:100230002380E700B727080093870780DC4F93F7F8
:10024000070299CBB72708001307000223AEE78007
:1002500003A7478223A4E782B7070500114723AC11
:10026000E7408280011106CEF535393FB537B70733
:10027000000283C70700E5DFB74708001307004007
:1002800098C313070020D8C302C6324789679387F3
:10029000F77063DFE700B747080013070040D8C3D3
:1002A0001307002098C3B707000223800700C1B7D7
:1002B000B24785073EC6D1BF000000000000000025
:040000058000000077
:00000001FF
