:0200000480007A
:100000003741000213010100B70100029381010092
:10001000B71500809385052837160080130606283B
:10002000B70600029386060039A083A2050023A02C
:10003000560091059106E3EAC5FEB70500029385D7
:100040000500370600021306060221A023A00500C2
:100050009105E3EDC5FEB7000080E7804007B700DB
:100060000080E7804007B7000080E780003573001C
:100070005010F5BF8280000000000000000000006A
:100080000000000000000000000000000000000070
:100090000000000000000000000000000000000060
:1000A0000000000000000000000000000000000050
:1000B0000000000000000000000000000000000040
:1000C0006F004000197106C20AC40EC612C816CAD3
:1000D0001ACC1ECE22D026D22AD42ED632D836DA48
:1000E0003ADC3EDEC2C0C6C2CAC4CEC6D2C8D6CA78
:1000F000DACCDECEE2D0E6D2EAD4EED6F2D8F6DA28
:10010000FADCFEDE970000009380E00482909240CB
:100110002241B2414242D2426243F24302549254DB
:100120002255B2554256D2566257F2570648964863
:100130002649B649464AD64A664BF64B065C965C5B
:10014000265DB65D465ED65E665FF65F096173004A
:10015000203001A03D432A876373C3029377F700E1
:10016000BDEFADE5937606FF3D8ABA960CC34CC34E
:100170000CC74CC74107E36BD7FE11E28280B30680
:10018000C3408A069702000096966780A600230760
:10019000B700A306B7002306B700A305B7002305E1
:1001A000B700A304B7002304B700A303B7002303D9
:1001B000B700A302B7002302B700A301B7002301D1
:1001C000B700A300B7002300B700828093F5F50FB6
:1001D00093968500D58D93960501D58D61B793963D
:1001E00027009702000096968682E78086FA96801E
:1001F000C1171D8F3E96E374C3F8A5B7397106DEAB
:1002000002C802CA02CC02CE02D002D202D402D666
:10021000BD472308F1008947230AF1003ECE93072A
:1002200000F8A301F1022302F1020C080A85EF0095
:10023000904FF25021618280B707008093870700BA
:1002400073905730B70705001D671107D8CF130704
:10025000B008D8CBD84713678700D8C78280B726A5
:100260000800138706808567138657D023A6C680AB
:10027000354623A0C680FD5654CF3707050091466A
:100280002324D7407367043093870780F3A7473050
:100290008280411106C622C437040002930704007D
:1002A000370707001307074098C323A8070023AAAE
:1002B000070023AC070013050400EF00F00FB7554B
:1002C000E8019385058013050400EF007012B24029
:1002D000224441018280011106CE22CC26CA02C0EE
:1002E00002C202C402C6B70705000567D8CF096776
:1002F000D8CF1167D8CFC164C4CF1304002022C067
:100300008A8537450800EF003014B717050003A7AA
:10031000C7C0B706FDFFFD16758F458F23A6E7C042
:1003200003A7C7C0B706F4FFFD16758FB706040014
:10033000558F23A6E7C0B74708001307001023A670
:10034000E74023A48740F2406244D24405618280A2
:100350002D71232E1110232C8110232A9110232874
:1003600021112326311123244111493DF135A537AF
:10037000FD3505373715008013054510352D13065B
:10038000000881450801F9331306000881450A85F4
:10039000D1333715008013054512392D37150080EC
:1003A00013054514112D814729A81397270013071A
:1003B00007100A97B7565555938656552320D7F8F8
:1003C00085077D47E353F7FE371500801305451574
:1003D000E5233715008013054516F92B814901499E
:1003E00099A08504FD4763C99702139424009307DD
:1003F000041033842700832504F03715008013058B
:1004000045185D2B032704F8B75755559387575563
:10041000E309F7FC0549F1B79305002037450800CB
:10042000EF00701185099307F00363CA37039395B2
:100430007900C205C18161671307076A930600024C
:100440000A863705000213050500EF00806ACE8595
:1004500037150080130545178523814461B7630A6A
:100460000902371500801305C518B9233715008018
:100470001305851A912385453705000213050500EC
:10048000EF00806D371500801305851C35238147EB
:100490001DA0371500801305051A392BC1BF13970E
:1004A0002700130707100A97B756555593865655D8
:1004B0002320D7F885077D47E353F7FE37150080E3
:1004C0001305C51DD529371500801305051FED211E
:1004D000814729A813972700130707100A97B7B673
:1004E000AAAA9386A6AA2320D7F885077D47E353B7
:1004F000F7FE37150080130545207D29E1679387B6
:10050000076A05479306000210018145370500027E
:1005100013050500A9233715008013054516692921
:100520008144014485A085077D476341F702139705
:100530002700130707100A97832607F037575555EA
:1005400013075755E381E6FE0544F1BF814711A02B
:1005500085077D476341F7021397270013070710AC
:100560000A97832607F037B7AAAA1307A7AAE38139
:10057000E6FE0544F1BF9305002037450800EF0073
:10058000807B89049307F00363C49700814769BFA8
:10059000814537050002130505007D2B21C0371565
:1005A00000801305C518092937150080130585211A
:1005B00021213715008013054514FD2E61671307AF
:1005C000076A8146130600028965938505E03705B1
:1005D0000002130505000121814739A83715008065
:1005E0001305051AD12EC9B7139727001307071053
:1005F0000A972320F7F885077D47E357F7FE37155D
:100600000080130545154D2EB7040002616A93075B
:100610000A6A01479306000210018969938509E07F
:10062000138504002D29371500801305451669260A
:1006300013070A6A930600020A86938509E0138568
:10064000040045298144014A11A08504FD4763C582
:1006500097029399240093870910B389270083A5F3
:1006600009F03715008013054518B92683A709F04E
:10067000E38D97FC054AD1BF63030A043715008058
:100680001305C518152E05469305002037450800AB
:10069000EF00C06933648900336444011DC4371519
:1006A000008013058523092E01C0930500203745DE
:1006B000080051251305401FEF00501DF5B73715F1
:1006C00000801305051ACD2C7DBF3715008013055A
:1006D0008525DD24D1BF411106C622C4AA85372451
:1006E0000800130504801D28130504802928B24042
:1006F0002244410182805C4D93F7070499E3014550
:10070000828005458280411106C622C42A84228542
:10071000DD3775DDB2402244410182800CD58280F4
:10072000411106C622C42A8419A005046D37034569
:10073000040065FDB2402244410182805D7186C69D
:10074000A2C4A6C2CAC04EDE52DC56DA5AD82A8AE1
:100750002EC6E1AA4937228AC9AA13073A000345DF
:1007600014000549CDAA13073A00034514000949AE
:10077000DDA2B30930410949DDAA93972900CE973C
:100780008607AA97938907FD034507000507930786
:1007900005FD93F7F70FA546E3F1F6FE3A8AE1AAC5
:1007A0008149F5B72A869307E6FB93F6F70F594779
:1007B000636BD70893972600371700801307870AC3
:1007C000BA979C438287B247138747003AC683AAE9
:1007D0000700014411A00504B3878A0083C70700FE
:1007E000FDFB29A013050002FD352684937729001F
:1007F00091E793041400E36734FF268456850D3790
:1008000029A013050002C13D268493041400E36A65
:1008100034FF21AAB247138747003AC603C5070031
:100820005D3D21A2A9469377490085C7B24713874A
:1008300047003AC6984393074004630BF60201460B
:10084000A5A0C146CDB7413DCDA08946E9BFA1468F
:10085000D9BF930740046308F600B24713874700E7
:100860003AC69843E9BFB247138747003AC6984350
:10087000E35707FC3307E04013690901C9B71308C0
:100880007002C29793F7F70F1304160093870703BC
:1008900093040603338824002300F8FE63E4D502A2
:1008A000FD4763E187022286B377D702BA853357C3
:1008B000D7022548E37AF8FC13088007E30105FD19
:1008C0001D48C1B79377090199CB9307040333847B
:1008D00027009307D0022300F4FE13042600937729
:1008E000190089C7130B0003A28439A0130B00025F
:1008F000E5BF5A85CD33D6849377290091E7938A53
:100900001400E3E834FFD6847D14930704038A9728
:1009100003C507FEC9336DF829A013050002653B26
:10092000A28413841400E3EA34FF13041A0003457D
:100930000A002DC993075002E31EF5E013072A00B1
:100940000345040093070003E309F5E09307D00291
:10095000E30BF5E001499307A002E313F5E4B24786
:100960009386470036C683A90700E3C409E0130A4B
:100970001700034507009307C0066306F5009307B9
:10098000C0046317F5001369490003450A00050A0E
:1009900011C993070006E3F7A7E0130605FE1376D7
:1009A000F60F11B5B640264496440649F259625AEC
:1009B000D25A425B61618280397106CE2ED232D426
:1009C00036D63AD83EDA42DC46DE4C102EC6BD336F
:1009D000F240216182802A8808418328850093970C
:1009E0003600B3E7170193E707081CC58327080102
:1009F000BDE383270800CCC3814731A083260800CC
:100A000023A006008507E3CBC7FE832608009C468B
:100A100093E737009CC631C37D1783270800C8477A
:100A2000058975F925A80D4515E98508E3DFC8FC9A
:100A30009397280083260800AE97DCC2832708001E
:100A400023A00700BA87E5D3FD1783260800C84610
:100A5000058975F9D1BF8148D1BF0D458280AA882B
:100A60000841032885000E0733670701136707084D
:100A700018C503A7080135EB03A708004CC30147BD
:100A800009A803A5080093152700B2958C410CC155
:100A90000507E348D7FE83A608009846136757006A
:100AA00098C6B1C7FD1703A708004847058975F91F
:100AB00081A00D4515ED0503E35FD3FC131723005B
:100AC00003A508003388E5002322050103A50800DB
:100AD0003297184318C13E8769DF7D1703A80800C5
:100AE0000325C80005896DF9F1B70143F1B70D453C
:100AF0008280AA88084929ED83A70800CCC3AA8769
:100B000009A883A508001397270032978C410CC3CE
:100B10008507E3E8D7FE82800D4515ED83A7080021
:100B200032939C432320F300050E6376DE021313F9
:100B30002E0083A7080033856500C8C3BA87E9DFA4
:100B4000FD1703A808000325C80005896DF9F1B752
:100B5000014E0145D9BF82800CC985476388F500E5
:100B600018411C4793F7F7FD1CC7828018411C47AA
:100B700093E707021CC782804CC985476388F5004C
:100B800018411C4793F7F7FB1CC7828018411C478C
:100B900093E707041CC782800CCD85476388F50066
:100BA00018411C4793F7F7EF1CC7828018411C4778
:100BB00093E707101CC782801841B7070700938787
:100BC00007406304F70005458280411106C622C430
:100BD0002A84232407000C4941374C482285693F69
:100BE0000C4C2285553F0145B24022444101828090
:100BF00085472302F5002303F5009307401FB3C781
:100C0000F5021CC593971500AE973717030013071D
:100C100007D4B3C7E7022316F5009307803EB3C598
:100C2000F50293971500AE9713974700BA97374789
:100C30000F0013070724B3C6E702B3E7E70291C327
:100C40008506A302D50082809C41370700407D17AE
:100C5000F98F9CC1B747080093870740630AF508DE
:100C6000B757080093870780630DF508B74708005A
:100C70006303F50A0545828011486309060714C518
:100C800083260E00FD8ED04533161601D18E23200B
:100C9000DE0083A60E00F58F9445B3961601D58F1E
:100CA00023A0FE0005079C41B3D6E740B5CE85469C
:100CB000B396E600F58FFDD70326030093181700BF
:100CC0008D47B397170193C7F7FF7D8E03A84500A3
:100CD0001378380033181801336606012320C30047
:100CE000D0411148E30A06F941FE79B754C549BF1E
:100CF00037130500930E43C1130E03C11303C3C082
:100D000009A837130500930E03C2130EC3C11303C2
:100D100083C1014749BF37130500930E83C0130EEB
:100D200043C0130303C0F5B70145828019E24CC1EB
:100D300082800CC182801C49BD8D0CC98280854790
:100D40006301F50289476302F50219C105458280F6
:100D5000B7060600DC4A7D771307F73FF98FDCCA38
:100D6000828085669386068019A09306004001471D
:100D7000B70705009C5FE98F91EB0507B7A7070050
:100D80009387F711E3F6E7FE0D45828041113706A0
:100D900006005C4A7D771307F73FF98FD58F5CCA51
:100DA00002C621A0B24785073EC6324793073006E8
:100DB000E3DAE7FE01454101828091476308F504CB
:100DC00063EEA70285476306F50489476316F502BB
:100DD000A14601450147B70705009C5FF58F85EFE8
:100DE0000507B7A707009387F711E3F6E7FEB707F4
:100DF0000500C8D30D45828005458280A147631553
:100E0000F50089460945F9B70545828085460D45B7
:100E1000D1B79146C1B741118A05C98DB707050001
:100E2000CCD302C621A0B24785073EC632479307FE
:100E30003006E3DAE7FE0145410182808547630120
:100E4000F50289476301F50219C105458280B7069D
:100E500006009C4A7D771307F73FF98F9CCA828072
:100E60001306004021A00566130606800147B70758
:100E700005009C5FE98F91EB0507B7A707009387F3
:100E8000F711E3F6E7FE0D458280411137070600B2
:100E90001C4BFD769386F63FF58FD18F1CCB854793
:100EA0001CCF02C621A0B24785073EC63247930732
:100EB0003006E3DAE7FE01454101828011C585472E
:100EC0006306F50005458280894611A0AA86014780
:100ED000B70705009C5FF58F91EB0507B7A70700E3
:100EE0009387F711E3F6E7FE0D4582804111B707BE
:100EF0000500C8D702C632479307300663C6E7002D
:100F0000B24785073EC6C5BF014541018280B7078C
:100F1000050088C38280B7070500C8C38280B70771
:100F2000050088C78280411106C622C426C2AA8451
:100F30002E842320050023220500232405002326D8
:100F40000500B7070600D84B719BD8CB984B719B17
:100F500098CB03C735010A07D8CB03C745010A0759
:100F600098CBC845E93B88C00C4403454400B135E3
:100F7000C8C003450401613F03451401693F0345AF
:100F80002401713F084C5D3D88C4484C053FC8C4EE
:100F900083470400858B99E7370706005C4B93E78E
:100FA00027005CCB83470400898B99E7370706004D
:100FB0005C4B93E717005CCB83470400918B99E768
:100FC000370706001C4B93E727001CCB8347040020
:100FD000A18B99E7370706001C4B93E717001CCB42
:100FE0002685B240224492444101828018411C432C
:100FF00093E717001CC3828018411C43F99B1CC354
:101000001C4123A407001C4123A607008280411134
:1010100006C6B70705009C4337170200130797C49D
:101020006373B700BA852167130707D0B385E5025C
:1010300093F7F70F8507B3D5F5028357650085074A
:10104000B3D5F5021C4123A407001C4123A60700C9
:101050001C418CCB1C4123AA0700493FB2404101EF
:1010600082801C419047D847944BDC4B630BF700C0
:1010700063FCE700411106C641370545B240410116
:101080008280E3F7C6FEFDB701458280411106C6A6
:1010900022C42A84AD3F2285E93775DD2285A93F28
:1010A000B2402244410182804A0800801408008036
:1010B000240800804608008046080080460800801A
:1010C00046080080460800804608008046080080E8
:1010D0004608008046080080460800804E080080D0
:1010E000460800804608008046080080C607008049
:1010F00046080080240800804608008046080080DA
:10110000420800800A3D3D3D3D2048414C5F454539
:1011100050524F4D204578616D706C65203D3D3DCE
:101120003D0D0A000A3D3D3D3D20312920577269A1
:10113000746520416C6C205061676573203D3D3DB6
:101140003D0D0A0045726173696E672E2E2E0D0AE1
:101150000000000057726974696E672E2E2E0D0A0A
:101160000000000052656164696E672E2E2E0D0A24
:10117000000000000D0A50616765202025640D0AFB
:101180000000000020262620256400004572726FB2
:1011900072206465746563746564210D0A00000043
:1011A0004F4B210D0A0000000A3D203229205772C2
:1011B000697465204F64642F4576656E20506167C1
:1011C000657320203D0D0A0045726173696E6720CA
:1011D0004F64642E2E2E0D0A0000000057726974B1
:1011E000696E67204F64642E2E2E0D0A00000000E9
:1011F00045726173696E67204576656E2E2E2E0DE1
:101200000A00000057726974696E67204576656E42
:101210002E2E2E0D0A0000000A3D3D2033292057B6
:10122000726974652053696E676C652050616765EB
:101230007320203D3D0D0A000A3D3D3D3D3D3D20D2
:10124000526573756C743A204572726F7220203D3E
:101250003D3D3D3D3D0D0A000A3D3D3D3D3D3D3D91
:101260003D20526573756C743A204F4B203D3D3DD7
:101270003D3D3D3D3D0D0A00000000000000000026
:040000058000000077
:00000001FF
